:020000040800F2
:100000006021002091010008994E0008314300084A
:10001000954E0008011000080D5000080000000077
:10002000000000000000000000000000F14E000889
:100030005510000800000000A14E0008D94F00082C
:10004000AB010008AB010008AB010008AB010008E0
:10005000AB010008AB010008AB010008AB010008D0
:10006000AB010008AB010008AB0100084910000813
:10007000AB010008AB010008AB010008AB010008B0
:10008000AB010008AB010008AB010008AB010008A0
:100090000150000805100008AB010008AB01000882
:1000A000AB010008AB010008AB010008AB01000880
:1000B000AB010008AB010008F54F0008AB010008D8
:1000C000AB010008AB010008AB010008AB01000860
:1000D000AB010008AB010008AB010008AB01000850
:1000E000AB010008AB010008AB01000800F002F80A
:1000F00000F03EF80AA090E8000C82448344AAF184
:100100000107DA4501D100F033F8AFF2090EBAE881
:100110000F0013F0010F18BFFB1A43F0010318473B
:10012000E062000000630000103A24BF78C878C184
:10013000FAD8520724BF30C830C144BF04680C60ED
:10014000704700000023002400250026103A28BF35
:1001500078C1FBD8520728BF30C148BF0B60704739
:100160001FB59DE8030000F077F91FBD10B510BD65
:1001700000F000FA1146FFF7F3FF04F0DDFF00F096
:100180001EFA03B4FFF7F2FF03BC00F04FFA0000C1
:100190000948804709480047FEE7FEE7FEE7FEE71B
:1001A000FEE7FEE7FEE7FEE7FEE7FEE70448054957
:1001B000054A064B70470000F14F0008ED000008AB
:1001C00060150020602100206019002060190020C7
:1001D00070B5064600F024F9056806F10B0020F022
:1001E0000704B4429CBF002070BD2B466A68BAB1B8
:1001F0001068A04210D304F1080188423CBF506847
:10020000586007D35168101941601168091B0160DB
:1002100058601460101D70BD13465268002AE7D163
:100220002146284600F004F90028DED170BD70B5E3
:100230000446051F00F0F4F80068002C14BF446861
:1002400070BD002C18BFAC423CBF20466468F8D398
:1002500001680A18AA4218BF456003D12A680546FA
:100260001144016028684119A1421CBF6C6070BD37
:100270006168696021680844286070BD70B50D46EA
:100280000646041F00F0CCF80268BDB1DEB105F1EE
:100290000B0020F00701A9423CBF002070BD23687D
:1002A0008B4238BF506813D35A1A082A36D36018C5
:1002B00040F8042B2160FFF7BAFF2FE03046FFF72C
:1002C000B6FF002070BD2846BDE87040FFF780BF34
:1002D000002818BFA0423CBF02464068F8D303EB99
:1002E000040C84451CD1D0F800C06344994217D84F
:1002F000A3EB010CBCF1080F0DD3D0F804C06318B8
:10030000C3F804C0D4F800C000686044401A186004
:100310002160536002E0236040685060201D70BD82
:100320002846FFF755FF050008D031462068021F18
:10033000284600F0C7F8201DFFF779FF284670BD5A
:10034000032A40F2308010F0030C00F0158011F801
:10035000013BBCF1020F624498BF11F801CB00F8D9
:10036000013B38BF11F8013BA2F1040298BF00F82D
:1003700001CB38BF00F8013B11F0030300F0A2806D
:10038000083AC0F0088051F8043B083A51F804CB11
:10039000A0E80810F5E7121D5CBF51F8043B40F8D7
:1003A000043BAFF30080D20724BF11F8013B11F8E2
:1003B00001CB48BF11F8012B24BF00F8013B00F826
:1003C00001CB48BF00F8012B70474FF0000200B589
:1003D000134694469646203922BFA0E80C50A0E868
:1003E0000C50B1F12001BFF4F7AF090728BFA0E816
:1003F0000C5048BF0CC05DF804EB890028BF40F8E2
:10040000042B08BF704748BF20F8022B11F0804F23
:1004100018BF00F8012B7047704770477047000005
:1004200000487047180000207047704770477047B9
:1004300038B504460A4600206946AFF3008000281C
:1004400008BF38BD02460099204600F071F801202F
:1004500038BD012000F086B8F8B5AFF3008005463E
:1004600000200C46102000BF0646A819A0420DD956
:10047000324669460020AFF30080070008BF00F055
:1004800071F80098A04218BF0546C419FFF7C8FFCD
:1004900005600746F01D20F007004619284600F0C9
:1004A0000AF8B44208BFF8BDA21B31463868BDE85F
:1004B000F84000F03DB800210160C0E9011070472C
:1004C0001020704710B5203AC0F00B80B1E81850EA
:1004D000A0E81850B1E81850A0E81850203ABFF42E
:1004E000F5AF5FEA027C24BFB1E81850A0E81850CD
:1004F00044BF18C918C0BDE810405FEA827C24BF21
:1005000051F8043B40F8043B08BF7047D20728BFAE
:1005100031F8023B48BF11F8012B28BF20F8023BFD
:1005200048BF00F8012B70470048704710000020BA
:10053000034640688C46002818BF88423CBF0346EB
:100540004068F8D318681844884207D00CF10300BB
:1005500020F00700001D411A521A0146081D0A60CA
:10056000FFF765BE10B500F039F8BDE8104000F0A7
:100570002FB870477546FFF7D7FFAE4605006946AE
:10058000534620F00700854618B020B5FFF70EFE51
:10059000BDE820404FF000064FF000074FF0000884
:1005A0004FF0000BAC46ACE8C009ACE8C009ACE8C1
:1005B000C009ACE8C00921F007018D46704710B5AD
:1005C0000446AFF300802046BDE81040FFF7D9BDD8
:1005D000002801D000F02AB87047000010B50128AB
:1005E00005D0002103A000F027F8012010BD09A1CB
:1005F000F8E7000053494752544D454D3A204F7596
:1006000074206F662068656170206D656D6F72790A
:10061000000000003A2048656170206D656D6F72C2
:100620007920636F727275707465640001491820D7
:10063000ABBEFEE72600020070B505460C460A2058
:1006400000E06D1C00F011F835B128780028F8D1D1
:1006500002E0641C00F009F814B120780028F8D1F9
:10066000BDE870400A20AFF3008008B569468DF8F8
:1006700000000320ABBE08BDB0B504460068816829
:10068000C90709D0816821F00101816001F07EFF76
:1006900021688968C90701D10020B0BD054602E084
:1006A0008068C007F8D001F071FF411B2068032962
:1006B000F6D38168C907F3D0A06A40F01000A062A9
:1006C000E06A40F00100E0620120B0BD0146406AEE
:1006D000826A12F0500F03D0006A026B084610477E
:1006E0000168826A42F400728262896801F46021C2
:1006F000B1F5602F01D1017B11B100F053BE00BFF5
:10070000816A21F480718162816AC90448BF00F066
:1007100049BE816A41F00101816200F043BE0000E0
:10072000406A816A41F040018162C16A41F004017E
:10073000C16200F05BBE0000406A00F055BE0000E0
:10074000B0B582B004460020019021688A68D207C3
:100750004FD1886840F00100886040F20800C2F282
:10076000000000684DF68361C4F21B31A0FB01015B
:10077000880C01900198A0B101980138019001986E
:1007800078B1019801380190019850B10198013871
:100790000190019828B10198013801900198002832
:1007A000EAD101F0F3FE21688968C9071CD105462A
:1007B00003E000BF8068C0071AD101F0E7FE411BCB
:1007C00020680329F6D38168C907F3D1A06A40F0F5
:1007D0001000A062E06A40F00100E062002084F8AE
:1007E0002400012002B0B0BD002002B0B0BD00BFA7
:1007F000002002B0B0BD000010B540F29004C2F27B
:1008000000040020C4E90000C4E90200C4E90400B7
:10081000C4E90600C4E90800C4E90A000020362142
:1008200000F056FB6070012020760120362100F098
:100830004FFB607610BD0000F0B583B00446007831
:100840000DF10A0502276C210E222B46009700F0BD
:1008500051FBBDF80A000C22010420780EBA6C216D
:100860002B46009700F046FBBDF80A00A18800BAAD
:10087000000C6080701A04F0CBFB40F6CC4188423B
:1008800008DDA188E0888E422CBF01380130E0806D
:1008900001E000BFE08800B206EB0030A680A06057
:1008A00003B0F0BD10B540F29004C2F2000420463F
:1008B000FFF7C2FF04F11800BDE81040FFF7BCBF0E
:1008C00040F2A811C0EBC000C2F2000101EB8000B1
:1008D000002101757047000040F2A811C0EBC00074
:1008E000C2F2000101EB8000007D704740F2A811C8
:1008F00040F27020C2F20001C2F2000000228A61C0
:10090000C1E90002C1E902220A610A7500F0F8BBE0
:1009100040F2A812C0EBC000C2F2000202EB80005D
:100920008161704740F2A811C0EBC000C2F2000123
:1009300051F820000431082200F05CBEF0B58BB005
:1009400040F2C41EC2F2000E0EEBC0173B4633F855
:10095000104F4FF0000CB4F5006F4FF0000400F0A2
:10096000B8813B4633F8124FB4F5006F02D1012431
:10097000AFE100BF3B4633F8144FB4F5006F01D12F
:100980000224A6E13B4633F8164FB4F5006F01D1BF
:1009900003249EE13B4633F8184FB4F5006F01D1B4
:1009A000042496E13B4633F81A4FB4F5006F01D1A9
:1009B00005248EE13B4633F81C4FB4F5006F01D19E
:1009C000062486E13B4633F81E4FB4F5006F01D193
:1009D00007247EE13B4633F8204FB4F5006F01D188
:1009E000082476E13B4633F8224FB4F5006F01D17D
:1009F00009246EE13B4633F8244FB4F5006F01D172
:100A00000A2466E13B4633F8264FB4F5006F01D166
:100A10000B245EE13B4633F8284FB4F5006F01D15B
:100A20000C2456E13B4633F82A4FB4F5006F01D150
:100A30000D244EE13B4633F82C4FB4F5006F01D145
:100A40000E2446E13B4633F82E4FB4F5006F01D13A
:100A50000F243EE13B4633F8304FB4F5006F01D12F
:100A6000102436E13B4633F8324FB4F5006F01D124
:100A700011242EE13B4633F8344FB4F5006F01D119
:100A8000122426E13B4633F8364FB4F5006F01D10E
:100A900013241EE13B4633F8384FB4F5006F01D103
:100AA000142416E13B4633F83A4FB4F5006F01D1F8
:100AB00015240EE13B4633F83C4FB4F5006F01D1ED
:100AC000162406E13B4633F83E4FB4F5006F01D1E2
:100AD0001724FEE03B4633F8404FB4F5006F01D1D8
:100AE0001824F6E03B4633F8424FB4F5006F01D1CD
:100AF0001924EEE03B4633F8444FB4F5006F01D1C2
:100B00001A24E6E03B4633F8464FB4F5006F01D1B6
:100B10001B24DEE03B4633F8484FB4F5006F01D1AB
:100B20001C24D6E03B4633F84A4FB4F5006F01D1A0
:100B30001D24CEE03B4633F84C4FB4F5006F01D195
:100B40001E24C6E03B4633F84E4FB4F5006F01D18A
:100B50001F24BEE03B4633F8504FB4F5006F01D17F
:100B60002024B6E03B4633F8524FB4F5006F01D174
:100B70002124AEE03B4633F8544FB4F5006F01D169
:100B80002224A6E03B4633F8564FB4F5006F01D15E
:100B900023249EE03B4633F8584FB4F5006F01D153
:100BA000242496E03B4633F85A4FB4F5006F01D148
:100BB00025248EE03B4633F85C4FB4F5006F01D13D
:100BC000262486E03B4633F85E4FB4F5006F01D132
:100BD00027247EE03B4633F8604FB4F5006F01D127
:100BE000282476E03B4633F8624FB4F5006F01D11C
:100BF00029246EE03B4633F8644FB4F5006F01D111
:100C00002A2466E03B4633F8664FB4F5006F01D105
:100C10002B245EE03B4633F8684FB4F5006F01D1FA
:100C20002C2456E03B4633F86A4FB4F5006F01D1EF
:100C30002D244EE03B4633F86C4FB4F5006F01D1E4
:100C40002E2446E03B4633F86E4FB4F5006F01D1D9
:100C50002F243EE03B4633F8704FB4F5006F01D1CE
:100C6000302436E03B4633F8724FB4F5006F01D1C3
:100C700031242EE03B4633F8744FB4F5006F01D1B8
:100C8000322426E03B4633F8764FB4F5006F01D1AD
:100C900033241EE03B4633F8784FB4F5006F01D1A2
:100CA000342416E03B4633F87A4FB4F5006F01D197
:100CB00035240EE03B4633F87C4FB4F5006F01D18C
:100CC000362406E03B4633F87E4FB4F5006F37D14B
:100CD000372419800121CDE9071C21EA94010591EF
:100CE0000E210A9104F03C0107F1100303EB4102CD
:100CF00033F8111056884D010295750101959288BF
:100D000044F0030533F81530FF68550104955D0183
:100D100007EB940782F4006283F40063069786F47D
:100D200000671A4381F400613A43C00111430395FF
:100D300018BF01215EF80000099101A900F0D8FD5B
:100D40000BB0F0BD10B540F2C41440F2A020C2F2C6
:100D50000004C2F2000020600020E060042004F0E3
:100D6000A7F9A06020684FF00821C4E90411C4E984
:100D70000611C4E90811C4E90A11C4E90C11C4E957
:100D80000E11C4E91011C4E91211C4E91411C4E927
:100D90001611C4E91811C4E91A11C4E91C11A1679C
:100DA000E16701F021F92068022100F037FD206899
:100DB0001021BDE8104000F031BD000080B582B0C8
:100DC00040F2C412C2F2000202EBC010806801912E
:100DD00001A904F089F902B080BD000070B586B0A9
:100DE0000546002014460091CDE90200049300F06E
:100DF000E1F840F2C411C2F2000101EBC515861CF6
:100E0000286800F087FE40B900F0D4F8B042F7D966
:100E10002868072100F0D6FC00BF28682B1D694612
:100E2000224600F013FD06B070BD00002DE9F0432E
:100E300081B040F21C59C2F2000948468021FFF7F8
:100E4000C4FA40F29C58C2F2000840468021FFF7E5
:100E5000BCFA40F20C3600274FF0FF34C2F2000615
:100E6000651C680081B2304601220A2301F050FC63
:100E7000B0FA80F04009074409EB04017F2D2C46AD
:100E80004870EDD140F27009C2F2000940F26035BD
:100E900089F8007000274FF0FF34C2F2000500BF50
:100EA000661C700081B2284601220A2301F030FC42
:100EB000B0FA80F04009074408EB04017F2E344665
:100EC0004870EDD189F8017001B0BDE8F0830000F1
:100ED00050B101281CBF0020704740F29C50C2F264
:100EE0000000405C704700BF40F21C50C2F200009E
:100EF000405C70479C4638B1012818BF704740F2EB
:100F00006030C2F2000003E040F20C30C2F2000098
:100F100010B584B0DDF818E04FF47A741FFA8EF340
:100F2000CDE901340123CDF800C001F0F9FC04B093
:100F300010BD000080B540F2A86040F2FC33C2F260
:100F4000000040F2B43200214FF0040EC2F2000360
:100F5000C2F20002C0E90931C0E90C3E40F244434C
:100F60000260C26082614FF0080CC2F20003126896
:100F7000C0E90F31C0E9123EC0E9153C01234160D0
:100F8000C0F810E0C0F81CC0936240F60F63D36253
:100F900040F2AF43536340F20773936340F65F132D
:100FA000D363816041610162C16281634164016513
:100FB000C16580BD01F0EABAB0B540F28C4440F2A0
:100FC0007805C2F20004C2F2000500202168286002
:100FD00028616861886A4AF200210130C0F24A4102
:100FE000B1FBF0F005F002F901464FF07E5005F03C
:100FF00023F8014620466960BDE8B04002F07EBC9F
:10100000FEE7000040F2A020C2F2000000F096BD12
:10101000B1F5007F0ED040F20120814218BF704729
:1010200040F24420C2F20000083011461A46FFF791
:1010300087B900BF40F24420C2F200001C301146C4
:101040001A46FFF77DB9000040F2C820C2F2000046
:1010500001F02AB870470000EFF3108072B600BFAD
:10106000FEE70000B0B582B0FFF764FFFFF73EFC7B
:10107000FFF7DCFEFFF766FEFFF79EFF40F2C005BC
:1010800045F21901C2F200050024C0F6000100205B
:10109000C5E90244C5E90444FFF73AFC022004F024
:1010A000B9F80020FFF73EFC05F11800042103F019
:1010B000C5FFFFF7A1FB44F61570C0F600000AA1BA
:1010C000802200230094019504F042FE44F6D17082
:1010D0000435C0F6000006A180220023009401958B
:1010E00004F036FE02B0B0BD4144435461736B005E
:1010F000456E636F6465725461736B0003F0C2BF29
:1011000070B582B004460020019094F824000128B4
:1011100004D10225284602B070BD00BF012084F82A
:1011200024002046FFF7A8FA2046FFF709FB0546F2
:10113000002867D1A06A41F2021188430230A06200
:1011400040F20800C2F200000668022001F0B2FE80
:10115000B6FBF0F0400001900198A0B10198013871
:101160000190019878B1019801380190019850B12F
:10117000019801380190019828B101980138019037
:1011800001980028EAD12068816841F00801816057
:1011900001F0FCF921688A6812070DD4886840F0D4
:1011A0000400886001F0F2F921688968490713D4C6
:1011B00001206FF0030121E0064602E08868000785
:1011C000ECD501F0E3F9801B21680B28F6D3886881
:1011D0000007F3D50EE000BF064602E08068400736
:1011E000E6D501F0D3F9811B20680B29F6D381687D
:1011F0004907F3D5012510206FF01201A26A1140B2
:101200000843A062002084F82400284602B070BD84
:1012100010B581B00022009290F82420012A03D159
:101220000221084601B010BD4B680122062B80F850
:10123000242015D8026803EB8303A3F1050E1F23B6
:10124000D2F834C003FA0EF40B682CEA040C03FA4B
:101250000EF444EA0C045463092B17D937E000BF9D
:1012600002680C2B20D803EB8303A3F123041F2374
:10127000D2F830C003FA04FE0B682CEA0E0C03FA15
:1012800004F444EA0C041463092B20D8D2F810C0EB
:1012900003EB4303072489689C402CEA040499402B
:1012A00021431161002136E003EB8303A3F14104E4
:1012B0001F23D2F82CC003FA04FE0B682CEA0E0C94
:1012C00003FA04F444EA0C04D462092BDED903EBDC
:1012D0004304D2F80CC0A4F11E0E0724896804FA56
:1012E0000EF42CEA040401FA0EF1214323F0010468
:1012F000102CD1600ED142F20841C4F20101A1F1DB
:101300000804A2420ED0816A41F0200181620121CD
:1013100001E000BF0021002280F82420084601B02F
:1013200010BD00BF0A68120230D40A68102B42F4C4
:1013300000020A602CD140F20801C2F200010968E3
:101340004DF68362C4F21B32A1FB0212910C01EB39
:101350008101490000910099E1B1009901390091A2
:101360000099C9B10099013900910099B1B1009972
:1013700001390091009999B10099013900910099C2
:1013800000294FF00001E8D1C5E700BF0021C2E706
:101390000021C0E70021BEE70021BCE70021BAE739
:1013A0000021B8E710B540F27021C2F20001884276
:1013B00000D010BD40F27020C2F2000000F018F81A
:1013C000800558BF10BD40F2A814C2F20004206886
:1013D00000F09CF9A2690120002A2075E9D0211DA6
:1013E0000020BDE810401047704700007047000023
:1013F000806A7047B0B5002800F0A8800446806A73
:1014000020B121688868C0070BD114E00020E06299
:1014100084F82400204600F09BF821688868C00703
:1014200009D0886820F00100886001F0AFF82168D9
:101430008A68D20726D1A06AC0063AD4A06A41F2CF
:10144000021290430230A062E069D4E9013240EA1E
:10145000030C531EB3FA83F35D091346B2F5807F84
:1014600018BF2B02207D257B01284CEA450030D196
:1014700035B3A56A45F02005A562E56A45F001058A
:10148000E56226E0054602E08868C007D3D001F097
:101490007DF8401B21680328F6D38868C007F3D085
:1014A000A06A40F01000A062E06A40F00100E06233
:1014B000A06AA06A40F01000A0620120B0BD00BF89
:1014C000D4F818C04EF60005CFF6FF7505EB4C3585
:1014D0002B434D68B2F5807F25F4694543EA050347
:1014E0004B608B684FF2FD75CFF6E17503EA05039B
:1014F00043EA00038B6001D0012A07D1226900234F
:10150000CFF6F07303EB025201E000BF0022CB6A7A
:1015100023F470031A43CA62896840F6FE62CFF66C
:101520001F721140814207D10020E062A16A0122AE
:1015300062F30101A162B0BDA06A40F0100020F08A
:101540000200A062E06A40F00100E0620120B0BD4C
:1015500070B586B0044640F60000C4F20100216870
:1015600000F5E052002691420596049602D006B09E
:1015700070BD00BF41F21801C4F202010A6842F4D2
:1015800000720A600A6802F400720192019A0A6805
:1015900042F004020A60096801F004010191019916
:1015A000332102910321039102A900F0DFFE40F2F2
:1015B000C8250820C2F20005C4F202004FF4807270
:1015C000C5E9000605F1100080214FF480634FF05B
:1015D000200C80E80C102846C5E90261EE6100F09D
:1015E00033FE002818BFFFF737FD25626C6206B096
:1015F00070BD000070B515460446006842F6000252
:10160000C4F2010290420E4605D042F20041C4F2FB
:101610000101884209D142F20440C4F2010000688D
:1016200010F4702F1CBF012070BD94F82400012815
:1016300004BF022070BD012084F824002046FFF77B
:101640007FF818B1002184F8241070BD42F20440E4
:101650002168A26AC4F2010040F601739A4300F5C2
:101660007F7302F580729942A26243D0A06A20F48F
:101670008010A0624868400504D5A06A012262F388
:101680000D30A062A26A0020D2044FF0000244BFD5
:10169000E26A22F00602E26284F82400206A40F244
:1016A000CD62C0F6000240F2397340F2217C00F1B5
:1016B000280EC0F60003C0F6000C8EE80C106FF088
:1016C00002020A608A682B4642F480728A604C31BA
:1016D000324600F0FDFD2068816801F460228168D7
:1016E000B2F5602F0CBF41F4A00141F4801181607C
:1016F000002070BD026812F4702FB7D0A26A42F4C5
:101700008012A26200684005BCD5B6E7B0B50446B9
:1017100090F82400012804BF0220B0BD01202168F8
:1017200084F824008868C00709D0886820F0010088
:10173000886000F02BFF21688A68D2071AD1886878
:1017400020F480708860206A90F8211002290BD163
:1017500000F086FCA16A48B341F04001A16200217B
:1017600084F82410B0BD00BF0020002184F82410AC
:10177000B0BD00BF054602E08868C007DFD000F0BA
:1017800005FF401B21680328F6D38868C007F3D003
:10179000A06A40F01000A062E06A40F00100E06240
:1017A0000120002184F82410B0BD00BF41F20110D7
:1017B00021EA00000130A0620020002184F82410FA
:1017C000B0BD000090F82020013A012A1CD8CA07B9
:1017D00004D00268936843F0800393608A0704D5BD
:1017E0000268936843F40043936049075CBF00209C
:1017F000704700684FF4000200F1080100200B68F8
:101800001A430A60704700BF00F1240101204FF421
:1018100080220B681A430A607047000090F820206D
:10182000013A012A08D8006800F114020020136868
:1018300019431160704700BF00F1240201204FF4EA
:1018400080211368194311607047000010B590F8AB
:1018500020E0D0F800C0AEF1010EBEF1010FDCF8BF
:1018600008E00FD81EF0E05F16D0CEF3016E012025
:1018700000FA0EF018608B68C3B1486843EAC003F1
:1018800016E000BF00F1240101204FF480220B6814
:101890001A430A6010BD00BF00F1240101204FF47B
:1018A00000120B681A430A6010BD00BF08684305A8
:1018B000D1E9030403430CEB0E10C0F88031C0F8EB
:1018C0008441097D012905D100F5C2710B6843F4FB
:1018D00080730B605168C0F88C11126800F5C071FC
:1018E000C0F88821002001220B681A430A6010BD4D
:1018F000B0B5026890F82030013B012B28D8D2F80F
:101900000002012340F00100C2F80002D1F814E007
:10191000CC690EF01F0003FA00F0D2F81C326FEA17
:10192000000C8343012CC2F81C3217D06CBBD2F8D8
:101930000C3203EA0C03C2F80C32CB688C8844EA00
:10194000034302EBCE04C4F840320B4615E000BF5F
:10195000416A41F4802141620120B0BDD2F80C32CD
:101960000343C2F80C320B688C8844EA034302EB51
:10197000CE04C4F8403201F10C038C681B8843EAA2
:10198000044302EBCE04C4F84432D2F804328D6929
:1019900043EA0004D1F810E0096A002D08BF03EA09
:1019A0000C04C2F80442D2F81432BEF1000F43EA2C
:1019B000000408BF03EA0C040129C2F8144204D150
:1019C000D2F81C120843C2F81C02D2F8000220F020
:1019D0000100C2F800020020B0BD00007047000006
:1019E00010B590F82040013C012C7BD8D0F800C005
:1019F000002900F08180DCF81040A40700F081800D
:101A00000CEB011CDCF8B0410CF5D87E14F004049A
:101A10009460DCF8B04119BFE4085460640D1460B0
:101A2000DEF800400CF5DA7E04F00204D460DCF845
:101A3000B44124075ABFDEF8004004F00F04082424
:101A40001461DEF800400029C4F307249461DEF835
:101A500000404FEA14445461DCF8B8211A7002685F
:101A600002EB0112D2F8B8214FEA12225A70026832
:101A700002EB0112D2F8B8214FEA12429A700268C2
:101A800002EB0112D2F8B8214FEA1262DA70026852
:101A900002EB0112D2F8BC211A71026802EB0112AA
:101AA000D2F8BC214FEA12225A71026802EB0112ED
:101AB000D2F8BC214FEA12429A71026802EB01127D
:101AC000D2F8BC214FEA1262DA71006814BF00F14B
:101AD000100100F10C01002020220B681A430A605B
:101AE00010BD00BF00F1240101204FF480220B68DB
:101AF0001A430A6010BD00BFDCF80C40A4077FF455
:101B00007FAF00F1240101204FF400120B681A434B
:101B10000A6010BD90F820100139012984BF00200F
:101B200070470068816882688068C1F38061C2F391
:101B3000C0621144C0F30070084470472DE9F04FB3
:101B400081B0044600684669D0F804908768D0F8F0
:101B50000CB0D0F810A0D0F81880F10704D10025FF
:101B600030071DD424E000BFF90710D00121BA07C7
:101B7000816009D4780700F1AF80380700F1B680A2
:101B8000204600F05FFA02E0204600F05DFA0025F2
:101B9000F80500F18780F80300F1B180300707D520
:101BA0001BF0100004D0206845F400751021C160BE
:101BB000700708D51BF0080005D020680821C16017
:101BC000204600F0B3F9B00706D52068C06880074A
:101BD00002D0204600F0ACF9700607D51AF01000CC
:101BE00004D0206845F4806510210161B00608D555
:101BF0001AF0080005D0206808210161204600F095
:101C0000C3F9F00606D520680069800702D0204697
:101C100000F0BCF9B00308D519F0100005D0206819
:101C200010214160204600F0DDF9F00308D519F0DD
:101C3000080005D0206808214160204600F00EFA17
:101C4000300440F19B805FEA497040F1948006F4D3
:101C5000807008EA102028435FEA8871014648BF77
:101C600041F00201B20558BF01465FEA48700D46D7
:101C700048BF45F00405700558BF0D46300540F1DA
:101C80007A8018F0700000F076801038000905287E
:101C90006CD8DFE800F003595D61656945F008051F
:101CA00064E000BF20684FF48071BA0581600BD4F6
:101CB000780515D438051DD4204600F0C7F9F8037F
:101CC0007FF56CAF1BE000BF204600F0C1F9F803C0
:101CD0007FF564AF13E000BF4FF4006558E700BF25
:101CE00005F50055F8037FF559AF08E04FF480552E
:101CF0004EE700BF05F58045F8037FF54FAF20683C
:101D00004FF48031BA0381600AD4780310D43803C9
:101D100014D4204600F09EF930073FF541AF47E765
:101D2000204600F099F930073FF53AAF40E700BF91
:101D300005F5004530073FF533AF39E705F5803548
:101D400030073FF52DAF33E745F010050EE000BF3B
:101D500045F020050AE000BF45F0400506E000BF61
:101D600045F0800502E000BF45F480752068816978
:101D700021F07001816120680421416055B1606AE1
:101D800040EA05012046616201B0BDE8F04FFFF76F
:101D900025BE00BF01B0BDE8F08F0000B0B5C8B1EE
:101DA000044690F8200010B9204600F071F8206831
:101DB000016841F00101016000F0E8FB054600BF49
:101DC00020684168C90707D100F0E0FB401B0B28E1
:101DD000F6D312E00120B0BD016821F002010160DC
:101DE00000F0D4FB054600BF2068416889070DD587
:101DF00000F0CCFB401B0B28F6D3606A052140F4B1
:101E000000306062012084F82010B0BD217E02689D
:101E1000012922F0800208BF80320260617E0268E0
:101E2000012922F0400208BF40320260A17E026810
:101E3000012922F0200208BF20320260E17E026800
:101E4000012922F0100218BF10320260217F0268BF
:101E5000012922F0080208BF08320260617F02688F
:101E6000012922F0040208BF04320260D4E901C251
:101E7000D4E9033561691A432A431143ACF10102E5
:101E80001143C16100200121606284F82010B0BDBF
:101E9000B0B586B040F60004C4F201040068A4F5B1
:101EA000244200219042059102D006B0B0BD00BF8F
:101EB00041F21800C4F20200426802AD42F0007222
:101EC0004260426802F000720192019A026842F098
:101ED00004020260006800F00400019001984FF4D1
:101EE0000060CDE9020104912046294600F03EFA47
:101EF0004FF480500290022003900320059020466A
:101F0000294600F033FA14200521002200F096FF44
:101F1000142000F083FF15200521002200F08EFF21
:101F2000152000F07BFF06B0B0BD00007047000038
:101F3000F0B589B040F2C415C2F2000529688142AB
:101F400002D009B0F0BD00BF6A4607AB0021FFF721
:101F500047FDA86841680029F3D0002107AF00269B
:101F600006E000BFA86801364268F1B28A42E8D9AB
:101F700003F0DCF80468002CF4D00099049B0020E6
:101F80003A46A047EEE7000070470000F0B589B080
:101F900040F2C415C2F200052968814202D009B09E
:101FA000F0BD00BF6A4607AB0121FFF719FDA86825
:101FB00041680029F3D0002107AF002606E000BFEA
:101FC000A86801364268F1B28A42E8D903F0AEF857
:101FD0000468002CF4D00099049B00203A46A047E6
:101FE000EEE7000070470000B0B5044690F820000E
:101FF00001281DD1022084F820002068016821F00A
:102000000101016000F0C2FA054600BF2068406887
:10201000C00713D000F0BAFA401B0B28F6D3606A51
:1020200040F400306062052084F820000120B0BD3B
:10203000606A40F4002060620120B0BD0020606250
:10204000B0BD0000704700007047000070470000FE
:1020500070470000704700007047000070470000A4
:10206000014690F82100022816D10868D1E90FC373
:10207000026822F00E020260026822F00102026091
:10208000012000FA03F2CCF8042081F8210000209E
:10209000002281F82020704704208863012000225C
:1020A00081F820207047000010B5D0E90FCE0168FC
:1020B000DCF800300A6823FA0EF35C072AD512F028
:1020C000040427D00A68920603D40A6822F00402A6
:1020D0000A602F22C4F20202914240F20402C4F2CA
:1020E00002025BDD3023C4F20203994272D0442322
:1020F000C4F20203994273D05823C4F202039942F6
:1021000040F07A804FF480231360C16A002940F0C8
:1021100098806FE09C0727D512F0020424D00A684B
:10212000920606D40A6822F00A020A60012280F8A8
:1021300021202F22C4F20202914240F20402C4F292
:1021400002023BDD3023C4F20203994260D04423F3
:10215000C4F2020399425FD05823C4F202039942A9
:1021600060D14FF4003365E01B0743D512F008023D
:1021700008BF10BD0A6822F00E020A60012101FAB0
:102180000EF2CCF80420816380F82110016B00224C
:10219000002980F8202054D12CE000BF0823C4F28D
:1021A0000203994222D01C23C4F20203994223D194
:1021B00040231360C16A002943D11BE00823C4F205
:1021C000020399422CD01C23C4F20203994229D164
:1021D00020232FE04FF480631360C16A89BB09E0BC
:1021E0004FF480431360C16A59BB03E004231360BA
:1021F000C16A31BB10BD00BF02F168044FF08063BB
:10220000A14208BF4FF480031360C16AC9B9F1E766
:102210004FF400730EE000BF4FF400530AE000BF1C
:10222000022307E002F168044FF00073A14208BFE7
:102230004FF400131360816A0022002980F82020E7
:10224000D8D0BDE810400847014600284FF00100F3
:1022500008BF70472DE9F043D1F800C04FF6F8737E
:10226000CBF6FD734CF6CD426344CCF6CC42A3FBD7
:1022700002236FF0030707EA93030027C4F2020763
:1022800001F10C09C1E90F730223D1E9012E99E88C
:102290007002D1F81C8081F82130DCF8003043F660
:1022A000F077BB431A4342EA0E0222432A433243E9
:1022B00042EA090242EA0802CCF8002000228A63BE
:1022C00081F8210081F820200020BDE8F04370470C
:1022D000F0B590F820C0BCF1010F32D04FF0010EE4
:1022E00080F820E090F821C0BCF1010F26D14FF01A
:1022F000020C80F821C04FF0000CC0F838C0D0E9C3
:1023000000C4C56AC66BDCF80070102C27F001070A
:10231000CCF80070006C0EFA00F070600846CCF843
:10232000043004BF10460A46CCF80800CCF80C2054
:10233000DCF8000045B140F00E000DE0002180F80F
:1023400020100220F0BD00BF20F00400CCF80000F7
:10235000DCF8000040F00A00CCF80000DCF80000D7
:1023600040F00100CCF800000020F0BD2DE9F04F56
:1023700082B041F20042C4F201020E68042390428E
:1023800008BF0323002E009300F0F68040F2004CBB
:102390004FF6FF7E0022C4F2010C0124C1F2100EA0
:1023A0004FF0000A4FF0000947E000BF012502F09E
:1023B0000C040F27A7402BEA070705FA04F43C4357
:1023C00043F82640D1F804B040F20C455FEACB2335
:1023D000DCF8083054BF23EA080343EA0803C4F2D8
:1023E0000105CCF808302B685FEA8B2454BF23EA40
:1023F000080343EA08032B605FEA8B34DCF80430FF
:1024000054BF23EA080343EA08035FEACB34CCF85D
:102410000430DCF800304FF0010454BF23EA080315
:1024200043EA0803CCF800300E680AF1010A36FAD4
:102430000AF302F1040200F09F8004FA0AF816EA97
:10244000080FF1D04B68734512DC122B56D8DFE829
:1024500003F0350B45495555555555555555555569
:102460005555554D510000BFD1F80C9046E000BFC6
:102470004FF6FF75C1F22105AB420FDC0025C1F21A
:102480001105AB421AD00025C1F21205AB4215D09E
:102490000025C1F22105AB4210D02FE00025C1F28A
:1024A0002205AB420AD00025C1F23105AB4205D06E
:1024B0000025C1F23205AB4220D100BF8B684BB181
:1024C000012B14BFC0F81480C0F810804FF0080929
:1024D00014E000BF4FF0040910E000BFCB6803F127
:1024E00008090BE04FF0000908E000BFCB6803F1DA
:1024F000040903E0CB6803F10C0900BF134605464D
:10250000BAF1080F24BF203B04352E680F279F40E7
:10251000BE4309FA03F333432B60CB79DB067FF527
:1025200083AF41F21804C4F2020423684FEA9A060A
:1025300043F001032360236840F6000403F0010325
:102540000193019BACF57E7353F826B0C4F20104ED
:10255000A0420FD040F60044C4F20104A0423FF470
:1025600025AF41F20004C4F20104009DA04208BF5F
:1025700002251CE700251AE702B0BDE8F08F000035
:10258000002A08BF090401617047000041F20830C9
:10259000C2F200000068704770B5B8B3044690F806
:1025A0003D0028B9002084F83C00204600F05EFB86
:1025B000242084F83D002068016821F001010160B9
:1025C000016841F400410160016821F400410160AB
:1025D00000F04EFE48F28041C0F21E0140F60013AA
:1025E000D4F804E088424FF00001C0F23D0348F205
:1025F000A16C4FF0000238BF01219842C0F2010CDB
:1026000038BF0122E64538BF0A460AB1012070BD35
:102610004DF68361C4F21B31A0FB01122168950CB9
:102620004B684FF4967623F03F0343EA9243754399
:1026300044F6D3564B60C1F262060B6AA5FB065600
:10264000B50923F03F03E64538BF950C6A1C1A43D1
:102650000A62CA6948F2A0664CF6FF73C0F201062E
:10266000B64522EA03020BD801384FEA4E03B0FB0D
:10267000F3F001306FF31F30042898BF04201EE0F0
:10268000A368013863B119230EFB03F3B0FBF3F029
:1026900001306FF31F3078B100F5804008E000BFD3
:1026A0000EEB4E03B0FBF3F001306FF31F3028B197
:1026B00000F5004003E000BF012000E001201043CE
:1026C000C8610868D4E9072320F0C000104318430C
:1026D0000860886848F2FF3204F10C0690434CCE43
:1026E00018431043A5698860C86820F0FF00304394
:1026F0002843C860086840F00100086000202021DD
:10270000206484F83D10206384F83E0070BD000012
:102710002DE9F04F83B01E46924688460446FFF7E7
:1027200035FF94F83D1020291CD12168054600BFD3
:102730008869800712D5FFF729FF401B21681A28F6
:10274000F6D388698007F3D500202021206384F820
:102750003D1084F83E00216C0226C2E094F83C0053
:10276000012805D10226304603B0BDE8F08F00BF36
:102770004FF0010984F83C900868C00703D108684D
:1027800040F0010008600868002720F4006008603D
:10279000242084F83D000020CFF6FF702764E0621B
:1027A00008F0FE08BAF1010F88BFD1464FF0A00A29
:1027B0004FF0200B04E000BF01374F4500F0A4802C
:1027C0000868002240F48070086020464FF0011134
:1027D0003346009501F03AFE2168002856D1C1F831
:1027E0001080FFF7D3FE21684B694A6994F83D5089
:1027F000A02D054605D013F0020008BF12F480603A
:102800001AD084F83DB048690A68800742F4007223
:102810000A6047D46FF48060486100BF8869800710
:10282000CAD5FFF7B3FE401B21681A28F6D3886982
:102830008007F3D54CE000BFB6B100BFFFF7A6FE9E
:10284000401BB04288BF84F83DA021684A694869AE
:1028500094F83D30A02BD4D012F0020208BF10F43F
:102860008060EBD0CDE700BFFFF790FE84F83DA07D
:1028700021684A69486994F83D30A02BC1D012F014
:102880000202BED110F48060EED0BAE708680326D9
:10289000C00544BF4FF400702064304603B0BDE86B
:1028A000F08F00BF00260296486902908869029066
:1028B0000298886901E000BF806980071AD5FFF798
:1028C00065FE411B20681A29F6D381698907F3D573
:1028D00000202021206384F83D1084F83E00216C04
:1028E000012641F02001216484F83C00304603B009
:1028F000BDE8F08F202084F83D0084F83C6030462D
:1029000003B0BDE8F08F00BF202084F83D00002018
:10291000012684F83C00304603B0BDE8F08F00008B
:102920002DE9F04F85B004460020994616460F4623
:102930000490FFF72BFE94F83D10202927D105467F
:10294000206800BF816989071CD5FFF71FFE411B66
:1029500020681A29F6D381698907F3D50020202140
:10296000206384F83D1084F83E00206C04F13C0A9A
:1029700040F020002064022000218AF8001005B0F9
:10298000BDE8F08FA2461AF83C1F012904D10220AD
:1029900005B0BDE8F08F00BF01228AF8002003686F
:1029A000DDE90F180E9ADB0703D1036843F001033A
:1029B0000360036823F400630360222084F83D0071
:1029C000402084F83E000020206462626185608DB2
:1029D000394620850020CFF6FF70E062204632465F
:1029E0004B46CDF80080019501F0A4FC20B10120F8
:1029F00005B0BDE8F08F00BF208D022810D001285F
:102A000024D0002838D10020039020684169039128
:102A1000816903910399016841F40071016037E015
:102A20002068016841F400610160EFF3108072B624
:102A30000020039020684169039181690391039903
:102A4000016821F48061016062B621E020680168BC
:102A500021F480610160EFF3108072B600200390D2
:102A6000206841690391816903910399016841F4E8
:102A70000071016062B60BE02068016841F480617A
:102A800001600021039141690391806903900398DB
:102A9000208D002800F0CA80042740F208094BF27C
:102AA000895BC0F20107C2F20009C1F2F84B23268C
:102AB00017E000BF204641462A4601F021FE0028CB
:102AC00095D12068616A00690870606A218D0130C3
:102AD0006062481E2085618D01396185010400F026
:102AE000A58080B2032865D8022800F07F800128E5
:102AF000E0D02046394600224346009501F0A6FC6E
:102B000000287FF474AF2068016821F480610160BF
:102B1000EFF3108072B62068616A00690870606A1D
:102B2000218D0130013960622185618D0139618516
:102B3000D9F80010C908A1FB0B12110A71430491C6
:102B40000499013904910499002900F07B802168DF
:102B50004A6952071DD40499013904910499002946
:102B600070D021684A69520713D40499013904913D
:102B70000499002966D021684A69520709D404994A
:102B800001390491049900295CD021684A695207EF
:102B9000D6D50A6842F400720A6009690170606A59
:102BA000218D01306062481E2085608D013860856E
:102BB00062B686E7204641462A4601F0A1FD00287C
:102BC0007FF415AF2068616A00690870606A226846
:102BD000411C208D616201382085638D013B638536
:102BE00053695B077FF57AAF10696DE72046394678
:102BF00000224346009501F029FC00287FF4F7AE3F
:102C0000EFF3108072B62068616A026842F40072C5
:102C1000026000690870606A218D01306062481EA0
:102C20002085608D0138608562B64AE7202084F8EF
:102C30003D00002084F83E0000218AF8001005B015
:102C4000BDE8F08F00202021206384F83D1084F837
:102C50003E00206C40F02000206462B6012000217C
:102C60008AF8001005B0BDE8F08F000010B586B0FE
:102C7000006845F60001C4F2000188424FF00001EF
:102C8000CDE90411CDE9021134D045F20041C4F27E
:102C90000001884252D141F21804C4F202042068B3
:102CA00002A940F008002060206800F008000190B0
:102CB00001984FF440700290122003900320059079
:102CC00040F60040C4F20100FFF750FB0420C4F2BC
:102CD0000100016841F0E06141F0020101606068BB
:102CE00040F400106060606800F4001001900198EA
:102CF00006B010BD41F21804C4F20204206802A913
:102D000040F008002060206800F008000190019861
:102D10004FF440600290122003900320059040F68B
:102D20000040C4F20100FFF721FB606840F480001E
:102D30006060606800F480000190019806B010BDEA
:102D400040F2000041F20831C2F20000C2F200017C
:102D500000780A68104408607047000080B542F2AD
:102D60000000C4F20200016841F01001016003207C
:102D700000F090F80F2000F005F800F027F8002090
:102D800080BD000070B540F20006C2F2000640F2BD
:102D900008013278C2F200014FF47A730968B3FB7C
:102DA000F2F20446B1FBF2F1084600F063FC0F2C8E
:102DB0004FF0010508D838B94FF0FF302146002206
:102DC000002500F03BF87460284670BD80B582B0E5
:102DD00041F21800C4F202000168002241F0010132
:102DE0000160016801F0010101910199416841F020
:102DF0008051416040680F2100F0805000900098A1
:102E00006FF0010000F01AF80420C4F2010001681C
:102E1000022262F31A61016002B080BD002848BF3F
:102E2000704700F01F01012202FA01F14EF2001278
:102E30004009CEF2000242F82010704710B54EF65D
:102E40000C5CCEF2000CDCF80030C3F3022E8EF0E6
:102E50000704042C28BF0424BEF103034FF0FF3EF7
:102E60000EFA04F438BF0023A14399400EFA03F38D
:102E70009A43114300F00F02043A624409010C32F4
:102E800000F16043B0F1FF3FC8BF03F56442117029
:102E900010BD00004EF60C51CEF200010A684FF64C
:102EA000FF031A4060F30A2242F0806040F0FD7098
:102EB0000860704780B5012818D0022836D0102845
:102EC00032D141F20401C4F202010A6851F8040C43
:102ED000C00129D5C2F383402DA3185CD2033DD491
:102EE00040F60012C0F23D02504343E041F20400BC
:102EF000C4F20200C16940F202320A40B2F5817F99
:102F000004BF4FF4004080BD01F44071B1F5407F33
:102F10001CD0B1F5007F07D1006A49F64041800717
:102F200001EAE07080BD00BF002080BD00F0B4F970
:102F300041F20401C4F2020109680222C1F38131A5
:102F400002EB4101B0FBF1F080BD00BF50F8040C72
:102F50004FF22441800301EAE07080BD0A6810A3AB
:102F6000C2F340429A5C41F20023C0F27A03B3FB01
:102F7000F2F250430968490248BF80BD4AF6AB21CE
:102F80004000CAF6AA21A0FB0101480880BD00BF8D
:102F900002030405060708090A0B0C0D0E0F10109A
:102FA000010200002DE9F04182B00446007841F2B0
:102FB0001C06C007C4F202064AD0306810F08058E0
:102FC00008D1306840F080503060306800F08050A8
:102FD0000190019847F20007C4F200073868C00565
:102FE00012D4386840F480703860FFF7CFFA054695
:102FF0003868C00508D4FFF7C9FA401B6428F7D920
:10300000032002B0BDE8F081706810F4407012D067
:10301000616801F4407188420DD0706840F240420E
:10302000C4F24222012320F4407113600023C00740
:10303000136071602AD17068616820F440700843A1
:10304000B8F1000F706003D1306820F0805030601C
:103050002068810707D556F8181CA26821F4404162
:10306000114346F8181CC00604D4002002B0BDE885
:10307000F08100BF56F8180CE16820F48000084386
:1030800046F8180C002002B0BDE8F081FFF77EFA88
:10309000054641F2883700BF70688007CBD4FFF740
:1030A00075FA401BB8424FF00300F5D9EBE700007A
:1030B0002DE9F04381B0002800F0858042F200083D
:1030C000C4F202080446D8F800000D4600F00700DC
:1030D00088420CD2D8F8000020F007002843C8F836
:1030E0000000D8F8000000F00700A8426BD120686B
:1030F00041F204098107C4F2020917D5410705D539
:10310000D9F8001041F4E061C9F80010010705D5B5
:10311000D9F8001041F46051C9F80010D9F8001036
:10312000A26821F0F0011143C9F80010C00741D195
:10313000D8F8000000F00700A8420CD9D8F8000029
:1031400020F007002843C8F80000D8F8000000F07D
:103150000700A84237D12068410707D5D9F80010E9
:10316000E26821F4E0611143C9F80010000708D5B6
:10317000D9F80000216920F4605040EAC100C9F884
:103180000000D9F8002002F00C00082841F20020CD
:10319000C0F27A0050D146F2E233C2F38341C0F666
:1031A0000003595CD2033BD440F60010C0F23D004E
:1031B000484341E0606802280AD001282AD159F822
:1031C000041C890308D4012001B0BDE8F08300BFCE
:1031D00059F8041C8901F6D5D9F8001021F0030133
:1031E0000843C9F80000FFF7D1F9064641F28837D5
:1031F000D9F80000616800F00C00B0EB810F97D0A7
:10320000FFF7C4F9801BB842F2D9032001B0BDE832
:10321000F08300BF59F8041C8907D4D5DCE700BF50
:10322000D9F8002046F2E033C2F34042C0F6000372
:103230009A5C4843B0FBF2F0D9F8001046F2C8326D
:10324000C1F30311C0F60002515C40F2080220FAFB
:1032500001F140F20400C2F200000068C2F2000274
:103260001160FFF78FFD002001B0BDE8F083000082
:1032700040F2080041F20401C2F20000C4F202016F
:103280000068096846F2D832C1F30221C0F6000294
:10329000515CC8407047000040F2080041F2040150
:1032A000C2F20000C4F202010068096846F2D83296
:1032B000C1F3C221C0F60002515CC8407047000053
:1032C0002DE9F04182B0002868D00446007841F230
:1032D0000006C007C4F2020625D0706800F00C009A
:1032E00004281BD0706800F00C00082802D1706818
:1032F000C00313D46068002800F06881B0F5A02FE7
:1033000000F07C81B0F5803F00F07C81306820F4D3
:1033100080303060306820F4802076E130688003AF
:1033200001D56068D0B32078800718D5706810F098
:103330000C0F07D0706800F00C0008286ED1706880
:10334000C0036BD43068800702D52069012825D1DD
:103350003068616920F0F80040EAC10030602078F0
:1033600000071FD42078400732D4E56995B1706812
:1033700000F00C00082840F08F80012D0ED07068FE
:10338000216A00F480328A4208D1616A00F4701028
:10339000884203D1002002B0BDE8F081012002B0D4
:1033A000BDE8F081A069002862D00020C4F242206C
:1033B0000121C0F88014FFF7E9F80546706A80071C
:1033C00000F18C80FFF7E2F8401B0228F6D92AE1D1
:1033D000F06910F0805808D1F06940F08050F06139
:1033E000F06900F080500090009847F20007C4F2A6
:1033F00000073868C00529D4386840F48070386008
:10340000FFF7C4F8054600BF3868C0051ED4FFF7B3
:10341000BDF8401B6428F7D905E100BF20690028EA
:1034200040F20000C4F2422000F0828001210160DD
:10343000FFF7ACF8054600BF306880073FF588AF5E
:10344000FFF7A4F8401B0228F6D9ECE0E06800285A
:1034500000F08080052800F09780012800F0988017
:10346000306A20F001003062306A20F0040092E0FF
:103470000020C4F242200021C0F88014FFF786F833
:10348000054600BF706A80077FF56CAFFFF77EF8D6
:10349000401B0228F6D9C6E00027C4F242270020CC
:1034A0003866FFF773F8022D05460BD130688001AE
:1034B00040F1BE80FFF76AF8401B02284FF003007E
:1034C000F4D968E7306880017FF564AFFFF75EF8F4
:1034D000401B02284FF00300F4D95CE740F20800DB
:1034E000C2F20000006844F6D351C1F26201A0FBB1
:1034F0000101480A019000BF00BF0198411E002849
:1035000001913FF42FAF00BF0198411E00280191A7
:103510003FF428AF00BF0198411E002801913FF4FD
:1035200021AF00BF0198411E00280191E4D119E7A5
:1035300000210160FFF72AF8054600BF30688007C8
:103540007FF50DAFFFF722F8401B02284FF0030074
:10355000F4D920E7306A20F001003062306A20F0B0
:1035600004003062FFF712F8054641F2883700BFC9
:10357000306A800720D5FFF709F8401BB8424FF0AA
:103580000300F5D907E700BF306A40F0040030625D
:10359000306A40F001003062FEF7F8FF054641F264
:1035A000883700BF306A800706D4FEF7EFFF401B64
:1035B000B842F7D937E000BFB8F1000F7FF4D5AEBD
:1035C000F06920F08050F061CFE600BF306820F451
:1035D00080303060306820F480203060FEF7D6FF05
:1035E000054600BF306880037FF59DAEFEF7CEFF35
:1035F000401B64284FF00300F4D9CCE6306840F457
:1036000080203060306840F480303060FEF7BEFFCC
:10361000054600BF306880033FF585AEFEF7B6FF74
:10362000401B6428F6D9032002B0BDE8F08100BF3A
:10363000206AB0F5803F05D17168A26821F400319D
:10364000114371607168626A21F474111043084378
:10365000706001203866FEF799FF044630688001EB
:103660003FF598AEFEF792FF001B02284FF00300D3
:10367000F4D990E6411E0020B0EB116F1CBF012071
:1036800070474EF21002CEF2000251604EF6235106
:10369000CEF20001F0230B7007219060116070479B
:1036A0007047000070470000B0B590F83C20012A38
:1036B00004BF0220B0BD01F108053CCDD1E900CE28
:1036C00023F47C5322F470521A432EF4F0431A432D
:1036D0002CF4E0431A4324F4C0431A432A43C96933
:1036E00022F48042036811435964002180F83C10A1
:1036F0000846B0BD10B590F83C20012A4FF00202F8
:1037000033D080F83D200268D2F804E0D2F808C037
:103710000C682EF07003234340F2FF74C4F20004DF
:10372000A24253600ADCB2F1804F13D040F2004352
:10373000C4F200039A420DD011E000BF42F60043EC
:10374000C4F201039A4205D040F60003C4F200031C
:103750009A4204D149682CF08003194391600121F9
:10376000002280F83D1080F83C20104610BD00007B
:10377000002804BF0120704710B5044690F83D00B2
:1037800028B9002084F83C00204600F067F80220A9
:1037900084F83D00206840F2FF730268C4F2000321
:1037A00042F6004C9842C4F2010C15DCB0F1804F97
:1037B0001AD040F20041C4F20001884214D098426D
:1037C00018DCB0F1804F1DD040F20041C4F200017E
:1037D000884217D01AE000BF604505D040F60001CE
:1037E000C4F200018842EAD1A16822F070020A43C3
:1037F0009842E6DD604505D040F60001C4F20001C4
:10380000884203D1216922F440720A43A36922F05D
:103810008001D4F804E0E268194360450160C262A7
:10382000C0F828E002D16169CCF830100121416173
:10383000002084F8461084F83E1084F83F1084F885
:10384000401084F8411084F8421084F8431084F842
:10385000441084F8451084F83D1010BD80B584B044
:10386000006840F20041C4F2000188421ED040F6D8
:103870000001C4F20001884228D042F60041C4F29F
:10388000010188421FD141F21C00C4F2020050F82D
:10389000041C41F4006140F8041C50F8040C00F4CE
:1038A00000600390039804B080BD00BF41F21C008B
:1038B000C4F20200016841F002010160006800F0FA
:1038C00002000290029804B080BD00BF41F21C00CB
:1038D000C4F202000168002241F0040101600068A6
:1038E000052100F00400019001981E20FFF7A6FAC0
:1038F0001E2004B0BDE88040FFF790BA90F83D105C
:1039000001291CBF01207047022180F83D1000688A
:1039100040F2FF71C4F20001884209DCB0F1804F2F
:1039200012D040F20041C4F2000188420CD012E0F3
:1039300042F60041C4F20101884205D040F6000180
:10394000C4F20001884206D1816801F0070106290E
:1039500004BF00207047016841F0010101600020B0
:103960007047000080B590F83C20012A4FF0020219
:1039700000F0C28080F83D20D0F800C04FF677728A
:10398000DCF8083023EA0202CCF808200B684F2B41
:1039900028DC1F2B44DD202B45D0302B43D0402B7F
:1039A00040F0AC80D1F804E0C968DCF82030DCF8E5
:1039B000202022F00102CCF82020DCF8182022F090
:1039C000F00242EA011123F00A0242EA0E02CCF8A8
:1039D0001810CCF82020DCF8081041F0470121F045
:1039E000300180E06F2B27DDB3F5005F48D0B3F5E1
:1039F000805F7AD0702B40F08180D1E901E3C96803
:103A0000DCF8082043EA0E0322F47F4243EA012156
:103A10001143CCF80810DCF8081041F0770162E09F
:103A20000BB1102B6AD1DCF8081021F0700119439A
:103A300041F0070157E000BF502B35D0602B5DD11E
:103A4000D1F804E0C968DCF82030DCF8202022F04E
:103A50001002CCF82020DCF8182022F4704242EA50
:103A6000013123F0A00242EA0E12CCF81810CCF873
:103A70002020DCF8081041F0670121F0100132E04D
:103A8000D1E901E3C968DCF8082043EA0E0322F417
:103A90007F4243EA01211143CCF80810DCF80810FA
:103AA00041F480411FE000BFD1F804E0C968DCF8B0
:103AB0002030DCF8202022F00102CCF82020DCF8B5
:103AC000182022F0F00242EA011123F00A0242EA31
:103AD0000E02CCF81810CCF82020DCF8081041F0C9
:103AE000570121F02001CCF808100022012180F8B4
:103AF0003D10002180F83C10104680BD0122F5E702
:103B00007047000010B5016804460869800744BF8B
:103B1000C8685FEA807039D40869400744BFC86844
:103B20005FEA40703ED40869000744BFC8685FEA96
:103B3000007045D40869C00644BFC8685FEAC06029
:103B40004AD40869C0071CBFC8685FEAC07051D179
:103B50000869000644BFC8685FEA006052D408697B
:103B6000400644BFC8685FEA406053D408698006D5
:103B700046BFC8685FEA806010BD6FF02002204633
:103B80000A61BDE81040FFF78DBD00BF6FF0020075
:103B90000861012020778869800743D02046FFF71D
:103BA000AFFF45E06FF004000861022020778869CC
:103BB00010F4407F40D02046FFF7A2FF42E000BF54
:103BC0006FF00800086104202077C86980073DD0A5
:103BD0002046FFF795FF3FE06FF0100008610820D6
:103BE0002077C86910F4407F3AD02046FFF788FF5D
:103BF0003CE000BF6FF001000861204600F0E0FAF1
:103C00002168A5E76FF0800008612046FFF748FDB6
:103C10002168A4E76FF040000861204600F0D2FA66
:103C20002168A3E7204600F0C7F8204600F056FAC6
:103C30002168002020776FE7204600F0BDF820467D
:103C400000F04CFA2168002020776CE7204600F055
:103C5000B3F8204600F042FA21680020207769E797
:103C6000204600F0A9F8204600F038FA216800202C
:103C7000207766E770B586B000680021B0F1804F0C
:103C8000CDE904110391029128D040F20041C4F221
:103C90000001884260D042F60041C4F2010188422E
:103CA00040F0878041F21800C4F20200016841F040
:103CB00004010160006802A900F00400019001986D
:103CC0004FF4E060029002200390059040F600005F
:103CD000C4F20100FEF74AFB06B070BD41F21800C5
:103CE000C4F20200016840F6000441F004010160E2
:103CF0000168C4F2010401F0040101910199016815
:103D000002AD41F0080101600068022600F00800E1
:103D1000019001984FF400400290204629460396F6
:103D20000596FEF723FB0820CDE9020604F5806026
:103D300029460596FEF71AFB0420C4F2010001682B
:103D40004FF6FF42CFF6FF02114041F0E06141F42F
:103D50008071016006B070BD41F21800C4F202002B
:103D6000016840F6000441F0040101600168C4F2FA
:103D7000010401F0040101910199016802AD41F0D3
:103D8000080101600068022600F008000190019817
:103D9000C02002902046294603960596FEF7E6FAD3
:103DA0000120CDE9020604F5806029460596FEF75C
:103DB000DDFA06B070BD0000704700002DE9F04349
:103DC00090F83C30012B04BF0220BDE8F0834FEA9D
:103DD000B202032A3CD8DFE802F003437FB900BFF8
:103DE000036842F600461D6A1A6AC4F2010622F010
:103DF00001021A621A465C6852F818CFB3428E6804
:103E0000D1F800E025F0020545EA06050CD1CE68A0
:103E1000D1E9057824F4407425F00C0526F0040659
:103E20003C43354344EA08042CF0730747EA0E0785
:103E30005C609F614F6809695F631D629F6947F01D
:103E400008079F619F6927F004079F61AEE000BFEC
:103E50000121002280F83C200846BDE8F08300BF25
:103E6000036842F600461D6A1A6AC4F2010622F08F
:103E700010021A621A46D3F804C052F8184FB3421F
:103E80008E68D1F800E025F0200545EA06150FD12F
:103E9000CE68D1E905986FF0400707EA06162CF4C2
:103EA000406725F0C00547EA8907354347EA880C93
:103EB00024F4E64444EA0E27C3F804C09F614F6827
:103EC00009699F631D629F6947F400679F619F694D
:103ED00027F480679F6168E0036842F600461D6A28
:103EE0001A6AC4F2010622F480721A621A46D3F8E2
:103EF00004C052F81CEFB3428E680C6825F40075BC
:103F000045EA06250FD1CE68D1E90598360240F280
:103F1000FF47BE432CF4405725F4406547EA091794
:103F2000354347EA081C2EF073072743C3F804C043
:103F3000DF614F680969DF631D62DF6947F00807C9
:103F4000DF61DF6927F00407DF612FE0036842F6D5
:103F50000047D3F820C01A6AC4F2010722F4805245
:103F60001A621A465C6852F81C5FD1F800E08E684D
:103F7000BB4204D14F6924F4804444EA87142CF4F2
:103F8000005747EA063725F4E64646EA0E265C6007
:103F9000DE614E6809691E641F62DF6947F40067CD
:103FA000DF61DF6927F48067DF6109021368194365
:103FB00011600021002280F83C200846BDE8F08313
:103FC000002804BF0120704710B5044690F83D005A
:103FD00028B9002084F83C00204600F067F8022051
:103FE00084F83D00206840F2FF730268C4F20003C9
:103FF00042F6004C9842C4F2010C15DCB0F1804F3F
:104000001AD040F20041C4F20001884214D0984214
:1040100018DCB0F1804F1DD040F20041C4F2000125
:10402000884217D01AE000BF604505D040F6000175
:10403000C4F200018842EAD1A16822F070020A436A
:104040009842E6DD604505D040F60001C4F200016B
:10405000884203D1216922F440720A43A36922F005
:104060008001D4F804E0E268194360450160C2624F
:10407000C0F828E002D16169CCF83010012141611B
:10408000002084F8461084F83E1084F83F1084F82D
:10409000401084F8411084F8421084F8431084F8EA
:1040A000441084F8451084F83D1010BD81B00068BC
:1040B000B0F1804F02D001B0704700BF41F21C0048
:1040C000C4F20200016841F001010160006800F0E3
:1040D00001000090009801B0704700007047000098
:1040E00041B1082910D0042914BF00F1410200F1A8
:1040F0003F020BE090F83E20012A1CBF01207047D0
:10410000022280F83E2013E000F140021278012ADA
:104110001CBF012070470222082907D0042914BFC0
:1041200080F8412080F83F2002E000BF80F8402066
:10413000006801F01F010122036A8A4023EA02019C
:104140000162036A42F64441C4F201011A43A1F13B
:104150004403984202620FD040F2FF71C4F20001A2
:10416000884213DCB0F1804F1CD040F20041C4F211
:104170000001884216D01CE00A6842F400420A603E
:1041800040F2FF71C4F200018842EBDD42F60041CB
:10419000C4F20101884205D040F60001C4F20001DA
:1041A000884206D1816801F00701062904BF00207A
:1041B0007047016841F00101016000207047000074
:1041C0007047000070470000002804BF01207047BE
:1041D00010B5044690F8410028B9002084F840004A
:1041E000204600F061F8242084F841002068D4E9DA
:1041F0000212C36823F40053C360036923F44053DD
:104200001A430261D4E904231143C268194341F2FD
:104210000C639A431143C1604169A26921F4407162
:10422000114343F60002C4F201029042416103D0FF
:10423000FFF71EF802E000BFFFF72EF862681921B1
:1042400048439100B0FBF1F048F21F51C5F2EB1169
:10425000A0FB01235A096FF0630302FB0300322322
:1042600003EB0010A0FB0101F02303EA51132068C7
:1042700003EB0212C1F3431111448160016921F47F
:1042800090410161416921F02A014161C16841F415
:104290000051C16000202021606484F8411084F83E
:1042A0004210606310BD000070B586B040F6004457
:1042B000C4F20104006804F53051002688420496D7
:1042C00002D006B070BD00BF41F21800C4F2020077
:1042D000016802AD41F480410160016801F4804150
:1042E00001910199016841F00801016000682946C7
:1042F00000F00800019001984020029002200390F5
:10430000032005902046FEF731F88020CDE9020613
:10431000204629460496FEF729F80420C4F201003D
:10432000016841F0E06141F00401016006B070BD38
:10433000FEE700002DE9F04782B0044600680E4613
:104340000168DDF828A041F4806101600168DDF8B2
:104350002C9041F480711D461746016020464FF0B5
:10436000011100225346CDF8009000F06FF858B1CB
:1043700020680068C00544BF4FF40070206403202B
:1043800002B0BDE8F08700BF40F202082068C0F22A
:10439000010806F0FE0606612046414652464B469D
:1043A00000F03EF920B1012002B0BDE8F08700BF67
:1043B0000020019020684A46416901918069514678
:1043C00001900198204600F0E3F998B9012D08D03A
:1043D0002068390A0161204651464A4600F0D8F962
:1043E00040B92068F9B20161204651464A4600F0C2
:1043F000CFF958B1206C0428D5D12068016841F468
:1044000000710160012002B0BDE8F0872068002241
:104410000168534641F48071016020464FF001115C
:10442000CDF8009000F012F80028A1D1206846F0E5
:10443000010101612046414652464B4600F0F0F82A
:10444000002818BF012002B0BDE8F0872DE9F04137
:10445000054600681E46144601F47F0201338FB200
:1044600042D0DDF81880B2F5803F40F08780406987
:104470003840C01BB0FA80F04009A04240F0C8802C
:104480004EB924E040693840C01BB0FA80F04009C2
:10449000A04240F0BD80FEF779F8A0EB0801286843
:1044A000B142EFD941693940C91BB1FA81F14909DB
:1044B000A142E7D19BE000BF40693840C01BB0FA81
:1044C00080F04009A0424FF0000040F0A680FEF7C7
:1044D0005DF8286841693940C91BB1FA81F1490981
:1044E000A142E9D183E000BFB2F5803F24D100BFF3
:1044F00041693940C91BB1FA81F14909A14240F033
:10450000878041693940C91BB1FA81F14909A1424B
:1045100040F07E8041693940C91BB1FA81F14909F7
:10452000A14275D141693940C91BB1FA81F14909EC
:10453000A142DDD06CE000BF81693940C91BB1FAEE
:1045400081F14909A14263D181693940C91BB1FA9E
:1045500081F14909A1425BD181693940C91BB1FA96
:1045600081F14909A14253D181693940C91BB1FA8E
:1045700081F14909A142DFD04AE000BF806938409B
:10458000C01BB0FA80F04009A04241D146B923E0F7
:1045900080693840C01BB0FA80F04009A0423BD18E
:1045A000FDF7F4FFA0EB08012868B142F0D981695A
:1045B0003940C91BB1FA81F14909A142E8D116E09D
:1045C00080693840C01BB0FA80F04009A0424FF02B
:1045D000000018BFBDE8F081FDF7D8FF28688169A9
:1045E0003940C91BB1FA81F14909A142E8D1002043
:1045F0002021286385F83D1085F83E00296C41F0A4
:104600002001296485F83C000120BDE8F08100BF4D
:104610000020BDE8F08100BF0020BDE8F08100006F
:10462000F0B581B0044600681D4643698FB203EAC5
:104630000701B94202D1002001B0F0BD4169164620
:10464000013201F4806125D0002940D1CEB100BFF4
:10465000FDF79CFF411B2068B14203D941693940F5
:10466000B9424BD141693940B942E4D04169490569
:10467000EED52CE041693940B942DCD041694905A9
:1046800025D4FDF783FF206841693940B942F1D054
:10469000202024E0D9B941693940B942CBD04169E1
:1046A000490514D441693940B942C4D0416949052A
:1046B0000DD441693940B942BDD04169490506D49C
:1046C00041693940B942B6D041694905E3D501682D
:1046D00041F4007101606FF48061416104200021A8
:1046E0002022216384F83D2084F83E10226C104380
:1046F000206484F83C10012001B0F0BD2020EEE7DA
:1047000070B504460068154650F8143F5A063DD46B
:104710000E4629B926E000BF50F8141F490635D4CB
:104720000168C90621D4FDF731FF411B2068B14261
:10473000F2D941694906EFD400202021206384F892
:104740003D1084F83E00206C40F0200018E000BFCF
:10475000FDF71CFF206850F8141F4906ECD50168CE
:10476000490613D40168C906F2D56FF01001016043
:1047700000202021206384F83D1084F83E00206C46
:104780002064002084F83C00012070BD002070BD32
:1047900070B50368044653F8140F000611D40E4692
:1047A000481C29D086BB00BF1868400527D4FDF7F8
:1047B000EDFE236853F8140F000639D5186800067B
:1047C000F2D5002070BD00BF18680006F9D4186843
:1047D000400514D418680006F3D4186840050ED4B8
:1047E00018680006EDD41868400508D4186800065B
:1047F0004FF0000048BF70BD18684005E4D56FF465
:1048000080601860042014E0154603E053F8140F8C
:104810000006D6D418684005F1D4FDF7B7FE401B5A
:104820002368B042F2D958690006EFD4202000E096
:10483000202000212022216384F83D2084F83E10AE
:10484000226C10432064012084F83C1070BD0000ED
:10485000B0B584B040F2702042F20041C2F20000D4
:10486000C4F2010100254FF4807201244FF460234B
:10487000C0E90015042104730575C36182600161FC
:10488000FCF7B8FD002818BFFCF7E6FB40F27020EB
:10489000CDE901540224C2F2000001A90394FCF7FF
:1048A000B7FC002818BFFCF7D7FB0120CDE90104B5
:1048B00040F27020C2F2000001A9FCF7A9FC002818
:1048C00018BFFCF7C9FB0320029040F270200424BB
:1048D000C2F2000001A90194FCF79AFC002818BF5D
:1048E000FCF7BAFB0520CDE9010440F27020C2F2CA
:1048F000000001A9FCF78CFC002818BFFCF7ACFBFA
:1049000004B0B0BD80B540F2A02046F20041C2F232
:104910000000C4F200010322002380E80E0000F131
:104920000C014FF4802C4FF4A00E81E808504FF496
:10493000807183618183FDF731FA002808BF80BD53
:10494000BDE88040FCF788BB80B582B041F214001E
:10495000C4F202000168002241F001010160006818
:10496000052100F00100019001980B20FEF766FA86
:104970000B2002B0BDE88040FEF750BA10B588B0F9
:1049800046F2AC30C0F6000090E80E50D0E9054089
:104990000191CDE9064001A8002102920393CDF8D0
:1049A00010C0CDF814E000F043FC40F26C21C2F2DC
:1049B0000001086008B010BD2DE9F04786B04FF047
:1049C000000A41F21800CDF814A0C4F202000168F8
:1049D00040F6000541F0200101600168C4F20105C4
:1049E00001F02001019101990168002241F00401C8
:1049F000016001684FF0080801F00401019101997C
:104A0000016841F0080101600068082100F0080019
:104A1000019001982846FDF7B3FD05F58064204616
:104A20004FF2200100224FF22009FDF7A9FD0420DA
:104A300002AECDE9020A28463146CDF810A0FDF7B6
:104A400095FCCDF808804FF0010802272846314632
:104A5000CDF80C80CDE90477FDF788FC204631467F
:104A6000CDE90298CDE90477FDF780FC1020CDE96F
:104A7000020A20463146CDF810A0FDF777FC06B0BB
:104A8000BDE8F08780B540F20C3045F20041C2F23B
:104A90000000C4F2000148F2A06200234FF4804CF1
:104AA000C0F2010280E80E00C0E9033CC0E9053312
:104AB000C0E90733FDF770FD002808BF80BDBDE8E1
:104AC0008040FCF7C9BA000080B540F2603045F67E
:104AD0000001C2F20000C4F2000148F2A06200230B
:104AE0004FF4804CC0F2010280E80E00C0E9033CA4
:104AF000C0E90533C0E90733FDF74EFD002808BFC4
:104B000080BDBDE88040FCF7A7BA000010B596B0A4
:104B100040F2B43042F600420021C2F20000C4F27A
:104B2000010220234FF6FF741591CDE91311119165
:104B3000CDE90F11CDE90D11CDE90B11CDE9091129
:104B4000CDE90711CDE90511CDE90311CDE9011139
:104B5000C0E90021C0E90234C0E904118161FEF717
:104B600007FE002818BFFCF777FA4FF48050129028
:104B700040F2B430C2F2000012A9FEF7F3FE0028A2
:104B800018BFFCF769FA40F2B430C2F20000FFF738
:104B900017FA002818BFFCF75FFA40F2B43000247F
:104BA000C2F2000010A9CDE91044FEF7A3FD0028D1
:104BB00018BFFCF751FA6020CDE9090440F2B43087
:104BC000C2F2000009A90022CDE90B44CDE90D4451
:104BD0000F94FFF7F3F8002818BFFCF73DFA40F2F6
:104BE000B430C2F2000009A90422FFF7E7F8002858
:104BF00018BFFCF731FA40F2B430C2F2000009A944
:104C00000822FFF7DBF8002818BFFCF725FA002080
:104C10000590CDE90300CDE901004FF40051089063
:104C200040F2B4300691C2F2000001A9FEF73CFD4B
:104C3000002818BFFCF710FA40F2B430C2F20000AE
:104C4000FFF718F816B010BD80B58AB040F2FC30FE
:104C50000021C2F200004FF080424FF6FF73CDE911
:104C60000811CDE90611CDE90411C0E90021C0E920
:104C7000021301618161FFF7A3F9002818BFFCF757
:104C8000EBF940F2FC30C2F2000008A9FEF732FD59
:104C9000002818BFFCF7E0F9602001900020CDE962
:104CA0000200059040F2FC30C2F2000001A900228F
:104CB000FFF784F8002818BFFCF7CEF940F2FC306B
:104CC000C2F2000001A90422FFF778F8002818BFFB
:104CD000FCF7C2F940F2FC30C2F20000FEF7CAFF56
:104CE0000AB080BD10B58EB040F2444040F20042A0
:104CF0000021C2F20000C4F2000220234FF6FF742C
:104D00000D91CDE90B110991CDE90711CDE90511FF
:104D1000CDE90311CDE90111C0E90021C0E9023458
:104D200001618161FEF724FD002818BFFCF794F9AA
:104D30004FF480500A9040F24440C2F200000AA9A9
:104D4000FEF710FE002818BFFCF786F940F2444039
:104D5000C2F20000FFF734F9002818BFFCF77CF915
:104D600040F244400024C2F2000008A9CDE9084402
:104D7000FEF7C0FC002818BFFCF76EF96020CDE9F3
:104D8000010440F24440C2F2000001A90022039451
:104D90000594FFF713F8002818BFFCF75DF940F2FF
:104DA0004440C2F2000001A90422FFF707F80028DE
:104DB00018BFFCF751F940F24440C2F2000001A9CB
:104DC0000822FEF7FBFF002818BFFCF745F940F268
:104DD0004440C2F20000FEF74DFF0EB010BD0000CF
:104DE00080B586B040F28C4040F600020021C2F24D
:104DF0000000C4F2000240F2CF234FF6FF7C059181
:104E0000CDE90311CDE90011C0E90023C0E9021C7E
:104E100001618161FEF7ACFC002818BFFCF71CF9AA
:104E20004FF48050029040F28C40C2F2000002A980
:104E3000FEF798FD002818BFFCF70EF940F28C40F1
:104E4000C2F200006946FEF755FC002818BFFCF7C7
:104E500003F906B080BD000080B540F2D44043F6AF
:104E60000001C2F20000C4F2010100234FF00C0C5B
:104E70004FF4E13280E80E00C0E90333C0E905C316
:104E8000C361FFF7A1F9002808BF80BDBDE88040DD
:104E9000FCF7E2B8FEE70000FEE7000000000000BB
:104EA000EFF30980BFF36F8F0D4B1A6820E9F00F05
:104EB00010602DE908404FF0500080F3118800F099
:104EC00057FE4FF0000080F31188BDE808401968D4
:104ED0000868B0E8F00F80F30988BFF36F8F704760
:104EE000E8000020000000000000000000000000BA
:104EF000074B19680868B0E8F00F80F30988BFF322
:104F00006F8F4FF0000080F311884EF00D0E704748
:104F1000E800002040F2C00543F23334C2F200053D
:104F2000C4F253040020FBF7D7FC0028FAD000207D
:104F3000FBF7C6FC2889298A084401F03FF94FF0A5
:104F40007C5101F067F9214601F064F94FF0665198
:104F500001F060F969896A8AA861501801F02EF998
:104F60004FF07C5101F056F9214601F053F94FF012
:104F7000665101F04FF9A989AA8AE861501801F039
:104F80001DF94FF07C5101F045F9214601F042F93D
:104F90004FF0665101F03EF9E989EA8A286250181B
:104FA00001F00CF94FF07C5101F034F9214601F089
:104FB00031F94FF0665101F02DF96862B2E7000057
:104FC000FCF750F8FCF79AF8012000F023F9F9E714
:104FD000FBF768FCFCE7000080B5FDF7B1FE00F0D0
:104FE00021FF012808BF80BDBDE8804000F098BEC9
:104FF0007047000040F28C40C2F20000FEF782BD14
:1050000040F2A020C2F20000FCF798BDFEE70000CD
:10501000002848BF4042704780B50A684B68D1F805
:1050200008C0D1F80CE040F2C001C2F20001083122
:1050300081E80C50BDE88040FBF774BC80B540F2BD
:105040004422C2F200024FF0000C40F20123D06073
:105050001182002040F2012182F800C0536082F8E2
:1050600008C0FBF76BFC00204FF40071FBF766FCF7
:1050700041F21101C0F600010020BDE88040FBF7BD
:105080009DBE000010B540F24424C2F20004238A01
:105090002078A188E2689B00FBF7A0FEA38C207D0E
:1050A000218B226A9B00BDE81040FBF797BE0000F1
:1050B000B0B505461020FBF78BF868B1044605EB48
:1050C0008500FBF785F8206040B105200021C4E988
:1050D00001102046E560B0BD0020B0BD2046FBF7C2
:1050E000A6F80020B0BD0000B0B50446D0E90130FC
:1050F0000D46834202D2206809E000BFE268410009
:105100002068A1605143FBF7B9F863682060E2684A
:10511000294602FB0300FBF713F9D4E90001E2681A
:1051200002FB010001316160B0BD00000268C0688F
:1051300000FB01207047000094B0FDF70FFE002433
:105140000120CDE90F44CDE90D440A900E904FF4B3
:10515000E0104FF48031022513900AA80494CDE9A1
:105160000244CDE90B14CDE91151FEF7A9F828B19D
:10517000EFF3108072B600BFFEE700BF0F20CDE94D
:1051800005054FF48060CDE9080405A802210794C5
:10519000FDF78EFF20B1EFF3108072B6FEE700BF7F
:1051A000022001904FF40040039001A8FDF7FAFEA1
:1051B00020B1EFF3108072B6FEE700BFFFF7FCFBF3
:1051C000FFF7C2FBFFF744FBFFF79CFBFFF75AFC1E
:1051D000FFF77AFCFFF79AFCFFF784FDFFF73CFE30
:1051E000FFF732FDFFF7FCFD40F2B434C2F20004D9
:1051F00020460021FEF774FF20460421FEF770FFD1
:1052000020460821FEF76CFFFFF7B8FB00F00AF814
:10521000FEE7000080B5002808BF012000F0ECFB8D
:10522000002080BD80B500F037FC002080BD00006C
:10523000B0B584B043698E4693B1846984B1058961
:10524000D0E9001C026928B2843D18BFC51CCDE915
:10525000005360467346029400F0AAFD04B0B0BD4E
:105260000589D0E90013028A28B2843D18BFC51C05
:1052700003AC184673460095019400F069FD03994C
:10528000012818BF0021084604B0B0BD2DE9F04147
:10529000044600F0F5FA40F2E806C2F20006306972
:1052A00040F21C65013030613068C2F2000548B13F
:1052B0007069002840D13068E16AC06A884298BFAE
:1052C000346039E034603069012835D1284600F077
:1052D00087FA05F1140000F083FA05F1280000F0C8
:1052E0007FFA05F13C0000F07BFA05F1500000F078
:1052F00077FA05F1640000F073FA05F1780000F028
:105300006FFA40F28018C2F20008404600F068FAD6
:1053100008F11407384600F063FA06F1640000F063
:105320005FFA06F13C0000F05BFA06F1500000F075
:1053300057FAC6F8308077637068B168012201318E
:10534000B160E16A8A401043706001EB810005EBB7
:105350008000211D00F086FA00F0B6FA706988B16D
:105360003068E16AC06A884228BFBDE8F0814EF625
:105370000450CEF200004FF080510160BFF34F8F18
:10538000BFF36F8FBDE8F08140F2E80540F21C6684
:105390004EF60458C2F20005C2F20006CEF2000832
:1053A0004FF0805703E000BF204600F0A5FAE86800
:1053B000D0B100F065FAA86CC468201D00F0EEF9C9
:1053C000286901382861E8680138E86000F07CFA53
:1053D00094F851000228EAD00128E5D070B9206B7A
:1053E00000F08AFAE0E700BF30680228DFD3C8F88F
:1053F0000070BFF34F8FBFF36F8FD8E74FF05000AF
:1054000080F31188BFF36F8FBFF34F8FFEE700006B
:105410002DE9F0470A9F8246386BDDF8248000EBC7
:1054200082000A78089C87F834200A780438994664
:10543000002A20F007064BD0487887F835004878D6
:10544000002845D0887887F83600887800283FD033
:10545000C87887F83700C878D0B3087987F838005B
:105460000879A8B3487987F83900487980B38879F2
:1054700087F83A00887958B3C87987F83B00C8792B
:1054800030B3087A87F83C00087A08B3487A87F87E
:105490003D00487AE0B1887A87F83E00887AB8B152
:1054A000C87A87F83F00C87A90B1087B87F8400037
:1054B000087B68B1487B87F84100487B40B1887B16
:1054C00087F84200887B00281CBFC87B87F8430010
:1054D0000025381D87F84350062C28BF0624FC629F
:1054E000C7E9114500F088F907F1180000F084F9C8
:1054F00084F00700B861304651464A463F617F62FA
:10550000FD6487F8505000F039F9B8F1000F3860A9
:1055100018BFC8F80070BDE8F087000006480068B2
:10552000006880F3088862B661B6BFF34F8FBFF39F
:105530006F8F00DF00BF000008ED00E081B00020A9
:10554000009040F20C00C2F2000000684FF05001E1
:1055500081F31188BFF36F8FBFF34F8F013007D0F6
:10556000FEE700BF009830B9009820B9009810B944
:1055700000980028F6D001B07047000070B50446CE
:1055800000F0EEFA40F2601CC2F2000CDCF80400FD
:1055900050B19CF80000002818BF4FF000404FF0B9
:1055A00000058CBB8FE000BF40F20870C2F2000023
:1055B000C21D22F0070210F00701A0EB020318BF82
:1055C000104600224FF44065CCF81000CCF81420AF
:1055D000002918BF03F540654119083921F007017A
:1055E000CCF80410C1E90022DCF80420091AC0E953
:1055F000002101208CF800004FF00040CCE902119E
:10560000002C4FF000055ED020405CD104F110006A
:1056100020F00702600708BF04F10802002A4FF0DB
:10562000000550D0DCF8080082424CD8604650F8A3
:1056300010EFDEF8045095422BD2DEF80010B9B11D
:1056400074464D68954217D20B68ABB15D689542C0
:1056500016D21868A0B14568954215D204689CB16D
:105660006568954214D22168A6460029E9D110E068
:105670000CF110000DE000BF8E46204609E000BF8F
:105680009E46084605E000BF8646184601E000BF7A
:10569000A646DCF804108E4514D00168DEF8004000
:1056A000AB1A112B04604CD30EEB0205680719D01E
:1056B0004FF0500080F31188BFF36F8FBFF34F8F0F
:1056C000FEE700BF002500F041FC680754D04FF012
:1056D000500080F31188BFF36F8FBFF34F8F00BF6F
:1056E000FEE700BF0CF110006B60CEF8042000BF95
:1056F0000368AB420AD21868A8420BD20368AB42D7
:1057000004D218681A46A842F2D304E002461846AA
:1057100001E000BF1A4653686C68D618AE4202D149
:105720001C44154654602B19834206D1DCF8043022
:10573000984202D009C823446B60AA42286018BF6F
:10574000156001F10805DEF80400DCE90212091A0F
:105750009142CCF8081038BFCCF80C109CF800101F
:1057600000294FF0000118BF40F00040CEE90010C2
:1057700000F0ECFB6807AAD1284670BD034645F24D
:105780003D50C0F600004FF0807C21F0010103E99C
:105790000310A3F1400043F8202C7047D0E90132F8
:1057A00001699A60D1F804C082688445536008BFDB
:1057B0004A60002202610868013808600868704782
:1057C00041F20C53C2F20003036041F20C30C2F20A
:1057D00000000860802010607047000070470000E3
:1057E0004FF0FF31024642F8081F00214260C0E935
:1057F0000322016070470000002101617047000032
:1058000010B5D1F800E01EF1010213D000F1080438
:1058100062681368734511D853681C68744511D8C1
:105820005A68146874450FD854682368A4467345B1
:10583000EED90BE00269D2F804C007E09446224694
:1058400004E000BF9C4601E094461A46C1F804C03B
:10585000CCF808108A60516008610168013101606C
:1058600010BD0000D0F800C0436808619A684B6022
:105870008A609A68996051600CF10101016070477B
:105880004FF0500080F31188BFF36F8FBFF34F8F3D
:1058900040F20C00C2F2000001684A1C026009B12B
:1058A000704700BF4EF60450CEF2000000680006BC
:1058B00008BF70474FF0500080F31188BFF36F8F1F
:1058C000BFF34F8FFEE7000040F20C00C2F2000071
:1058D000016839B10139016018BF7047002080F3B9
:1058E000118870474FF0500080F31188BFF36F8F1D
:1058F000BFF34F8FFEE7000070B5002808BF70BDF2
:1059000040F26016C2F200060446307854F8041CD7
:10591000002818BF4FF0004008420DD0A4F1080540
:105920002A689AB14FF0500080F31188BFF36F8F4F
:10593000BFF34F8FFEE700BF4FF0500080F3118898
:10594000BFF36F8FBFF34F8FFEE700BF21EA000068
:1059500044F8040C00F004F954F8041CB06808443E
:10596000B06006F1100000BF0368AB420AD21868AD
:10597000A84221D20368AB4204D218681A46A84252
:10598000F2D301E0024618465368D418AC4202D163
:105990001944154651606B18834205D173689842CB
:1059A00002D009C819446960AA42286018BF15606E
:1059B000BDE8704000F0CABA1A465368D418AC4229
:1059C000E9D1E5E74EF21000CEF2000000210160BF
:1059D000816040F20801C2F20001096844F6D35226
:1059E000C1F26202A1FB02124FF0FF3101EB9211F2
:1059F000416007210160704770B500283FD040F238
:105A0000E805C2F200050446A86948B14FF050000D
:105A100080F31188BFF36F8FBFF34F8FFEE700BF96
:105A2000A8690130A8616E6A28680430FFF7B6FEE5
:105A300050B12868A419446013D3686B29680431F5
:105A4000FFF7DEFE16E000BF28680121C06A6A6821
:105A500001FA00F022EA000068602868A419446096
:105A6000EBD2286B29680431FFF7CAFE286A84420A
:105A700038BF2C6200F06AFA002818BF70BD4EF6DD
:105A80000450CEF200004FF080510160BFF34F8F01
:105A9000BFF36F8F70BD0000B0B588B00020CDE9B6
:105AA000050006A805A904AAFFF78AFE0598A8B371
:105AB000069C002C3CD05421049A07910799542944
:105AC00040D12063022084F8510007A80025CDE9C9
:105AD000005045F28930C0F600001FA10023029457
