:020000040800F2
:100000005828002089010008B92900084524000863
:10001000B529000891030008892A000800000000A3
:10002000000000000000000000000000112A00088D
:100030009503000800000000C12900083D2A0008BF
:10004000A3010008A3010008A3010008A301000800
:10005000A3010008A3010008A3010008A3010008F0
:10006000A3010008A3010008A3010008A3010008E0
:10007000A3010008A3010008A3010008A3010008D0
:10008000A3010008A3010008A3010008A3010008C0
:100090007D2A0008A3010008A3010008A3010008AD
:1000A000A3010008A3010008A3010008A3010008A0
:1000B000A3010008A3010008712A0008A301000899
:1000C000A3010008A3010008A3010008A301000880
:1000D000A3010008A3010008A3010008A301000870
:1000E000A3010008A3010008A301000800F002F822
:1000F00000F03AF80AA090E8000C82448344AAF188
:100100000107DA4501D100F02FF8AFF2090EBAE885
:100110000F0013F0010F18BFFB1A43F0010318473B
:1001200088480000A8480000103A24BF78C878C169
:10013000FAD8520724BF30C830C144BF04680C60ED
:10014000704700000023002400250026103A28BF35
:1001500078C1FBD8520728BF30C148BF0B60704739
:100160001FB51FBD10B510BD00F0D7F81146FFF741
:10017000F7FF02F08BFC00F0F5F803B4FFF7F2FF95
:1001800003BC00F0FDF8000009488047094800471B
:10019000FEE7FEE7FEE7FEE7FEE7FEE7FEE7FEE737
:1001A000FEE7FEE704480549054A064B7047000094
:1001B0006D2A0008ED000008581C00205828002077
:1001C0005820002058200020032A40F2308010F0F0
:1001D000030C00F0158011F8013BBCF1020F6244E2
:1001E00098BF11F801CB00F8013B38BF11F8013B73
:1001F000A2F1040298BF00F801CB38BF00F8013B20
:1002000011F0030300F05780083AC0F0088051F85D
:10021000043B083A51F804CBA0E80810F5E7121D9A
:100220005CBF51F8043B40F8043BAFF30080D207B9
:1002300024BF11F8013B11F801CB48BF11F8012B85
:1002400024BF00F8013B00F801CB48BF00F8012BA8
:10025000704702F0FF0343EA032242EA024200F041
:1002600002B84FF0000200B5134694469646203976
:1002700022BFA0E80C50A0E80C50B1F12001BFF45F
:10028000F7AF090728BFA0E80C5048BF0CC05DF8C5
:1002900004EB890028BF40F8042B08BF704748BF13
:1002A00020F8022B11F0804F18BF00F8012B704787
:1002B00070477047704710B5203AC0F00B80B1E826
:1002C0001850A0E81850B1E81850A0E81850203A8B
:1002D000BFF4F5AF5FEA027C24BFB1E81850A0E894
:1002E000185044BF18C918C0BDE810405FEA827CAE
:1002F00024BF51F8043B40F8043B08BF7047D207C5
:1003000028BF31F8023B48BF11F8012B28BF20F865
:10031000023B48BF00F8012B7047754600F02CF8EF
:10032000AE4605006946534620F00700854618B0E2
:1003300020B5FFF737FFBDE820404FF000064FF033
:1003400000074FF000084FF0000BAC46ACE8C009C6
:10035000ACE8C009ACE8C009ACE8C00921F007016D
:100360008D46704710B50446AFF300802046BDE8C7
:100370001040FFF702BF0000004870471000002047
:1003800001491820ABBEFEE72600020070470000BE
:10039000FEE7000070470000EFF3108072B600BF68
:1003A000FEE7000010B581B00022009290F82420F2
:1003B000012A03D10221084601B010BD4B68012279
:1003C000062B80F8242015D8026803EB8303A3F1E1
:1003D000050E1F23D2F834C003FA0EF40B682CEA82
:1003E000040C03FA0EF444EA0C045463092B17D9E5
:1003F00037E000BF02680C2B20D803EB8303A3F186
:1004000023041F23D2F830C003FA04FE0B682CEA41
:100410000E0C03FA04F444EA0C041463092B20D8EC
:10042000D2F810C003EB4303072489689C402CEAF0
:100430000404994021431161002136E003EB83035A
:10044000A3F141041F23D2F82CC003FA04FE0B6869
:100450002CEA0E0C03FA04F444EA0C04D462092BCF
:10046000DED903EB4304D2F80CC0A4F11E0E07241E
:10047000896804FA0EF42CEA040401FA0EF121430F
:1004800023F00104102CD1600ED142F20841C4F2D5
:100490000101A1F10804A2420ED0816A41F02001BD
:1004A0008162012101E000BF0021002280F82420A8
:1004B000084601B010BD00BF0A68120230D40A68B5
:1004C000102B42F400020A602CD140F20801C2F263
:1004D000000109684DF68362C4F21B32A1FB0212CF
:1004E000910C01EB8101490000910099E1B1009963
:1004F000013900910099C9B1009901390091009921
:10050000B1B1009901390091009999B1009901396F
:100510000091009900294FF00001E8D1C5E700BF24
:100520000021C2E70021C0E70021BEE70021BCE7AF
:100530000021BAE70021B8E7B0B5002800F0A88094
:100540000446806A20B121688868C0070BD114E096
:100550000020E06284F82400204600F09BF8216827
:100560008868C00709D0886820F00100886000F022
:10057000FDFB21688A68D20726D1A06AC0063AD45A
:10058000A06A41F2021290430230A062E069D4E90D
:10059000013240EA030C531EB3FA83F35D0913469C
:1005A000B2F5807F18BF2B02207D257B01284CEA05
:1005B000450030D135B3A56A45F02005A562E56A4E
:1005C00045F00105E56226E0054602E08868C007BF
:1005D000D3D000F0CBFB401B21680328F6D38868FA
:1005E000C007F3D0A06A40F01000A062E06A40F0BB
:1005F0000100E062A06AA06A40F01000A062012041
:10060000B0BD00BFD4F818C04EF60005CFF6FF7598
:1006100005EB4C352B434D68B2F5807F25F46945D9
:1006200043EA05034B608B684FF2FD75CFF6E17529
:1006300003EA050343EA00038B6001D0012A07D1D6
:1006400022690023CFF6F07303EB025201E000BFF2
:100650000022CB6A23F470031A43CA62896840F609
:10066000FE62CFF61F721140814207D10020E06286
:10067000A16A012262F30101A162B0BDA06A40F04B
:10068000100020F00200A062E06A40F00100E06289
:100690000120B0BD80B586B0006842F60001C4F20A
:1006A000010188424FF00001CDE90411CDE90211AA
:1006B0001ED042F20041C4F20101884239D141F218
:1006C0001800C4F20200016841F400710160016881
:1006D00001F4007101910199016841F00401016088
:1006E000006800F0040001900198032017E000BFAB
:1006F00041F21800C4F20200016841F48061016017
:10070000016801F4806101910199016841F00401DF
:100710000160006800F00400019001983020029010
:100720000320039040F60000C4F2010002A900F08B
:100730000DFA06B080BD0000704700002DE9F04FB3
:1007400081B0044600684669D0F804908768D0F804
:100750000CB0D0F810A0D0F81880F10704D1002513
:1007600030071DD424E000BFF90710D00121BA07DB
:10077000816009D4780700F1AF80380700F1B680B6
:10078000204600F0D5F902E0204600F0D3F900251C
:10079000F80500F18780F80300F1B180300707D534
:1007A0001BF0100004D0206845F400751021C160D2
:1007B000700708D51BF0080005D020680821C1602B
:1007C000204600F0ABF9B00706D52068C068800766
:1007D00002D0204600F0A4F9700607D51AF01000E8
:1007E00004D0206845F4806510210161B00608D569
:1007F0001AF0080005D0206808210161204600F0A9
:1008000091F9F00606D520680069800702D02046DD
:1008100000F08AF9B00308D519F0100005D020685F
:1008200010214160204600F081F9F00308D519F04D
:10083000080005D0206808214160204600F084F9B6
:10084000300440F19B805FEA497040F1948006F4E7
:10085000807008EA102028435FEA8871014648BF8B
:1008600041F00201B20558BF01465FEA48700D46EB
:1008700048BF45F00405700558BF0D46300540F1EE
:100880007A8018F0700000F0768010380009052892
:100890006CD8DFE800F003595D61656945F0080533
:1008A00064E000BF20684FF48071BA0581600BD40A
:1008B000780515D438051DD4204600F03DF9F8031D
:1008C0007FF56CAF1BE000BF204600F037F9F8035E
:1008D0007FF564AF13E000BF4FF4006558E700BF39
:1008E00005F50055F8037FF559AF08E04FF4805542
:1008F0004EE700BF05F58045F8037FF54FAF206850
:100900004FF48031BA0381600AD4780310D43803DD
:1009100014D4204600F014F930073FF541AF47E703
:10092000204600F00FF930073FF53AAF40E700BF2F
:1009300005F5004530073FF533AF39E705F580355C
:1009400030073FF52DAF33E745F010050EE000BF4F
:1009500045F020050AE000BF45F0400506E000BF75
:1009600045F0800502E000BF45F48075206881698C
:1009700021F07001816120680421416055B1606AF5
:1009800040EA05012046616201B0BDE8F04FFFF783
:10099000D3BE00BF01B0BDE8F08F0000B0B5C8B154
:1009A000044690F8200010B9204600F071F8206845
:1009B000016841F00101016000F0D8F9054600BF6F
:1009C00020684168C90707D100F0D0F9401B0B2807
:1009D000F6D312E00120B0BD016821F002010160F0
:1009E00000F0C4F9054600BF2068416889070DD5AD
:1009F00000F0BCF9401B0B28F6D3606A052140F4D7
:100A000000306062012084F82010B0BD217E0268B1
:100A1000012922F0800208BF80320260617E0268F4
:100A2000012922F0400208BF40320260A17E026824
:100A3000012922F0200208BF20320260E17E026814
:100A4000012922F0100218BF10320260217F0268D3
:100A5000012922F0080208BF08320260617F0268A3
:100A6000012922F0040208BF04320260D4E901C265
:100A7000D4E9033561691A432A431143ACF10102F9
:100A80001143C16100200121606284F82010B0BDD3
:100A9000B0B586B040F60004C4F201040068A4F5C5
:100AA000244200219042059102D006B0B0BD00BFA3
:100AB00041F21800C4F20200426802AD42F0007236
:100AC0004260426802F000720192019A026842F0AC
:100AD00004020260006800F00400019001984FF4E5
:100AE0000060CDE9020104912046294600F02EF86D
:100AF0004FF480500290022003900320059020467E
:100B0000294600F023F814200521002200F012FBF2
:100B1000142000F0FFFA06B0B0BD000070470000DE
:100B200070470000704700007047000070470000E9
:100B300070470000704700007047000070470000D9
:100B40007047000070470000704700002DE9F04F2B
:100B500082B041F20042C4F201020E6804239042C6
:100B600008BF0323002E009300F0F68040F2004CF3
:100B70004FF6FF7E0022C4F2010C0124C1F2100ED8
:100B80004FF0000A4FF0000947E000BF012502F0D6
:100B90000C040F27A7402BEA070705FA04F43C438F
:100BA00043F82640D1F804B040F20C455FEACB236D
:100BB000DCF8083054BF23EA080343EA0803C4F210
:100BC0000105CCF808302B685FEA8B2454BF23EA78
:100BD000080343EA08032B605FEA8B34DCF8043037
:100BE00054BF23EA080343EA08035FEACB34CCF896
:100BF0000430DCF800304FF0010454BF23EA08034E
:100C000043EA0803CCF800300E680AF1010A36FA0C
:100C10000AF302F1040200F09F8004FA0AF816EACF
:100C2000080FF1D04B68734512DC122B56D8DFE861
:100C300003F0350B454955555555555555555555A1
:100C40005555554D510000BFD1F80C9046E000BFFE
:100C50004FF6FF75C1F22105AB420FDC0025C1F252
:100C60001105AB421AD00025C1F21205AB4215D0D6
:100C70000025C1F22105AB4210D02FE00025C1F2C2
:100C80002205AB420AD00025C1F23105AB4205D0A6
:100C90000025C1F23205AB4220D100BF8B684BB1B9
:100CA000012B14BFC0F81480C0F810804FF0080961
:100CB00014E000BF4FF0040910E000BFCB6803F15F
:100CC00008090BE04FF0000908E000BFCB6803F112
:100CD000040903E0CB6803F10C0900BF1346054685
:100CE000BAF1080F24BF203B04352E680F279F4020
:100CF000BE4309FA03F333432B60CB79DB067FF560
:100D000083AF41F21804C4F2020423684FEA9A0642
:100D100043F001032360236840F6000403F001035D
:100D20000193019BACF57E7353F826B0C4F2010425
:100D3000A0420FD040F60044C4F20104A0423FF4A8
:100D400025AF41F20004C4F20104009DA04208BF97
:100D500002251CE700251AE702B0BDE8F08F00006D
:100D6000002A08BF090401617047000041F61440E1
:100D7000C2F200000068704770B5B8B3044690F83E
:100D80003D0028B9002084F83C00204600F0B0F86F
:100D9000242084F83D002068016821F001010160F1
:100DA000016841F400410160016821F400410160E3
:100DB00000F084FB48F28041C0F21E0140F60013AF
:100DC000D4F804E088424FF00001C0F23D0348F23D
:100DD000A16C4FF0000238BF01219842C0F2010C13
:100DE00038BF0122E64538BF0A460AB1012070BD6E
:100DF0004DF68361C4F21B31A0FB01122168950CF2
:100E00004B684FF4967623F03F0343EA92437543D1
:100E100044F6D3564B60C1F262060B6AA5FB065638
:100E2000B50923F03F03E64538BF950C6A1C1A4309
:100E30000A62CA6948F2A0664CF6FF73C0F2010666
:100E4000B64522EA03020BD801384FEA4E03B0FB45
:100E5000F3F001306FF31F30042898BF04201EE028
:100E6000A368013863B119230EFB03F3B0FBF3F061
:100E700001306FF31F3078B100F5804008E000BF0B
:100E80000EEB4E03B0FBF3F001306FF31F3028B1CF
:100E900000F5004003E000BF012000E00120104306
:100EA000C8610868D4E9072320F0C0001043184344
:100EB0000860886848F2FF3204F10C0690434CCE7B
:100EC00018431043A5698860C86820F0FF003043CC
:100ED0002843C860086840F0010008600020202115
:100EE000206484F83D10206384F83E0070BD00004B
:100EF00010B586B0006845F60001C4F200018842D2
:100F00004FF00001CDE90411CDE9021134D045F2D2
:100F10000041C4F20001884252D141F21804C4F2E7
:100F20000204206802A940F008002060206800F058
:100F30000800019001984FF4407002901220039035
:100F40000320059040F60040C4F20100FFF7FEFDCB
:100F50000420C4F20100016841F0E06141F00201A7
:100F60000160606840F400106060606800F4001088
:100F70000190019806B010BD41F21804C4F20204B9
:100F8000206802A940F008002060206800F00800F6
:100F9000019001984FF440600290122003900320CA
:100FA000059040F60040C4F20100FFF7CFFD6068F5
:100FB00040F480006060606800F480000190019857
:100FC00006B010BD40F2000041F61441C2F200002C
:100FD000C2F2000100780A681044086070470000FF
:100FE00080B542F20000C4F20200016841F0100135
:100FF0000160032000F0CAF80F2000F005F800F0AF
:1010000061F8002080BD0000B0B586B041F21C013F
:10101000C4F202010A68044642F004020A60096848
:1010200001A801F0040101910199694600F024FA38
:10103000049D002D18BF012500F040FA4DF6836194
:10104000A840C4F21B31A0FB01014FF0FF3000EBC0
:10105000914140F6342040F60002C2F20000C4F292
:10106000000240F2E7330025C0E90021C0E9025345
:101070000561856100F08CFC054618B1284606B074
:10108000B0BD00BF40F63420C2F2000000F024FDE5
:1010900005460028F2D11E2000F03CF80F2C0DD898
:1010A0001E2021460022002500F044F840F20400F2
:1010B000C2F200000460284606B0B0BD01252846F3
:1010C00006B0B0BD80B582B041F21800C4F2020093
:1010D0000168002241F001010160016801F0010195
:1010E00001910199416841F08051416040680F21B0
:1010F00000F08050009000986FF0010000F01AF8A6
:101100000420C4F201000168022262F31A61016046
:1011100002B080BD002848BF704700F01F010122C7
:1011200002FA01F14EF200124009CEF2000242F83A
:101130002010704710B54EF60C5CCEF2000CDCF8B7
:101140000030C3F3022E8EF00704042C28BF0424C1
:10115000BEF103034FF0FF3E0EFA04F438BF002344
:10116000A14399400EFA03F39A43114300F00F0292
:10117000043A624409010C3200F16043B0F1FF3FD0
:10118000C8BF03F56442117010BD00004EF60C514B
:10119000CEF200010A684FF6FF031A4060F30A22FC
:1011A00042F0806040F0FD70086070472DE9F0412A
:1011B00082B00446007841F21C06C007C4F2020661
:1011C0004AD0306810F0805808D1306840F0805024
:1011D0003060306800F080500190019847F20007BD
:1011E000C4F200073868C00512D4386840F4807033
:1011F0003860FFF7BBFD05463868C00508D4FFF727
:10120000B5FD401B6428F7D9032002B0BDE8F0818A
:10121000706810F4407012D0616801F44071884227
:101220000DD0706840F24042C4F24222012320F403
:10123000407113600023C007136071602AD1706889
:10124000616820F440700843B8F1000F706003D16A
:10125000306820F0805030602068810707D556F84C
:10126000181CA26821F44041114346F8181CC0061E
:1012700004D4002002B0BDE8F08100BF56F8180C7D
:10128000E16820F48000084346F8180C002002B002
:10129000BDE8F081FFF76AFD054641F2883700BFDF
:1012A00070688007CBD4FFF761FD401BB8424FF058
:1012B0000300F5D9EBE700002DE9F04381B00028E9
:1012C00000F0858042F20008C4F202080446D8F813
:1012D00000000D4600F0070088420CD2D8F800004C
:1012E00020F007002843C8F80000D8F8000000F0FC
:1012F0000700A8426BD1206841F204098107C4F2BB
:10130000020917D5410705D5D9F8001041F4E0616D
:10131000C9F80010010705D5D9F8001041F4605153
:10132000C9F80010D9F80010A26821F0F0011143AB
:10133000C9F80010C00741D1D8F8000000F007003C
:10134000A8420CD9D8F8000020F007002843C8F8BC
:101350000000D8F8000000F00700A84237D120684C
:10136000410707D5D9F80010E26821F4E061114384
:10137000C9F80010000708D5D9F80000216920F449
:10138000605040EAC100C9F80000D9F8002002F01E
:101390000C00082841F20020C0F27A0050D144F637
:1013A0005E13C2F38341C0F60003595CD2033BD401
:1013B00040F60010C0F23D00484341E0606802285A
:1013C0000AD001282AD159F8041C890308D4012025
:1013D00001B0BDE8F08300BF59F8041C8901F6D5BF
:1013E000D9F8001021F003010843C9F80000FFF705
:1013F000BDFC064641F28837D9F80000616800F06C
:101400000C00B0EB810F97D0FFF7B0FC801BB84207
:10141000F2D9032001B0BDE8F08300BF59F8041CE5
:101420008907D4D5DCE700BFD9F8002044F65C1367
:10143000C2F34042C0F600039A5C4843B0FBF2F0AE
:10144000D9F8001044F64412C1F30311C0F60002AB
:10145000515C40F2080220FA01F140F20400C2F2AD
:1014600000000068C2F200021160FFF7CDFD00200D
:1014700001B0BDE8F08300000F22026041F20402D7
:10148000C4F20202136803F003034360136803F01D
:10149000F0038360136803F4E063C36012684FF4E1
:1014A000E06303EAD202026142F20000C4F20200E9
:1014B000006800F0070008607047000040F2080074
:1014C00041F20401C2F20000C4F20201006809689E
:1014D00044F65412C1F30221C0F60002515CC84028
:1014E0007047000040F2080041F20401C2F200001F
:1014F000C4F202010068096844F65412C1F3C22123
:10150000C0F60002515CC840704700002DE9F04170
:1015100082B0002868D00446007841F20006C00777
:10152000C4F2020625D0706800F00C0004281BD01D
:10153000706800F00C00082802D17068C00313D452
:101540006068002800F06881B0F5A02F00F07C8171
:10155000B0F5803F00F07C81306820F4803030604E
:10156000306820F4802076E13068800301D560681F
:10157000D0B32078800718D5706810F00C0F07D012
:10158000706800F00C0008286ED17068C0036BD43E
:101590003068800702D52069012825D1306861694B
:1015A00020F0F80040EAC1003060207800071FD426
:1015B0002078400732D4E56995B1706800F00C00DE
:1015C000082840F08F80012D0ED07068216A00F449
:1015D00080328A4208D1616A00F47010884203D1D7
:1015E000002002B0BDE8F081012002B0BDE8F0812A
:1015F000A069002862D00020C4F242200121C0F876
:101600008014FFF7B3FB0546706A800700F18C80F9
:10161000FFF7ACFB401B0228F6D92AE1F06910F075
:10162000805808D1F06940F08050F061F06900F016
:1016300080500090009847F20007C4F20007386815
:10164000C00529D4386840F480703860FFF78EFBFD
:10165000054600BF3868C0051ED4FFF787FB401B56
:101660006428F7D905E100BF2069002840F2000096
:10167000C4F2422000F0828001210160FFF776FB76
:10168000054600BF306880073FF588AFFFF76EFB67
:10169000401B0228F6D9ECE0E068002800F08080CA
:1016A000052800F09780012800F09880306A20F02B
:1016B00001003062306A20F0040092E00020C4F2A1
:1016C00042200021C0F88014FFF750FB054600BF00
:1016D000706A80077FF56CAFFFF748FB401B02285C
:1016E000F6D9C6E00027C4F2422700203866FFF78B
:1016F0003DFB022D05460BD13068800140F1BE80D4
:10170000FFF734FB401B02284FF00300F4D968E7D1
:10171000306880017FF564AFFFF728FB401B02288B
:101720004FF00300F4D95CE740F20800C2F2000079
:10173000006844F6D351C1F26201A0FB0101480ADE
:10174000019000BF00BF0198411E002801913FF4A5
:101750002FAF00BF0198411E002801913FF428AF30
:1017600000BF0198411E002801913FF421AF00BF46
:101770000198411E00280191E4D119E70021016080
:10178000FFF7F4FA054600BF306880077FF50DAF1C
:10179000FFF7ECFA401B02284FF00300F4D920E7D2
:1017A000306A20F001003062306A20F004003062BC
:1017B000FFF7DCFA054641F2883700BF306A800740
:1017C00020D5FFF7D3FA401BB8424FF00300F5D9FC
:1017D00007E700BF306A40F004003062306A40F032
:1017E00001003062FFF7C2FA054641F2883700BFB8
:1017F000306A800706D4FFF7B9FA401BB842F7D920
:1018000037E000BFB8F1000F7FF4D5AEF06920F0EB
:101810008050F061CFE600BF306820F48030306047
:10182000306820F480203060FFF7A0FA054600BF42
:10183000306880037FF59DAEFFF798FA401B64285F
:101840004FF00300F4D9CCE6306840F480203060DB
:10185000306840F480303060FFF788FA054600BFFA
:10186000306880033FF585AEFFF780FA401B64289F
:10187000F6D9032002B0BDE8F08100BF206AB0F5C0
:10188000803F05D17168A26821F400311143716075
:101890007168626A21F4741110430843706001207A
:1018A0003866FFF763FA0446306880013FF598AE6A
:1018B000FFF75CFA001B02284FF00300F4D990E612
:1018C0007047000070470000B0B590F83C20012A36
:1018D00004BF0220B0BD01F108053CCDD1E900CE26
:1018E00023F47C5322F470521A432EF4F0431A432B
:1018F0002CF4E0431A4324F4C0431A432A43C96931
:1019000022F48042036811435964002180F83C109E
:101910000846B0BD10B590F83C20012A4FF00202F5
:1019200033D080F83D200268D2F804E0D2F808C035
:101930000C682EF07003234340F2FF74C4F20004DD
:10194000A24253600ADCB2F1804F13D040F2004350
:10195000C4F200039A420DD011E000BF42F60043EA
:10196000C4F201039A4205D040F60003C4F200031A
:101970009A4204D149682CF08003194391600121F7
:10198000002280F83D1080F83C20104610BD000079
:10199000002804BF0120704710B5044690F83D00B0
:1019A00028B9002084F83C00204600F067F80220A7
:1019B00084F83D00206840F2FF730268C4F200031F
:1019C00042F6004C9842C4F2010C15DCB0F1804F95
:1019D0001AD040F20041C4F20001884214D098426B
:1019E00018DCB0F1804F1DD040F20041C4F200017C
:1019F000884217D01AE000BF604505D040F60001CC
:101A0000C4F200018842EAD1A16822F070020A43C0
:101A10009842E6DD604505D040F60001C4F20001C1
:101A2000884203D1216922F440720A43A36922F05B
:101A30008001D4F804E0E268194360450160C262A5
:101A4000C0F828E002D16169CCF830100121416171
:101A5000002084F8461084F83E1084F83F1084F883
:101A6000401084F8411084F8421084F8431084F840
:101A7000441084F8451084F83D1010BD82B0006811
:101A800040F20041C4F20001884215D042F6004104
:101A9000C4F2010188421CD141F21800C4F20200D4
:101AA000016841F400610160006800F40060019089
:101AB000019802B0704700BF41F21800C4F2020062
:101AC000416841F002014160406800F0020000906E
:101AD000009802B07047000090F83D1001291CBF2B
:101AE00001207047022180F83D10006840F2FF722B
:101AF000C168C4F20002904241F00101C16009DCFA
:101B0000B0F1804F12D040F20041C4F2000188428F
:101B10000CD012E042F60041C4F20101884205D027
:101B200040F60001C4F20001884206D1816801F04C
:101B30000701062904BF00207047016841F0010138
:101B4000016000207047000080B590F83C20012A19
:101B50004FF0020200F0C28080F83D20D0F800C0B3
:101B60004FF67772DCF8083023EA0202CCF808203E
:101B70000B684F2B28DC1F2B44DD202B45D0302B4E
:101B800043D0402B40F0AC80D1F804E0C968DCF8C9
:101B90002030DCF8202022F00102CCF82020DCF8F4
:101BA000182022F0F00242EA011123F00A0242EA70
:101BB0000E02CCF81810CCF82020DCF8081041F008
:101BC000470121F0300180E06F2B27DDB3F5005F86
:101BD00048D0B3F5805F7AD0702B40F08180D1E996
:101BE00001E3C968DCF8082043EA0E0322F47F42CF
:101BF00043EA01211143CCF80810DCF8081041F049
:101C0000770162E00BB1102B6AD1DCF8081021F0EB
:101C10007001194341F0070157E000BF502B35D048
:101C2000602B5DD1D1F804E0C968DCF82030DCF825
:101C3000202022F01002CCF82020DCF8182022F41A
:101C4000704242EA013123F0A00242EA0E12CCF8BF
:101C50001810CCF82020DCF8081041F0670121F0C2
:101C6000100132E0D1E901E3C968DCF8082043EA59
:101C70000E0322F47F4243EA01211143CCF80810FD
:101C8000DCF8081041F480411FE000BFD1F804E007
:101C9000C968DCF82030DCF8202022F00102CCF802
:101CA0002020DCF8182022F0F00242EA011123F093
:101CB0000A0242EA0E02CCF81810CCF82020DCF818
:101CC000081041F0570121F02001CCF80810002243
:101CD000012180F83D10002180F83C10104680BDA5
:101CE0000122F5E77047000010B501680446086955
:101CF000800744BFC8685FEA807039D4086940072C
:101D000044BFC8685FEA40703ED40869000744BF1A
:101D1000C8685FEA007045D40869C00644BFC86857
:101D20005FEAC0604AD40869C0071CBFC8685FEAA0
:101D3000C07051D10869000644BFC8685FEA0060FE
:101D400052D40869400644BFC8685FEA406053D473
:101D50000869800646BFC8685FEA806010BD6FF002
:101D6000200220460A61BDE81040FFF7ABBD00BF6E
:101D70006FF002000861012020778869800743D056
:101D80002046FFF7AFFF45E06FF004000861022036
:101D90002077886910F4407F40D02046FFF7A2FFEB
:101DA00042E000BF6FF00800086104202077C86996
:101DB00080073DD02046FFF795FF3FE06FF0100011
:101DC000086108202077C86910F4407F3AD0204687
:101DD000FFF788FF3CE000BF6FF00100086120467C
:101DE00000F070FA2168A5E76FF0800008612046D6
:101DF000FFF766FD2168A4E76FF040000861204608
:101E000000F06AFA2168A3E7204600F0C7F82046F0
:101E100000F056FA2168002020776FE7204600F096
:101E2000BDF8204600F04CFA2168002020776CE7CE
:101E3000204600F0B3F8204600F042FA2168002066
:101E4000207769E7204600F0A9F8204600F038FA2C
:101E500021680020207766E770B586B00068002111
:101E6000B0F1804FCDE904110391029128D040F2E6
:101E70000041C4F20001884260D042F60041C4F241
:101E80000101884240F0878041F21800C4F202004C
:101E9000016841F004010160006802A900F004003B
:101EA000019001984FF4E0600290022003900590A9
:101EB00040F60000C4F20100FEF748FE06B070BD17
:101EC00041F21800C4F20200016840F6000441F03B
:101ED000040101600168C4F2010401F004010191F0
:101EE0000199016802AD41F0080101600068022615
:101EF00000F00800019001984FF400400290204645
:101F0000294603960596FEF721FE0820CDE9020634
:101F100004F5806029460596FEF718FE0420C4F2F9
:101F2000010001684FF6FF42CFF6FF02114041F079
:101F3000E06141F48071016006B070BD41F21800AB
:101F4000C4F20200016840F6000441F0040101609F
:101F50000168C4F2010401F00401019101990168D2
:101F600002AD41F0080101600068022600F008009F
:101F700001900198C02002902046294603960596BC
:101F8000FEF7E4FD0120CDE9020604F58060294654
:101F90000596FEF7DBFD06B070BD0000704700003F
:101FA0002DE9F04390F83C30012B04BF0220BDE83E
:101FB000F0834FEAB202032A3CD8DFE802F0034381
:101FC0007FB900BF036842F600461D6A1A6AC4F270
:101FD000010622F001021A621A465C6852F818CF14
:101FE000B3428E68D1F800E025F0020545EA060507
:101FF0000CD1CE68D1E9057824F4407425F00C05A5
:1020000026F004063C43354344EA08042CF07307E9
:1020100047EA0E075C609F614F6809695F631D6254
:102020009F6947F008079F619F6927F004079F6138
:10203000AEE000BF0121002280F83C200846BDE848
:10204000F08300BF036842F600461D6A1A6AC4F2B4
:10205000010622F010021A621A46D3F804C052F8A0
:10206000184FB3428E68D1F800E025F0200545EA0C
:1020700006150FD1CE68D1E905986FF0400707EA41
:1020800006162CF4406725F0C00547EA890735435A
:1020900047EA880C24F4E64444EA0E27C3F804C057
:1020A0009F614F6809699F631D629F6947F40067DC
:1020B0009F619F6927F480679F6168E0036842F62B
:1020C00000461D6A1A6AC4F2010622F480721A627E
:1020D0001A46D3F804C052F81CEFB3428E680C685D
:1020E00025F4007545EA06250FD1CE68D1E905989B
:1020F000360240F2FF47BE432CF4405725F44065BA
:1021000047EA0917354347EA081C2EF073072743AF
:10211000C3F804C0DF614F680969DF631D62DF69CE
:1021200047F00807DF61DF6927F00407DF612FE070
:10213000036842F60047D3F820C01A6AC4F20107C8
:1021400022F480521A621A465C6852F81C5FD1F879
:1021500000E08E68BB4204D14F6924F4804444EA15
:1021600087142CF4005747EA063725F4E64646EA7A
:102170000E265C60DE614E6809691E641F62DF69BD
:1021800047F40067DF61DF6927F48067DF610902D8
:102190001368194311600021002280F83C20084692
:1021A000BDE8F083002804BF0120704710B5044645
:1021B00090F83D0028B9002084F83C00204600F04B
:1021C00067F8022084F83D00206840F2FF7302683F
:1021D000C4F2000342F6004C9842C4F2010C15DC34
:1021E000B0F1804F1AD040F20041C4F200018842A1
:1021F00014D0984218DCB0F1804F1DD040F200415D
:10220000C4F20001884217D01AE000BF604505D033
:1022100040F60001C4F200018842EAD1A16822F030
:1022200070020A439842E6DD604505D040F60001A1
:10223000C4F20001884203D1216922F440720A43AA
:10224000A36922F08001D4F804E0E26819436045F4
:102250000160C262C0F828E002D16169CCF8301098
:1022600001214161002084F8461084F83E1084F872
:102270003F1084F8401084F8411084F8421084F82C
:10228000431084F8441084F8451084F83D1010BDC4
:1022900081B00068B0F1804F02D001B0704700BF3C
:1022A00041F21C00C4F20200016841F0010101602A
:1022B000006800F001000090009801B07047000035
:1022C00070470000006840F60001C4F20001884237
:1022D00008BFFEF777BE704770470000002804BFB4
:1022E0000120704710B5044690F8410028B900203D
:1022F00084F84000204600F061F8242084F8410072
:102300002068D4E90212C36823F40053C360036950
:1023100023F440531A430261D4E904231143C268F1
:10232000194341F20C639A431143C1604169A269A8
:1023300021F44071114343F60002C4F201029042BD
:10234000416103D0FFF7BAF802E000BFFFF7CAF817
:102350006268192148439100B0FBF1F048F21F5127
:10236000C5F2EB11A0FB01235A096FF0630302FBD6
:102370000300322303EB0010A0FB0101F02303EA6A
:102380005113206803EB0212C1F343111144816021
:10239000016921F490410161416921F02A01416103
:1023A000C16841F40051C16000202021606484F8BC
:1023B000411084F84210606310BD000070B586B013
:1023C00040F60044C4F20104006804F530510026D0
:1023D0008842049602D006B070BD00BF41F21800DA
:1023E000C4F20200016802AD41F48041016001685D
:1023F00001F4804101910199016841F008010160F7
:102400000068294600F008000190019840200290E1
:1024100002200390032005902046FEF797FB8020C2
:10242000CDE90206204629460496FEF78FFB0420DC
:10243000C4F20100016841F0E06141F00401016073
:1024400006B070BDFEE70000B0B584B040F62C00C9
:1024500042F20041C2F20000C4F2010100244FF434
:102460006022012504730475C261C0E90014846010
:102470000561FEF761F8002818BFFDF78DFF40F6F3
:102480002C00C2F2000001A9CDE901450394FDF73B
:1024900089FF002818BFFDF77FFF04B0B0BD000022
:1024A000B0B584B040F65C0042F60001C2F2000014
:1024B000C4F2010100244FF4602201250473047565
:1024C000C261C0E9001484600561FEF735F8002898
:1024D00018BFFDF761FF0420CDE9010540F65C005F
:1024E000C2F2000001A90394FDF75CFF002818BFA9
:1024F000FDF752FF04B0B0BD80B540F68C0046F247
:102500000041C2F20000C4F200010023102280E862
:102510000E00C0E90333C0E905338383FEF73EFABA
:10252000002808BF80BDBDE88040FDF735BF000032
:1025300080B542F6352044F67012C0F60000C0F6B1
:102540000002002100F05AFB40F62801C2F200010F
:10255000086080BD2DE9F04786B04FF0000A41F2D7
:102560001800CDF814A0C4F20200016840F600057E
:1025700041F0200101600168C4F2010501F0200171
:10258000019101990168002241F004010160016894
:102590004FF0080801F0040101910199016841F030
:1025A000080101600068082100F00800019001980E
:1025B0002846FEF7D5FB05F5806420464FF2200142
:1025C00000224FF22009FEF7CBFB042002AECDE93A
:1025D000020A28463146CDF810A0FEF7B7FACDF82A
:1025E00008804FF00108022728463146CDE9038ACA
:1025F0000597FEF7ABFA20463146CDE90298CDE9C2
:1026000004A7FEF7A3FA1020CDE9020A20463146BE
:10261000CDF810A0FEF79AFA06B0BDE8F0870000EA
:1026200080B540F6B40045F20041C2F20000C4F2A9
:10263000000148F2A06200234FF4804CC0F2010276
:1026400080E80E00C0E9033CC0E90533C0E9073368
:10265000FEF792FB002808BF80BDBDE88040FDF773
:102660009BBE000080B540F6081045F60001C2F29E
:102670000000C4F2000148F2A06200234FF4804C35
:10268000C0F2010280E80E00C0E9033CC0E9053356
:10269000C0E90733FEF770FB002808BF80BDBDE826
:1026A0008040FDF779BE000010B596B040F65C1092
:1026B00042F600420021C2F20000C4F201024FF6CD
:1026C000FF731591CDE913111191CDE90F11CDE9EA
:1026D0000D11CDE90B11CDE90911CDE90711CDE9B6
:1026E0000511CDE90311CDE90111C0E90021C0E9CF
:1026F0000213C0E904118161FFF74AF9002818BFED
:10270000FDF74AFE4FF48050129040F65C10C2F282
:10271000000012A9FFF718FA002818BFFDF73CFEC9
:1027200040F65C10C2F20000FFF73CFD002818BF25
:10273000FDF732FE40F65C100024C2F2000010A942
:10274000CDE91044FFF7E6F8002818BFFDF724FE96
:102750006020CDE9090440F65C10C2F2000009A92E
:102760000022CDE90B44CDE90D440F94FFF718FC8E
:10277000002818BFFDF710FE40F65C10C2F2000002
:1027800009A90422FFF70CFC002818BFFDF704FE7E
:1027900040F65C10C2F2000009A90822FFF700FC15
:1027A000002818BFFDF7F8FD00200590CDE90300D3
:1027B000CDE901004FF40051089040F65C100691FD
:1027C000C2F2000001A9FFF77FF8002818BFFDF74B
:1027D000E3FD40F65C10C2F20000FFF73DFB16B0CF
:1027E00010BD000080B58AB040F6A4100021C2F2EE
:1027F00000004FF080424FF6FF73CDE90811CDE99C
:102800000611CDE90411C0E90021C0E902130161FC
:102810008161FFF7C7FC002818BFFDF7BDFD40F63A
:10282000A410C2F2000008A9FFF774F8002818BF2E
:10283000FDF7B2FD602001900020CDE90200059077
:1028400040F6A410C2F2000001A90022FFF7A8FB85
:10285000002818BFFDF7A0FD40F6A410C2F200004A
:1028600001A90422FFF79CFB002818BFFDF794FD87
:1028700040F6A410C2F20000FFF7EEFA0AB080BDE5
:1028800010B58EB040F6EC1040F200420021C2F2CA
:102890000000C4F200024FF6FF730D91CDE90B1159
:1028A0000991CDE90711CDE90511CDE90311CDE974
:1028B0000111C0E90021C0E9021301618161FFF744
:1028C00067F8002818BFFDF767FD4FF480500A90A5
:1028D00040F6EC10C2F200000AA9FFF735F9002813
:1028E00018BFFDF759FD40F6EC10C2F20000FFF7EB
:1028F00059FC002818BFFDF74FFD40F6EC100024EE
:10290000C2F2000008A9CDE90844FFF703F8002847
:1029100018BFFDF741FD6020CDE9010440F6EC1041
:10292000C2F2000001A9002203940594FFF738FBCE
:10293000002818BFFDF730FD40F6EC10C2F2000091
:1029400001A90422FFF72CFB002818BFFDF724FD86
:1029500040F6EC10C2F2000001A90822FFF720FBAC
:10296000002818BFFDF718FD40F6EC10C2F2000079
:10297000FFF772FA0EB010BD80B540F67C2043F62A
:102980000001C2F20000C4F2010100234FF00C0C60
:102990004FF4E13280E80E00C0E90333C0E905C31B
:1029A000C361FFF79BFC002808BF80BDBDE88040E5
:1029B000FDF7F2BCFEE70000FEE7000000000000AB
:1029C000EFF30980BFF36F8F0D4B1A6820E9F00F0A
:1029D00010602DE908404FF0500080F3118801F09D
:1029E000C1F94FF0000080F31188BDE80840196874
:1029F0000868B0E8F00F80F30988BFF36F8F704765
:102A00007000002000000000000000000000000036
:102A1000074B19680868B0E8F00F80F30988BFF326
:102A20006F8F4FF0000080F311884EF00D0E70474D
:102A300070000020012000F087F8FBE780B54FF020
:102A4000500080F31188BFF36F8FBFF34F8F01F0F9
:102A5000A9FD30B14EF60450CEF200004FF0805187
:102A60000160002080F3118880BD000070470000E5
:102A700040F63420C2F20000FFF736B940F68C0071
:102A8000C2F20000FDF75ABEFEE7000094B0FEF768
:102A9000A7FA00240120CDE90F44CDE90D440A90A6
:102AA0000E904FF4E0104FF48031022513900AA8E5
:102AB0000494CDE90244CDE90B14CDE91151FEF7A0
:102AC00025FD28B1EFF3108072B600BFFEE700BF0E
:102AD0000F20CDE905054FF48060CDE9080405A875
:102AE00002210794FEF7E8FB20B1EFF3108072B6E5
:102AF000FEE700BF022001904FF40040039001A8C0
:102B0000FEF754FB20B1EFF3108072B6FEE700BF72
:102B1000FFF720FDFFF798FCFFF7C2FCFFF7ECFC86
:102B2000FFF77EFDFFF79EFDFFF7BEFDFFF7A8FE56
:102B3000FFF722FFFFF756FE00F020F8FFF7F8FC42
:102B400000F03AF8FEE7000080B5EFF3058111B917
:102B5000EFF3108111B16FF0050080BD40F2C83174
:102B6000C2F200010968022903D1EFF311810029A3
:102B7000F1D108B100F0AEFF002080BDEFF3058079
:102B800010B9EFF3108018B16FF00500704700BF67
:102B900040F2C830C2F200000168022904D1EFF30C
:102BA00011810029F0D10168002911BF4FF0FF30D9
:102BB000012101600020704780B5EFF3058010B956
:102BC000EFF3108010B16FF0050080BD40F2C83007
:102BD000C2F200000168022904D1EFF3118100293B
:102BE000F1D1016801291CBF4FF0FF3080BD0221E7
:102BF000016001F039F8002080BD00002DE9F041AE
:102C000086B000240B460494EFF3058121B12046E1
:102C100006B0BDE8F08100BFEFF3108121B10024C0
:102C2000204606B0BDE8F08140F2C831C2F2000192
:102C30000968022908D100284FF00004EFF3118140
:102C4000E5D019B1E3E700BF0028E8D000240DF17A
:102C500017018DF817408AB31768D2F818E0002FD3
:102C600018BF3946BEF1000F08BF4FF0180EBEF175
:102C7000380FD4D81779FF07D1D15769D2E9028626
:102C80004FEA970C002F654608BF8025B8F1000F6A
:102C900026D05C2EC3D312690024002A18BF002F4F
:102CA000B5D0CDE900E26246CDF8088001F02AFCFB
:102CB0000446204606B0BDE8F08100BF80254FF0F5
:102CC000180E04AFAAB2CDF800E0019701F0EAFBBC
:102CD0000499012808BF0C46204606B0BDE8F081E3
:102CE000002E9CD11269002A99D1EAE72DE9F04122
:102CF000044600F0B1FD40F27006C2F20006F06832
:102D000040F6B4350130F0603068C2F2000558B1C9
:102D10003069002840F007813068E16AC06A884263
:102D200098BF3460FFE000BF3460F068012840F0D5
:102D3000FA80284600F040FD05F1140000F03CFD4B
:102D400005F1280000F038FD05F13C0000F034FDED
:102D500005F1500000F030FD05F1640000F02CFD9D
:102D600005F1780000F028FD05F18C0000F024FD4D
:102D700005F1A00000F020FD05F1B40000F01CFDFD
:102D800005F1C80000F018FD05F1DC0000F014FDAD
:102D900005F1F00000F010FD05F5827000F00CFD6B
:102DA00005F58C7000F008FD05F5967000F004FD47
:102DB00005F5A07000F000FD05F5AA7000F0FCFC20
:102DC00005F5B47000F0F8FC05F5BE7000F0F4FCF9
:102DD00005F5C87000F0F0FC05F5D27000F0ECFCD1
:102DE00005F5DC7000F0E8FC05F5E67000F0E4FCA9
:102DF00005F5F07000F0E0FC05F5FA7000F0DCFC81
:102E000005F5027000F0D8FC05F5077000F0D4FC61
:102E100005F50C7000F0D0FC05F5117000F0CCFC4D
:102E200005F5167000F0C8FC05F51B7000F0C4FC39
:102E300005F5207000F0C0FC05F5257000F0BCFC25
:102E400005F52A7000F0B8FC05F52F7000F0B4FC11
:102E500005F5347000F0B0FC05F5397000F0ACFCFD
:102E600005F53E7000F0A8FC05F5437000F0A4FCE9
:102E700005F5487000F0A0FC05F54D7000F09CFCD5
:102E800005F5527000F098FC05F5577000F094FCC1
:102E900005F55C7000F090FC05F5617000F08CFCAD
:102EA00005F5667000F088FC05F56B7000F084FC99
:102EB00005F5707000F080FC05F5757000F07CFC85
:102EC00005F57A7000F078FC05F57F7000F074FC71
:102ED00005F5826000F070FC05F2244000F06CFC07
:102EE00005F5876000F068FC05F24C4000F064FCDA
:102EF00040F24418C2F20008404600F05DFC08F1C0
:102F00001407384600F058FC06F1640000F054FC49
:102F100006F13C0000F050FC06F1500000F04CFCC3
:102F2000C6F81C8037627068716A421CE06A726081
:102F30008842626488BF706200EB800005EB80000D
:102F4000211D00F07BFC00F0ABFC306988B13068DB
:102F5000E16AC06A884228BFBDE8F0814EF604509D
:102F6000CEF200004FF080510160BFF34F8FBFF3EE
:102F70006F8FBDE8F081000040F2700540F6B43676
:102F80004EF60458C2F20005C2F20006CEF2000866
:102F90004FF0805703E000BF204600F099FCA8687E
:102FA000D0B100F059FCA86CC468201D00F0D6FB1D
:102FB000E8680138E860A8680138A86000F070FC93
:102FC00094F859000228EAD00128E5D070B9206BA6
:102FD00000F07EFCE0E700BF30680228DFD3C8F8CD
:102FE0000070BFF34F8FBFF36F8FD8E74FF05000E3
:102FF00080F31188BFF36F8FBFF34F8FFEE70000A0
:103000002DE9F0470A9C8246206B16460F46DDE903
:1030100008599100A5229846FDF71BF93978206BD5
:1030200084F8341000EB860039780438002920F049
:1030300007064BD0787884F835007878002845D09A
:10304000B87884F83600B87800283FD0F87884F84B
:103050003700F878D0B3387984F838003879A8B3D5
:10306000787984F83900787980B3B87984F83A00AF
:10307000B87958B3F87984F83B00F87930B3387AE6
:1030800084F83C00387A08B3787A84F83D00787A7E
:10309000E0B1B87A84F83E00B87AB8B1F87A84F82A
:1030A0003F00F87A90B1387B84F84000387B68B1F3
:1030B000787B84F84100787B40B1B87B84F842008B
:1030C000B87B00281CBFF87B84F843000027201D34
:1030D00084F84370372D28BF3725E562C4E91357BC
:1030E00000F076FB04F1180000F072FBC5F1380027
:1030F000A06130465146424624616462676584F8A7
:10310000587000F01BFBB9F1000F206018BFC9F820
:103110000040BDE8F087000006480068006880F3C2
:10312000088862B661B6BFF34F8FBFF36F8F00DFC1
:1031300000BF000008ED00E081B00020009040F2E8
:103140000C00C2F2000000684FF0500181F31188BA
:10315000BFF36F8FBFF34F8F013007D0FEE700BF83
:10316000009830B9009820B9009810B9009800284C
:10317000F6D001B07047000088B040F2E80AC2F211
:10318000000A4FF0000B0DF11009E846DAF80800CC
:1031900005681DB1C068046801E000BF002400F0AC
:1031A000D9FD01F0F9F9DAF810100646884224D367
:1031B000002DCAF8106053D0A64251D301F0F0FAA6
:1031C000DAF80800C068C7683D1D284600F0C6FA56
:1031D000F869012840F08080B8693F610119B14267
:1031E00079605BD90AF108005DE000BF6860DAF839
:1031F000080039462D6100F0EFFADAF8080001689E
:1032000021B3C068C56804682F1D384600F0A6FACF
:10321000696A28468847E8690128EED1A8692044F0
:10322000A042E3D8DAF80000002800F02581CDE9BB
:1032300004B4069501F0A0F9DAF80000494600222E
:10324000002300F0F1FE0028D7D115E1DAF80C10C8
:10325000CAF81060CAE9021001F0A2FA46E000BF05
:1032600015B1002206E000BFDAF80C000068B0FAE1
:1032700080F04209DAF80000A11B00F001FC01F027
:103280008FFA98BB4EF60450CEF200004FF08051FA
:103290000160BFF34F8FBFF36F8F27E0311B814277
:1032A00006D20AF10C000068294600F095FA13E0F6
:1032B000DAF80000002800F0FD80CDE904B406979C
:1032C00001F05AF9DAF8000049460022002300F024
:1032D000ABFE002800F0EE80796A3846884705E0AA
:1032E0000AF10C00006800F077FA00BFDAF800007D
:1032F0004146002200F0AEFF00283FF447AF00989F
:10330000B0F1FF3F06DCDDE901200399904700980A
:103310000028EBD4029E706910B1301D00F01EFA37
:1033200001F03AF9DAF81010074688420DD30098F8
:10333000CAF8107009283BD9D8E700BF6860DAF8EE
:10334000080021462D6100F047FADAF8080001680C
:1033500021B3C068C568D0F800802C1D204600F05D
:10336000FDF9696A28468847E8690128EDD1A8690E
:1033700040444045E2D8DAF80000002872D0CDE998
:1033800004B8069501F0F8F8DAF800004946002282
:10339000002300F049FE0028D7D163E0DAF80C10D2
:1033A000E846CAE902100098CAF8107009289DD8AA
:1033B0000121814011F0C70F10D0019AB069314648
:1033C000831841F8043FBB4236611DD997420AF188
:1033D0000800BFF487AF93421AD283E711F4047F49
:1033E00034D001980028B0615AD0384431460AF1EF
:1033F0000C0241F8040F3661B84288BF0AF1080296
:10340000106800F0E9F971E7BA1A8242FFF468AF78
:10341000716A30468847F06901287FF467AFDAF8AF
:103420000000002832D00198B16906960844CDE921
:1034300004B001F0A1F8DAF80000494600220023A8
:1034400000F0F2FD00287FF451AF1FE005287FF463
:103450004DAF96F82C0000287FF448AF304600F0BE
:1034600037FA43E74FF0500080F31188BFF36F8FB6
:10347000BFF34F8FFEE700BF4FF0500080F311887D
:10348000BFF36F8FBFF34F8FFEE700BF4FF05000C9
:1034900080F31188BFF36F8FBFF34F8FFEE700BF3C
:1034A0004FF0500080F31188BFF36F8FBFF34F8F41
:1034B000FEE700BF4FF0500080F31188BFF36F8F1D
:1034C000BFF34F8FFEE70000F0B581B0044600F077
:1034D000C3F994F94560012E0FDB04F1240500BF08
:1034E000286850B1284601F021F9002818BF00F0E3
:1034F0003BFBF0B2013E0128F2D8FF2684F845607C
:1035000000F0CEF900F0A8F994F94470012F0EDB19
:1035100004F11005286850B1284601F007F9002889
:1035200018BF00F021FBF8B2013F0128F2D884F85F
:10353000446001B0BDE8F04000F0B2B970B5044697
:1035400000F008FC40F2241CC2F2000CDCF804007D
:1035500050B19CF80000002818BF4FF000404FF019
:1035600000058CBB8FE000BF41F21400C2F20000E6
:10357000C21D22F0070210F00701A0EB020318BFE2
:10358000104600224FF44065CCF81000CCF814200F
:10359000002918BF03F540654119083921F00701DA
:1035A000CCF80410C1E90022DCF80420091AC0E9B3
:1035B000002101208CF800004FF00040CCE90211FE
:1035C000002C4FF000055ED020405CD104F11000CB
:1035D00020F00702600708BF04F10802002A4FF03C
:1035E000000550D0DCF8080082424CD8604650F804
:1035F00010EFDEF8045095422BD2DEF80010B9B17E
:1036000074464D68954217D20B68ABB15D68954220
:1036100016D21868A0B14568954215D204689CB1CD
:103620006568954214D22168A6460029E9D110E0C8
:103630000CF110000DE000BF8E46204609E000BFEF
:103640009E46084605E000BF8646184601E000BFDA
:10365000A646DCF804108E4514D00168DEF8004060
:10366000AB1A112B04604CD30EEB0205680719D07E
:103670004FF0500080F31188BFF36F8FBFF34F8F6F
:10368000FEE700BF002501F08BF8680754D04FF02B
:10369000500080F31188BFF36F8FBFF34F8F00BFCF
:1036A000FEE700BF0CF110006B60CEF8042000BFF5
:1036B0000368AB420AD21868A8420BD20368AB4237
:1036C00004D218681A46A842F2D304E0024618460B
:1036D00001E000BF1A4653686C68D618AE4202D1AA
:1036E0001C44154654602B19834206D1DCF8043083
:1036F000984202D009C823446B60AA42286018BFD0
:10370000156001F10805DEF80400DCE90212091A6F
:103710009142CCF8081038BFCCF80C109CF800107F
:1037200000294FF0000118BF40F00040CEE9001022
:1037300001F036F86807AAD1284670BD034643F267
:103740003910C0F600004FF0807C21F0010103E940
:103750000310A3F1400043F8202C7047D0E9013258
:1037600001699A60D1F804C082688445536008BF3B
:103770004A600022026108680138086008687047E2
:1037800040F26C33C2F20003036040F26C10C2F2EC
:1037900000000860802010607047000040F2CC7389
:1037A000C2F20003036040F2CC30C2F200000860B5
:1037B0004FF48070106070474FF0FF31024642F8BE
:1037C000081F00214260C0E9032201607047000029
:1037D000002101617047000010B5D1F800E01EF132
:1037E000010213D000F1080462681368734511D810
:1037F00053681C68744511D85A68146874450FD80A
:1038000054682368A4467345EED90BE00269D2F8E8
:1038100004C007E09446224604E000BF9C4601E055
:1038200094461A46C1F804C0CCF808108A6051606A
:10383000086101680131016010BD0000D0F800C0CE
:10384000436808619A684B608A609A689960516021
:103850000CF10101016070474FF0500080F31188B6
:10386000BFF36F8FBFF34F8F40F20C00C2F2000026
:1038700001684A1C026009B1704700BF4EF604504F
:10388000CEF200000068000608BF70474FF05000FD
:1038900080F31188BFF36F8FBFF34F8FFEE70000F7
:1038A00040F20C00C2F20000016839B10139016038
:1038B00018BF7047002080F3118870474FF0500008
:1038C00080F31188BFF36F8FBFF34F8FFEE70000C7
:1038D00070B5002808BF70BD40F22416C2F2000681
:1038E0000446307854F8041C002818BF4FF00040FC
:1038F00008420DD0A4F108052A689AB14FF0500093
:1039000080F31188BFF36F8FBFF34F8FFEE700BFC7
:103910004FF0500080F31188BFF36F8FBFF34F8FCC
:10392000FEE700BF21EA000044F8040C00F012FAA0
:1039300054F8041CB0680844B06006F1100000BFE1
:103940000368AB420AD21868A84221D20368AB428E
:1039500004D218681A46A842F2D301E0024618467B
:103960005368D418AC4202D11944154651606B1803
:10397000834205D17368984202D009C8194469602E
:10398000AA42286018BF1560BDE8704000F008BF6B
:103990001A465368D418AC42E9D1E5E74EF210005C
:1039A000CEF2000000210160816040F20801C2F205
:1039B0000001096844F6D352C1F26202A1FB02126F
:1039C0004FF0FF3101EB9211416007210160704718
:1039D00041F6184CC2F2000CDCF8002022B363461A
:1039E00053F8082F42B3634653F8102F52B363467F
:1039F00053F8182F62B3634653F8202F72B363460F
:103A000053F8282F82B3634653F8302F92B363469E
:103A100053F8382F002A18BF7047072219600CEBA3
:103A2000C2014860704700BF0022634619600CEB7A
:103A3000C2014860704700BF012219600CEBC2014F
:103A400048607047022219600CEBC2014860704761
:103A5000032219600CEBC201486070470422196010
:103A60000CEBC20148607047052219600CEBC201E3
:103A700048607047062219600CEBC201486070472D
:103A800070B515460E460446FFF7E6FE94F844006E
:103A9000FF2804BF002084F8440094F84500FF2864
:103AA00004BF002084F84500FFF7FAFEA06B28B1A0
:103AB0002046BDE87040FFF707BD00BF04F12400B9
:103AC00031462A4600F092F82046BDE87040FFF7E4
:103AD000FBBC000070B588B340F27005C2F200056F
:103AE0000446686950B14FF0500080F31188BFF36D
:103AF0006F8FBFF34F8F00BFFEE700BF68690130D3
:103B00006861AE6928680430FFF728FE2868A419A8
:103B1000446005D3286A29680431FFF75DFE08E098
:103B2000E86929680431FFF757FEE86A844238BF24
:103B3000EC6200F035FE002818BF70BD4EF6045050
:103B4000CEF200004FF080510160BFF34F8FBFF302
:103B50006F8F70BD40F27001C2F200018A6B02608B
:103B6000896941607047000040F27000C2F20000B5
:103B7000012101637047000070B5D8B140F27004B4
:103B8000C2F200040D4621681831FFF725FEA66930
:103B900020680430FFF7E2FD681C15D02068AD19DD
:103BA000456019D3206A21680431BDE87040FFF7F1
:103BB00013BE00BF4FF0500080F31188BFF36F8F2A
:103BC000BFF34F8FFEE700BF54F8500B011D204696
:103BD000BDE87040FFF732BEE06921680431FFF7AD
:103BE000FBFDE06A854238BFE56270BDF0B581B08B
:103BF000C0B140F27004C2F200040D4621681646BE
:103C00001831FFF71BFEA76920680430FFF7A6FDF7
:103C100096B154F8500B011D204601B0BDE8F040AC
:103C2000FFF70CBE4FF0500080F31188BFF36F8F89
:103C3000BFF34F8FFEE700BF2068ED19456007D343
:103C4000206A2168043101B0BDE8F040FFF7C4BD2F
:103C5000E06921680431FFF7BFFDE06A854238BFA3
:103C6000E56201B0F0BD000010B588B00020CDE9DC
:103C7000050006A805A904AAFFF782FD05980028FB
:103C80003CD0069C002C43D05C21049A07910799F4
:103C90005C2947D12063022084F8590007A800213D
:103CA000CDE9001042F67970C0F6000027A100238C
:103CB0000294FFF7A5F92046FFF718F8079840F29D
:103CC0007004C2F20004A062B0B100F0E1FD411C3A
:103CD00032D0012810D14FF0500080F31188BFF38B
:103CE0006F8FBFF34F8F4FF0FF30E06201202061F4
:103CF0000020A06100F094F808B010BD4FF0500013
:103D000080F31188BFF36F8FBFF34F8FFEE700BFC3
:103D10004FF0500080F31188BFF36F8FBFF34F8FC8
:103D2000FEE700BF4FF0500080F31188BFF36F8FA4
:103D3000BFF34F8FFEE700BF4FF0500080F31188B4
:103D4000BFF36F8FBFF34F8FFEE700BF49444C4571
:103D50000000000040F27000C2F200004169013131
:103D60004161704780B540F2700EC2F2000EDEF87D
:103D7000141019B10121CEF8301080BD0021CEF809
:103D80003010DEF8241040F6B43C01EB8103C2F29F
:103D9000000C5CF823208AB101EB81020CEB82035A
:103DA00053F8042F5268181D82421A6020D0D06840
:103DB000CEF80000CEF8241080BD00BF0CEB8302CB
:103DC000A2F12803E1B15A6922BB012918D01A686F
:103DD00012BB022914D053F8142CFAB903290FD0BE
:103DE00053F8282C0439002AA3F15003EAD0D3E772
:103DF00052681A60D068CEF80000CEF8241080BD5A
:103E00004FF0500080F31188BFF36F8FBFF34F8FD7
:103E1000FEE700BF0139BFE70239BDE70339BBE761
:103E2000B0B584B04EF2004CCEF2000C9CF80010FD
:103E30000291FF218CF800109CF800108DF80710FB
:103E40009DF8071001F0500240F23C11C2F200014F
:103E50000A7007224A609DF90720B2F1FF3F5FDC3C
:103E6000032200BFD31C4B609DF8070040008DF873
:103E700007009DF90700B0F1FF3F23DC931C4B6066
:103E80009DF8070040008DF807009DF90700B0F18C
:103E9000FF3F17DC531C4B609DF8070040008DF876
:103EA00007009DF90700B0F1FF3F0BDC4A609DF869
:103EB0000700043A40008DF807009DF9070000282C
:103EC000D0D4131D032B2BD14FF4407048600298BF
:103ED0008CF80000DCF8200940F47000CCF82009D0
:103EE000DCF8200940F07040CCF82009FFF756FDBF
:103EF00040F20C04C2F2000400252560FFF70CF923
:103F0000FFF730FF039520684FF0500181F31188CF
:103F1000BFF36F8FBFF34F8F013011D0FEE700BFAB
:103F20004FF0500080F31188BFF36F8FBFF34F8FB6
:103F3000FEE700BF039830B9039820B9039810B981
:103F400003980028F6D0002004B0B0BD70B582B050
:103F500070B11C46B3B1F9B9F2B14FF0500080F323
:103F60001188BFF36F8FBFF34F8F00BFFEE700BF15
:103F70004FF0500080F31188BFF36F8FBFF34F8F66
:103F8000FEE700BF4FF0500080F31188BFF36F8F42
:103F9000BFF34F8FFEE700BF51B14AB94FF0500059
:103FA00080F31188BFF36F8FBFF34F8FFEE700BF21
:103FB00050230193019B502B2CD1069E01230029F5
:103FC00084F8463014BF22602460C4E90F01FFF773
:103FD00043FC2068D4E90F12002502FB01030139DC
:103FE00001FB0201A563C4E90130FF20E16084F810
:103FF000440084F8450004F11000FFF7DDFB04F1F4
:104000002400FFF7D9FBFFF74BFC204684F84C60F7
:1040100002B070BD4FF0500080F31188BFF36F8F76
:10402000BFF34F8FFEE700002DE9F04F83B00292FF
:10403000C0B11D4617460E460446E9B1022D03D114
:10404000E06B012840F0888000F096FA10BB0FB3B7
:104050004FF0500080F31188BFF36F8FBFF34F8F85
:10406000FEE700BF4FF0500080F31188BFF36F8F61
:10407000BFF34F8FFEE700BF206C0028DED04FF06B
:10408000500080F31188BFF36F8FBFF34F8F00BFD5
:10409000FEE700BFFFF7E0FBA06B022D66D0E16BEF
:1040A000884263D304F1100801206F460DF108091E
:1040B0000DE000BF2046FFF707FA00F071FBFFF7A5
:1040C000CBFBA06BE16B88424FF000004ED302990E
:1040D000002973D0C00702D03846FFF73BFDFFF739
:1040E000DFFBFFF737FEFFF7B7FB94F84400FF282C
:1040F00004BF002084F8440094F84500FF2804BF62
:10410000002084F84500FFF7CBFB3846494600F015
:1041100077F9002858D1FFF79FFBD4F838A0D4F8DE
:104120003CB0FFF7BDFBDA45C4D102994046FFF72A
:1041300023FD2046FFF7C8F900F032FB0028BED16E
:104140004EF60450CEF200004FF080510160BFF3F4
:104150004F8FBFF36F8FB2E74FF0500080F311889D
:10416000BFF36F8FBFF34F8FFEE700BFA76B226CCB
:10417000D2B19DB3E0683146FCF726F8E168206CC7
:104180002268091A9142E16003D261684042084402
:10419000E060A81EB0FA80F040093946002F18BF31
:1041A000012108403F1A26E02068002520BB6068F6
:1041B00000F076FA656005461EE000BFFFF770FB71
:1041C000002003B0BDE8F08F2046FFF77DF900F036
:1041D000E7FA002003B0BDE8F08F00BFA0683146C9
:1041E000FBF7F2FF216CD4E9012008449042A06063
:1041F00001D32068A0600025781CA06354F8240F28
:10420000A0B1204600F092FA50B14EF60450CEF222
:1042100000004FF080510160BFF34F8FBFF36F8FED
:10422000FFF73EFB012003B0BDE8F08F002DF7D073
:104230004EF60450CEF200004FF080510160BFF303
:104240004F8FBFF36F8FFFF72BFB012003B0BDE84B
:10425000F08F00002DE9F04F83B0029290B1164626
:104260000D460446002949D000F086F9A0B99EB158
:104270004FF0500080F31188BFF36F8FBFF34F8F63
:10428000FEE700BF4FF0500080F31188BFF36F8F3F
:10429000BFF34F8FFEE700BFFFF7DEFAD4F838A078
:1042A000BAF1000F38D0226C52B1E068636881180F
:1042B000E160994224BF2168E1602846FBF784FF52
:1042C000AAF10100A06354F8100F80B1204600F05D
:1042D0002DFA002800F086804EF60450CEF2000041
:1042E0004FF080510160BFF34F8FBFF36F8F0126F6
:1042F000FFF7D6FA304603B0BDE8F08F206C0028F7
:10430000B2D04FF0500080F31188BFF36F8FBFF32E
:104310004F8F00BFFEE700BF002E4FF0000662D0B7
:10432000EB46584604F12408FFF714FC0DF1080988
:10433000FFF7B6FAFFF70EFDFFF78EFA94F8440088
:10434000FF2808BF84F8446094F84500FF2808BFA0
:1043500084F84560FFF7A4FA5846494600F050F843
:1043600060B12046FFF7B0F800F01AFAFFF774FAD0
:10437000A76BFFF795FA1FBB3CE000BFFFF76CFA95
:10438000A76BFFF78DFA2FB12046FFF79DF800F0DD
:1043900007FA15E002994046FFF7EEFB2046FFF7CB
:1043A00093F800F0FDF958B94EF60450CEF2000033
:1043B0004FF080510160BFF34F8FBFF36F8F00BF8D
:1043C000FFF74AFAD4F838A0BAF1000F7FF46BAFC8
:1043D00002980028ACD10026FFF762FA304603B0FD
:1043E000BDE8F08F0126FFF75BFA304603B0BDE869
:1043F000F08F00BF0026304603B0BDE8F08F00000C
:10440000B0B5D8B10D4619B30446FFF725FA40F20E
:10441000700CC2F2000CDCF8182029684B1C21D06B
:10442000D4E9000EDCF83830834221D072451FD326
:104430000124FFF735FA2046B0BD00BF4FF0500011
:1044400080F31188BFF36F8FBFF34F8FFEE700BF7C
:104450004FF0500080F31188BFF36F8FBFF34F8F81
:10446000FEE700BF0024FFF71BFA2046B0BD00BFE7
:10447000A2EB0E0291420DD9881A2860DCF83800B0
:104480002060DCF8180060600024FFF709FA20467D
:10449000B0BD00BF002001242860FFF701FA2046CC
:1044A000B0BD00002DE9F04383B007469000984668
:1044B00015468946FFF742F8F8B106465C20FFF73B
:1044C0003DF8B8B10446DDE90A100022266384F8FD
:1044D0005920CDE90010384649462A464346029401
:1044E000FEF78EFD2046FEF701FC012003B0BDE87B
:1044F000F08300BF3046FFF7EBF94FF0FF3003B019
:10450000BDE8F08370B586B00B9CBCB10C9EFEB1CB
:104510005C250495049D5C2D24D10A9D34630224FE
:1045200086F8594005ACCDE900540296FEF768FDC7
:104530003046FEF7DBFB059806B070BD4FF050002B
:1045400080F31188BFF36F8FBFF34F8FFEE700BF7B
:104550004FF0500080F31188BFF36F8FBFF34F8F80
:10456000FEE700BF4FF0500080F31188BFF36F8F5C
:10457000BFF34F8FFEE7000040F27000C2F2000070
:10458000016900290FBF01204069B0FA80F040099D
:1045900018BF40007047000040F27000C2F20000F7
:1045A000806970472DE9F04381B040F27006C2F295
:1045B0000006706920B1706B00240130706367E001
:1045C000B06910F10109C6F8189020D3F0690068AD
:1045D00050B14FF0500080F31188BFF36F8FBFF3DD
:1045E0004F8F00BFFEE700BFF069316AF1613062B2
:1045F000B06B0130B063F069006828B1F069C06841
:10460000C068406802E000BF4FF0FF30F062F06A1F
:1046100040F6B4388145C2F2000801D200242EE0F1
:10462000F0690024006813E0F86A716A884288BF64
:10463000706200EB800008EB80002946FFF7FEF86F
:10464000F86A3168C96AF269884228BF0124106893
:1046500090B1F069C068C7683D4655F8040F8145C0
:104660000CD32846FFF77AF8B86A0028DCD007F1A7
:104670001800FFF773F8D7E74FF0FF30F0623068AB
:10468000C06A00EB800058F82000012888BF012490
:10469000306B002818BF0124204601B0BDE8F0832C
:1046A00070B588B140F27006C2F200060446306868
:1046B000A0420BD04FF0500080F31188BFF36F8FF2
:1046C000BFF34F8FFEE700BF002070BD206D18B311
:1046D000411EE06AE26C216590424FF0000008BF85
:1046E00070BDC1B9251D2846FFF738F8E06CC0F150
:1046F0003801E062A161716A884240F6B43188BF36
:10470000706200EB8000C2F2000101EB80002946DC
:10471000FFF794F8012070BD4FF0500080F311882E
:10472000BFF36F8FBFF34F8FFEE7000070B5C06817
:10473000C5686DB105F118042046FFF70FF840F287
:104740007006C2F20006706960B106F164001AE0FA
:104750004FF0500080F31188BFF36F8FBFF34F8F7E
:10476000FEE700BF2C1D2046FEF7F8FFE86A716ADD
:10477000884240F6B43188BF706200EB8000C2F21C
:10478000000101EB80002146FFF758F8E86A316824
:10479000C96A884292BF00200120306370BD0000CA
:1047A0002DE9F04140F27005C2F20005686968B178
:1047B000FFF752F8686901386861686980B10024C0
:1047C000FFF76EF82046BDE8F08100BF4FF05000C3
:1047D00080F31188BFF36F8FBFF34F8FFEE700BFE9
:1047E000E8680028EBD0686E88B340F6B436C2F2B1
:1047F00000064FF0010800BF286FC76807F11800D6
:10480000FEF7ACFF3C1D2046FEF7A8FFF86A696A78
:10481000884288BF686200EB800006EB800021467A
:10482000FFF70CF8F86A2968C96A884228BFC5F8FA
:104830003080686E0028DFD1E869006820B1E8693F
:10484000C068C068406801E04FF0FF30E8626C6B00
:104850004CB10126FFF7A6FE002818BF2E63013CCD
:10486000F8D100206863286B0028A8D04EF60450C9
:10487000CEF200004FF080510160BFF34F8F012452
:10488000BFF36F8FFFF70CF82046BDE8F081000002
:1048900070B586B0FEF7E0FF40F2E806C2F200060F
:1048A000306808BB06F114042046FEF785FF06F1C8
:1048B00028052846FEF780FF40F6C42240F6643300
:1048C000C6E902450025C2F20002C2F200030A2036
:1048D00010210095FFF73AFB306028B144F6A01193
:1048E000C0F60001FFF774F8FEF7DAFF3068D8B1C0
:1048F0000020CDE9040005A804A903AAFEF74EFF95
:10490000DDE903200221059DCDE9001043F2791075
:10491000C0F6000009A100230295FFF7F3FD7060C7
:1049200010B1012006B070BD4FF0500080F3118827
:10493000BFF36F8FBFF34F8FFEE700BF546D722040
:104940005376630000000000000000000102030431
:104950000607080900000000010203040102020327
:104960000405060708090A0B0C0D0E0F10100000B5
:104970009449000800000000000000000000000052
:10498000000000000002000018000000000000000D
:104990000000000064656661756C745461736B009F
:1049A000546D725100000000C8490008000000204A
:1049B0001000000028010008D8490008100000205D
:1049C0004828000044010008010000001000000019
:0849D0000024F400AAAAAAAA1F
:04000005080000ED02
:00000001FF
