:020000040800F2
:10000000988B00209D0100085D630008DD57000803
:1000100059630008F1190008F98F0008000000007A
:100020000000000000000000000000001165000852
:10003000651B00080000000071630008A965000846
:10004000B7010008B7010008B7010008B7010008B0
:10005000B7010008B7010008B7010008B7010008A0
:10006000B7010008B7010008B7010008B701000890
:10007000B7010008B7010008B7010008B701000880
:10008000B7010008B7010008B7010008B701000870
:10009000F5190008011A0008B7010008B7010008A7
:1000A000B7010008B7010008B7010008B701000850
:1000B000B7010008B7010008B7010008B701000840
:1000C000B7010008B7010008B7010008D5630008B0
:1000D000B7010008B7010008B7010008B701000820
:1000E000B7010008B7010008B7010008B701000810
:1000F000B701000885660008B7010008B7010008CD
:10010000B7010008B7010008B7010008B7010008EF
:10011000B7010008B7010008B7010008B7010008DF
:10012000B7010008B7010008B7010008B7010008CF
:10013000B70100080000000000000000B70100083F
:100140000D1A0008191A0008B701000861630008B9
:10015000B7010008B7010008B7010008B70100089F
:10016000B7010008B7010008B7010008B70100088F
:10017000B7010008B70100080000000000000000FF
:10018000B7010008B7010008DFF80CD000F0A0FAB2
:1001900000480047CD910008988B00200648804712
:1001A00006480047FEE7FEE7FEE7FEE7FEE7FEE75C
:1001B000FEE7FEE7FEE7FEE771660008890100083A
:1001C0002DE9F05F0546002092469B46884606468C
:1001D000814640241BE0284641464746224600F01F
:1001E00090F853465A46C01A914110D3114618460A
:1001F000224600F077F82D1A67EB01084F46224699
:100200000120002100F06EF817EB00094E41201E7E
:10021000A4F10104DFDC484631462A464346BDE8E6
:10022000F09F40EA01039B0703D009E008C9121FB1
:1002300008C0042AFAD203E011F8013B00F8013BA0
:10024000521EF9D27047D2B201E000F8012B491ECC
:10025000FBD270470022F6E710B513460A46044663
:100260001946FFF7F0FF204610BD30B40446962330
:100270000800214604D0B62330BC002200F05AB852
:1002800020460021F8E700F0004230F000400AD09C
:10029000C10D01F56071C0F3160042EA0151C208B8
:1002A00040071143704700200146704701F00043AA
:1002B00030B421F0004150EA010206D00A0DA2F547
:1002C0006072C1F31301002A02DC30BC00207047C9
:1002D000440F44EAC104C100E01830BC00EBC25036
:1002E00000F01FB8202A04DB203A00FA02F10020B7
:1002F00070479140C2F1200320FA03F31943904064
:100300007047202A04DB203A21FA02F000217047CE
:1003100021FA02F3D040C2F120029140084319466D
:1003200070470029A8BF7047401C490008BF20F053
:100330000100704710B4B0FA80FC00FA0CF050EAEB
:10034000010404BF10BC704749B1CCF1200421FA6C
:1003500004F411FA0CF118BF012121430843A3EB67
:100360000C01CB1D4FEA00614FEA102042BF002074
:1003700010BC704700EBC35010440029A4BF10BC50
:100380007047401C490008BF20F0010010BC7047B6
:100390002DE9FE4F804681EA0300C00F0C46009015
:1003A00021F0004123F00045B8EB0200A94105D23D
:1003B0004046214690461C460B46024623F000402C
:1003C000104347D0270DC7F30A00C3F30A51029028
:1003D000401A019040286BDAC3F3130040F4801BED
:1003E0000098924620B10023D2EB030A63EB0B0B7B
:1003F00001985946C0F140025046FFF773FF064688
:100400000D4650465946019A00F074F910EB080069
:100410006141002487EA115284EAE7731A4340D00D
:10042000009A62B3019A012A4FEA075215DC001BB9
:1004300061EB02014FF0004202EA0752CDE90042AF
:10044000001C41F5801132462B4600F074F903B0D0
:10045000BDE8F08F40462146F9E7001B61EB020141
:10046000001C41F5801300185B412018A2F500170D
:1004700047EB030140EAD570B6196D4111E06D08F4
:100480004FEA360645EAC0754FEA0752001B61EB9A
:100490000201001C41F5801149084FEA30000019A3
:1004A000514132462B4603B0BDE8F04F00F034B95D
:1004B0000098012240000023D0EB020263EBE073BE
:1004C000009821464FEAE074B8EB000061EB0401AC
:1004D000E9E783F000435BE781F0004158E72DE94D
:1004E000FE4F81EA030404F0004421F0004100942F
:1004F0004FF0000B23F0004350EA01045ED052EAB3
:1005000003045BD0C3F30A54C1F30A552C44A4F28C
:10051000F3340194A0FB0254C1F3130141F48011A0
:10052000C3F3130343F4801301FB024400FB034EA7
:10053000840A970A44EA815447EA8357A4FB076870
:1005400002958D0A05FB07854FEA932C04FB0C549A
:100550002705029D4FEA065847EA1637B5EB08050E
:100560006EEB070C870E920E47EA811742EA831260
:10057000A7FB0201B6EB0B0164EB00042B0D43EA71
:100580000C335E1844EB1C50DA465146E7FB02017F
:10059000C5F313044FEA0B3343EA14534FEA043212
:1005A000019C43EA0603A4F10C040294009CCDE9EB
:1005B00000B400F0C0F803B0BDE8F08F00200146A1
:1005C000F9E72DE9F04D81EA030404F0004B21F036
:1005D000004514464FF0000A23F0004150EA05029E
:1005E00020D054EA01021DD0C5F30A570246C5F3D4
:1005F0001303C1F31300C1F30A5640F4801543F40A
:100600008013A7EB0608101BD64608F2FD3873EBE3
:10061000050002D308F1010801E092185B41B8F12E
:10062000000F03DA00200146BDE8F08D00204FF4F2
:100630008011064684460EE0171B73EB050705D3B1
:10064000121B63EB050306434CEA010C49084FEA11
:10065000300092185B4150EA0107EDD152EA0300E5
:1006600012D082EA040083EA0501084305D0101B7A
:10067000AB4106D20122002306E000224FF00043E6
:1006800002E06FF0010253101AEB06004CEB085128
:1006900010EB0A0041EB0B01BDE8F04D00F03CB857
:1006A00030B5041E71F1000404DB4FF000444042F9
:1006B00064EB0101141E73F1000405DB1C464FF0CE
:1006C0000043524263EB04038B4208BF824230BDB9
:1006D000064C074D06E0E06840F0010394E807008F
:1006E00098471034AC42F6D3FFF752FD20BF000804
:1006F00040BF0008202A06DBCB17203A41FA02F05F
:1007000043EAE07306E041FA02F3D040C2F120026E
:10071000914008431946704710B5141E73F1000448
:1007200008DA401C41F1000192185B411A4301D1E3
:1007300020F0010010BD2DE9F04D92469B4611B10D
:10074000B1FA81F202E0B0FA80F220329046FFF76F
:10075000C9FD04460F4640EA0A0041EA0B01534630
:100760005A46084313D0114653EA010019D0C8F184
:1007700040025046FFF7C5FD05460E465046594615
:100780004246FFF7AFFD084305D0012004E02046B4
:100790003946BDE8F08D0020054346EAE0762C435B
:1007A00037430A986305E40AA0EB08000022FD0A1B
:1007B00044EA47540A3002D500200146E9E7010522
:1007C00010196941DDE9084500196941BDE8F04D9E
:1007D000A2E72DE9F04D00231A461B1A8A4103DBDC
:1007E00000200146BDE8F08DC1F30A52C1F31301A8
:1007F00041F480154FF0000BD10702D100186D4174
:10080000521E0027044640F2FF11384601EB620AEF
:100810003E468046024600204FF48011FFF771FDEE
:10082000C2197141BB1846EB0100B4EB030C75EB28
:10083000000C04D3E41A65EB000517460E46241994
:1008400008F101006D4180463428E3DDF91946EBDB
:100850000600091BA84103D24FF0FF32134601E006
:10086000002213461BEB070046EB0A51BDE8F04D92
:10087000FFF752BF2DE9F04782B040F20009B821DE
:100880008046C4F20209FFF7E5FC48461021012228
:1008900001F0B2FE48460221012201F0ADFE42F213
:1008A0006C16C2F2000630684FF6FF71C162304626
:1008B00004F000FB306800BF416A09097C290BD8AD
:1008C000416A09097C2907D8416A09097C2903D8AA
:1008D000416AB1F5FA6FEFD3304604F093FB802004
:1008E0008DF8070048461021002208F10407002572
:1008F00001F082FE42F21414C2F200040DF107016D
:1009000020460122642303F007FF204639460122D6
:10091000642303F001FE204639460122642303F0DC
:10092000FBFD48461021012201F066FE4FF6FF74E0
:1009300007E000BF304604F065FB312D05F10105ED
:1009400018D23068C462304604F0B4FA306800BF90
:10095000416A09097C29EDD8416A09097C29E9D84D
:10096000416A09097C29E5D8416AB1F5FA6FEFD3EC
:10097000E0E700BF80208DF80700484610210022E4
:100980004FF0000A01F038FE42F21415C2F20005E1
:100990000DF10701284601226423012403F0BCFE67
:1009A000284639460122642303F0B6FD284639461D
:1009B0000122642303F0B0FD48461021012201F01A
:1009C0001BFE38781E2840F09B827C208DF80700A3
:1009D0004846102100228DF806A001F00DFE42F2DB
:1009E0001414C2F200040DF1070120460122642311
:1009F00003F092FE204603F05DFC0228FAD042F29A
:100A00001414C2F200040DF10601204601226423F1
:100A100003F082FE204603F04DFC0228FAD048463F
:100A20001021012201F0E8FD00244FF6FF7506E0D9
:100A3000304604F0E7FA312C04F1010418D2306892
:100A4000C562304604F036FA306800BF416A0909D1
:100A50007C29EDD8416A09097C29E9D8416A09094C
:100A60007C29E5D8416AB1F5FA6FEFD3E0E700BF22
:100A700004208DF806007D208DF8070048461021DF
:100A8000002201F0B9FD42F21414C2F200040DF18B
:100A9000070120460122642303F03EFE204603F0B6
:100AA00009FC0228FAD042F21414C2F200040DF13B
:100AB000060120460122642303F02EFE204603F0A7
:100AC000F9FB0228FAD048461021012201F094FDDA
:100AD000AB208DF8060040208DF807004846102115
:100AE000002201F089FD42F21414C2F200040DF15B
:100AF000070120460122642303F00EFE204603F086
:100B0000D9FB0228FAD042F21414C2F200040DF10B
:100B1000060120460122642303F0FEFD204603F077
:100B2000C9FB0228FAD048461021012201F064FDD9
:100B300000208DF8060041208DF80700484610215E
:100B4000002201F059FD42F21414C2F200040DF12A
:100B5000070120460122642303F0DEFD204603F056
:100B6000A9FB0228FAD042F21414C2F200040DF1DB
:100B7000060120460122642303F0CEFD204603F047
:100B800099FB0228FAD048461021012201F034FDD9
:100B900008208DF8060053208DF8070048461021E4
:100BA000002201F029FD42F21414C2F200040DF1FA
:100BB000070120460122642303F0AEFD204603F026
:100BC00079FB0228FAD042F21414C2F200040DF1AB
:100BD000060120460122642303F09EFD204603F017
:100BE00069FB0228FAD048461021012201F004FDD9
:100BF00004208DF8060058208DF807004846102183
:100C0000002201F0F9FC42F21414C2F200040DF1CA
:100C1000070120460122642303F07EFD204603F0F5
:100C200049FB0228FAD042F21414C2F200040DF17A
:100C3000060120460122642303F06EFD204603F0E6
:100C400039FB0228FAD0484610210122012401F084
:100C5000D3FC80208DF8070048460221002288F846
:100C6000064008F105050224002701F0C5FC42F208
:100C70001416C2F200060DF107013046012264236A
:100C800003F04AFD304629460122642303F044FC68
:100C900048460221012201F0AFFC98F805000F2818
:100CA00040F02E810F208DF80700484602210022D7
:100CB0008DF8067001F0A0FC42F21414C2F2000498
:100CC0000DF1070120460122642303F025FD00BF3A
:100CD000204603F0EFFA0228FAD042F21414C2F2CE
:100CE00000040DF1060120460122642303F014FDE7
:100CF000204603F0DFFA0228FAD0484602210122FA
:100D000001F07AFC82208DF8060010208DF8070093
:100D100048460221002201F06FFC42F21414C2F294
:100D200000040DF1070120460122642303F0F4FCC6
:100D3000204603F0BFFA0228FAD042F21414C2F29D
:100D400000040DF1060120460122642303F0E4FCB7
:100D5000204603F0AFFA0228FAD0484602210122C9
:100D600001F04AFC00208DF8060011208DF80700E4
:100D700048460221002201F03FFC42F21414C2F264
:100D800000040DF1070120460122642303F0C4FC96
:100D9000204603F08FFA0228FAD042F21414C2F26D
:100DA00000040DF1060120460122642303F0B4FC87
:100DB000204603F07FFA0228FAD048460221012299
:100DC00001F01AFC80208DF8060015208DF8070030
:100DD00048460221002201F00FFC42F21414C2F234
:100DE00000040DF1070120460122642303F094FC66
:100DF000204603F05FFA0228FAD042F21414C2F23D
:100E000000040DF1060120460122642303F084FC56
:100E1000204603F04FFA0228FAD048460221012268
:100E200001F0EAFB00208DF8060016208DF807007F
:100E300048460221002201F0DFFB42F21414C2F204
:100E400000040DF1070120460122642303F064FC35
:100E5000204603F02FFA0228FAD042F21414C2F20C
:100E600000040DF1060120460122642303F054FC26
:100E7000204603F01FFA0228FAD048460221012238
:100E8000012401F0B9FB18208DF807004846022123
:100E900000228DF8064001F0AFFB42F21414C2F2BA
:100EA00000040DF1070120460122642303F034FC05
:100EB000204603F0FFF90228FAD042F21414C2F2DD
:100EC00000040DF1060120460122642303F024FCF6
:100ED000204603F0EFF90228FAD048460221012209
:100EE000012401F089FB9FED080ADFED080A9FED60
:100EF000081A08F1680088F8074005F089F800240E
:100F0000204602B0BDE8F087CDCC4C3E000000008A
:100F10000000FA432DE9F0412DED068B84B0044624
:100F200040F200080020C4F20208ADF80800019069
:100F300092208DF80D0040461021002201F05CFB4C
:100F400042F21416C2F200060DF10D0130460122E4
:100F5000642303F0E1FB01AF3046394601226423EC
:100F600003F0DAFA304639460622642303F0D4FA55
:100F700040461021012201F03FFBBDF90400BDF9FC
:100F8000061000EE100A9FED821AB8EEC00ABDF9F5
:100F9000082020EE018A00EE101AB8EEC00A20EEFA
:100FA00001AA00EE102A8220B8EEC00A8DF80E00C9
:100FB00040460221002220EE019A01F01DFB0DF1B6
:100FC0000E0130460122642303F0A6FB3046394669
:100FD0000622642303F0A0FA40460221012201F018
:100FE0000BFBBDF90400BDF9061000EE100A9FEDE1
:100FF000691AB8EEC00ABDF9082020EE012A00EEF9
:10100000101AB8EEC00A20EE013A00EE102A20783D
:10101000B8EEC00A20EE015AC0B194ED270A94ED53
:10102000281A94ED294A32EE400A33EE411A35EE81
:10103000442A84ED028A84ED03AA84ED049A84EDA7
:10104000050A84ED061A84ED072A4CE0608884EDD9
:10105000028AB0F57A7F84ED03AA84ED049A19D947
:1010600094ED270A94ED281A94ED294A32EE000AED
:1010700033EE011A35EE044A84ED052A84ED063A72
:1010800084ED075A84ED270A84ED281A84ED294A55
:1010900012E000BF94ED270A94ED281A94ED294A36
:1010A00032EE402A33EE413A35EE445A84ED052AB9
:1010B00084ED063A84ED075A6088013081B2B1F5BB
:1010C000FA6F60800FD39FED342A012080EE020A70
:1010D00081EE021A84EE022A207084ED270A84ED44
:1010E000281A84ED292AA2208DF80F0040461021ED
:1010F0000022002501F080FA42F21416C2F2000626
:101100000DF10F0130460122642303F005FB01AF0E
:10111000304639460122642303F0FEF93046394651
:101120000222642303F0F8F940461021012201F065
:1011300063FA9DF804009DF80510C00040EA5110C4
:101140004FF60001CFF6FF71B5EB902F18BF0843A3
:1011500000EE100AB8EEC00AB4EE001A20EE010A42
:10116000B3EE071A04F1080030EE010AD0EC031ABE
:1011700004F1140084ED2D0A90EC030A04F16800D8
:1011800004F052FF04B0BDEC068BBDE8F08100BF57
:10119000E7416B3A58A08B3A0000FA44F0B58BB0A7
:1011A00041F2247EC2F2000E0EEBC0173B4633F82C
:1011B000104F4FF0000CB4F5006F4FF0000400F03A
:1011C000B8813B4633F8124FB4F5006F02D10124C9
:1011D000AFE100BF3B4633F8144FB4F5006F01D1C7
:1011E0000224A6E13B4633F8164FB4F5006F01D157
:1011F00003249EE13B4633F8184FB4F5006F01D14C
:10120000042496E13B4633F81A4FB4F5006F01D140
:1012100005248EE13B4633F81C4FB4F5006F01D135
:10122000062486E13B4633F81E4FB4F5006F01D12A
:1012300007247EE13B4633F8204FB4F5006F01D11F
:10124000082476E13B4633F8224FB4F5006F01D114
:1012500009246EE13B4633F8244FB4F5006F01D109
:101260000A2466E13B4633F8264FB4F5006F01D1FE
:101270000B245EE13B4633F8284FB4F5006F01D1F3
:101280000C2456E13B4633F82A4FB4F5006F01D1E8
:101290000D244EE13B4633F82C4FB4F5006F01D1DD
:1012A0000E2446E13B4633F82E4FB4F5006F01D1D2
:1012B0000F243EE13B4633F8304FB4F5006F01D1C7
:1012C000102436E13B4633F8324FB4F5006F01D1BC
:1012D00011242EE13B4633F8344FB4F5006F01D1B1
:1012E000122426E13B4633F8364FB4F5006F01D1A6
:1012F00013241EE13B4633F8384FB4F5006F01D19B
:10130000142416E13B4633F83A4FB4F5006F01D18F
:1013100015240EE13B4633F83C4FB4F5006F01D184
:10132000162406E13B4633F83E4FB4F5006F01D179
:101330001724FEE03B4633F8404FB4F5006F01D16F
:101340001824F6E03B4633F8424FB4F5006F01D164
:101350001924EEE03B4633F8444FB4F5006F01D159
:101360001A24E6E03B4633F8464FB4F5006F01D14E
:101370001B24DEE03B4633F8484FB4F5006F01D143
:101380001C24D6E03B4633F84A4FB4F5006F01D138
:101390001D24CEE03B4633F84C4FB4F5006F01D12D
:1013A0001E24C6E03B4633F84E4FB4F5006F01D122
:1013B0001F24BEE03B4633F8504FB4F5006F01D117
:1013C0002024B6E03B4633F8524FB4F5006F01D10C
:1013D0002124AEE03B4633F8544FB4F5006F01D101
:1013E0002224A6E03B4633F8564FB4F5006F01D1F6
:1013F00023249EE03B4633F8584FB4F5006F01D1EB
:10140000242496E03B4633F85A4FB4F5006F01D1DF
:1014100025248EE03B4633F85C4FB4F5006F01D1D4
:10142000262486E03B4633F85E4FB4F5006F01D1C9
:1014300027247EE03B4633F8604FB4F5006F01D1BE
:10144000282476E03B4633F8624FB4F5006F01D1B3
:1014500029246EE03B4633F8644FB4F5006F01D1A8
:101460002A2466E03B4633F8664FB4F5006F01D19D
:101470002B245EE03B4633F8684FB4F5006F01D192
:101480002C2456E03B4633F86A4FB4F5006F01D187
:101490002D244EE03B4633F86C4FB4F5006F01D17C
:1014A0002E2446E03B4633F86E4FB4F5006F01D171
:1014B0002F243EE03B4633F8704FB4F5006F01D166
:1014C000302436E03B4633F8724FB4F5006F01D15B
:1014D00031242EE03B4633F8744FB4F5006F01D150
:1014E000322426E03B4633F8764FB4F5006F01D145
:1014F00033241EE03B4633F8784FB4F5006F01D13A
:10150000342416E03B4633F87A4FB4F5006F01D12E
:1015100035240EE03B4633F87C4FB4F5006F01D123
:10152000362406E03B4633F87E4FB4F5006F37D1E2
:10153000372419800121CDE9071C21EA9401059186
:101540000E210A9104F03C0107F1100303EB410264
:1015500033F8111056884D01029575010195928856
:1015600044F0030533F81530FF68550104955D011B
:1015700007EB940782F4006283F40063069786F415
:1015800000671A4381F400613A43C0011143039597
:1015900018BF01215EF80000099101A900F07EFB4F
:1015A0000BB0F0BD2DE9F04389B041F22477C2F2CF
:1015B00000073A6804468242884607D0D7F8800080
:1015C000A04225D009B0BDE8F08300BF6A4607AB52
:1015D0002046414600F0D4FBB86841680029EDD0B0
:1015E00000210DF11C09002506E000BFB868013597
:1015F0004268E9B28A42E1D907F0C8FD0668002EC8
:10160000F4D00099049B00204A46B047EEE700BFA3
:101610006A4607AB2046414600F0B2FBD7F8880087
:1016200041680029CED0002107AC002507E000BFAB
:10163000D7F8880001354268E9B28A42C2D907F07A
:10164000A5FD0668002EF3D00099049B01202246D8
:10165000B047EDE710B541F2247441F63830C2F2DC
:101660000004C2F2000020600020E060042007F0C7
:101670004FFDA06041F66030C2F20000C4F8800067
:101680000E20C4F88C00042007F042FDC4F8880046
:1016900020684FF00821C4E90411C4E90611C4E927
:1016A0000811C4E90A11C4E90C11C4E90E11C4E916
:1016B0001011C4E91211C4E91411C4E91611C4E9E6
:1016C0001811C4E91A11C4E91C11C4E91E11C4E9B6
:1016D0002411C4E92611C4E92811C4E92A11C4E976
:1016E0002C11C4E92E11C4E93011C4E93211C4E946
:1016F0003411C4E93611C4E93811C4E93A11C4E916
:101700003C11C4F8F810C4F8FC1000F035FE206855
:10171000022100F059FA2068102100F055FAD4F89F
:10172000800000F029FED4F88000022100F04CFA7D
:10173000D4F880001021BDE8104000F045BA000048
:1017400080B582B041F22472C2F2000202EBC010F6
:101750008068019101A907F0F7FC02B080BD00008C
:1017600070B586B00546002014460091CDE9020010
:10177000049300F0F1F841F22471C2F2000101EB90
:10178000C515861C286800F095FB40B900F0E4F808
:10179000B042F7D92868072100F0EAF900BF2868AD
:1017A0002B1D6946224600F027FA06B070BD0000E6
:1017B0002DE9F04381B042F2F439C2F20009484603
:1017C0008021FEF747FD42F27448C2F2000840460D
:1017D0008021FEF73FFD41F6883600274FF0FF34A9
:1017E000C2F20006651C680081B2304601220A235D
:1017F00000F0CAFFB0FA80F04009074409EB040189
:101800007F2D2C464870EDD140F21029C2F200091C
:1018100041F6DC3589F8007000274FF0FF34C2F242
:10182000000500BF661C700081B2284601220A2311
:1018300000F0AAFFB0FA80F04009074408EB040169
:101840007F2E34464870EDD189F8017001B0BDE8B3
:10185000F083000042F64421C2F200010A6882428D
:1018600006D18B6823B1002000210022184700BF59
:10187000CA68824206D14B6923B1012000210022AF
:10188000184700BF8A69824206D10B6A23B1022041
:1018900000210022184700BF4A6A824206D1CB6A63
:1018A00023B1032000210022184700BF0A6B8242A7
:1018B00006D18B6B23B1042000210022184700BF02
:1018C000CA6B824206D14B6C23B105200021002255
:1018D000184700BF8A6C824208D10B6D002B08BFED
:1018E0007047062000210022184700BF7047000003
:1018F00080B50820052107F0F5FB40F22071C2F207
:101900000001086080BD0000F0B581B040F2207792
:10191000C2F200073868B8B18168A9B107F0BEFB10
:1019200004464068256886B22846314600F0FEF835
:101930000028F9D1206809F043FC386801B0BDE8FF
:10194000F04007F0B7BB00BF01B0F0BD46F29861B0
:10195000C2F200010860704700F054BE42F26C1001
:1019600040F2F811C2F20000C2F200010022036846
:101970000A600A614A619A6A47F600230132C0F69A
:101980000323B3FBF2F2B7EE001A00EE102AB8EE12
:10199000400A81EE000A81ED010A03F08BBA0000D3
:1019A000B0B542F26C10C2F20000006840F2F815C7
:1019B000C2F20005446AAA68D5E90401944204D23F
:1019C000013041F10001C5E90401090441EA104177
:1019D00014EB004041F10001FEF747FC95ED010AD0
:1019E00001EE100A20EE010A85ED000AAC60B0BDE0
:1019F000FEE7000041F63830C2F2000000F06EBA97
:101A000041F63830C2F2000000F068BA41F66030AA
:101A1000C2F2000000F062BA41F66030C2F200008B
:101A200000F05CBA90B940F2012399420ED1D2F88D
:101A300000C051689368D26841F62400C2F20000E9
:101A4000C0E902C1C0E90432704700BF012808BFE5
:101A5000B1F5007F00D07047D2F800C0516893689C
:101A6000D26841F62400C2F20000C0E909C1C0E911
:101A70000B327047212811D0202822D140F2BC021D
:101A80004879C2F20002D1F800C00B795071887910
:101A9000137190710020C2F800C0704740F2BC0082
:101AA000C2F2000002680A700268120A4A70428894
:101AB0008A70C278CA7002790A7142794A71807953
:101AC00088710020704700000020704710B541F673
:101AD0005C04C2F2000440F62471C2F20001204608
:101AE000002205F0C5F840F22471C2F20001204640
:101AF00005F0B0F8002010BD70B541F65C06054653
:101B0000C2F200060C463046294605F0A3F83046DE
:101B100005F07AF846F29860C2F200000268216887
:101B200028469047002070BD0020704710B541F650
:101B30005C02C2F20002D2F8BC22D2F81432002BAE
:101B40001CBF012010BD41F65C04C2F200040A462D
:101B50000146204605F08CF82046BDE8104005F00F
:101B600015B900007047000072B600BFFEE7000024
:101B700090F82020013A012A1CD8CA0704D0026834
:101B8000936843F0800393608A0704D502689368E2
:101B900043F40043936049075CBF0020704700682E
:101BA0004FF4000200F1080100200B681A430A609C
:101BB000704700BF00F1240101204FF480220B6820
:101BC0001A430A607047000090F82020013A012A69
:101BD00008D8006800F1140200201368194311604E
:101BE000704700BF00F1240201204FF480211368E8
:101BF000194311607047000010B590F820E0D0F84C
:101C000000C0AEF1010EBEF1010FDCF808E00FD804
:101C10001EF0E05F16D0CEF3016E012000FA0EF048
:101C200018608B68C3B1486843EAC00316E000BF80
:101C300000F1240101204FF480220B681A430A604E
:101C400010BD00BF00F1240101204FF400120B6809
:101C50001A430A6010BD00BF08684305D1E90304B8
:101C600003430CEB0E10C0F88031C0F88441097DAD
:101C7000012905D100F5C2710B6843F480730B6034
:101C80005168C0F88C11126800F5C071C0F8882145
:101C9000002001220B681A430A6010BDB0B590F80D
:101CA0002020013A012A2FD846F20060C4F2000039
:101CB000026842F001020260026822F47C52026073
:101CC000D1F814E0CC694A6A0368012C43EA022285
:101CD00002600EF01F024FF0010303FA02F2C36923
:101CE0006FEA020C23EA0203C36113D02CBBC36862
:101CF00003EA0C03C360CB688C8844EA034300EB1F
:101D0000CE0423640B4611E0416A41F48021416214
:101D10000120B0BDC3681343C3600B688C8844EADC
:101D2000034300EBCE04236401F10C038C681B8891
:101D300043EA044300EBCE04636443688D6943EADD
:101D40000204D1F810E0096A002D08BF03EA0C0470
:101D500044604369BEF1000F43EA020408BF03EA8E
:101D60000C040129446102D1C1691143C1610168B8
:101D700021F0010101600020B0BD000070470000AB
:101D800010B590F82040013C012C7BD8D0F800C061
:101D9000002900F08180DCF81040A40700F0818069
:101DA0000CEB011CDCF8B0410CF5D87E14F00404F7
:101DB0009460DCF8B04119BFE4085460640D14600D
:101DC000DEF800400CF5DA7E04F00204D460DCF8A2
:101DD000B44124075ABFDEF8004004F00F04082481
:101DE0001461DEF800400029C4F307249461DEF892
:101DF00000404FEA14445461DCF8B8211A700268BC
:101E000002EB0112D2F8B8214FEA12225A7002688E
:101E100002EB0112D2F8B8214FEA12429A7002681E
:101E200002EB0112D2F8B8214FEA1262DA700268AE
:101E300002EB0112D2F8BC211A71026802EB011206
:101E4000D2F8BC214FEA12225A71026802EB011249
:101E5000D2F8BC214FEA12429A71026802EB0112D9
:101E6000D2F8BC214FEA1262DA71006814BF00F1A7
:101E7000100100F10C01002020220B681A430A60B7
:101E800010BD00BF00F1240101204FF480220B6837
:101E90001A430A6010BD00BFDCF80C40A4077FF4B1
:101EA0007FAF00F1240101204FF400120B681A43A8
:101EB0000A6010BD90F820100139012984BF00206C
:101EC00070470068816882688068C1F38061C2F3EE
:101ED000C0621144C0F30070084470472DE9F04F10
:101EE00081B0044600684669D0F804908768D0F84D
:101EF0000CB0D0F810A0D0F81880F10704D100255C
:101F000030071DD424E000BFF90710D00121BA0723
:101F1000816009D4780700F1AF80380700F1B680FE
:101F2000204600F057FA02E0204600F055FA00255E
:101F3000F80500F18780F80300F1B180300707D57C
:101F40001BF0100004D0206845F400751021C1601A
:101F5000700708D51BF0080005D020680821C16073
:101F6000204600F0FBF9B00706D52068C06880075E
:101F700002D0204600F0F4F9700607D51AF01000E0
:101F800004D0206845F4806510210161B00608D5B1
:101F90001AF0080005D0206808210161204600F0F1
:101FA000E3F9F00606D520680069800702D02046D4
:101FB00000F0DCF9B00308D519F0100005D0206856
:101FC00010214160204600F0D5F9F00308D519F042
:101FD000080005D0206808214160204600F006FA7C
:101FE000300440F19B805FEA497040F1948006F430
:101FF000807008EA102028435FEA8871014648BFD4
:1020000041F00201B20558BF01465FEA48700D4633
:1020100048BF45F00405700558BF0D46300540F136
:102020007A8018F0700000F07680103800090528DA
:102030006CD8DFE800F003595D61656945F008057B
:1020400064E000BF20684FF48071BA0581600BD452
:10205000780515D438051DD4204600F0BFF9F803E3
:102060007FF56CAF1BE000BF204600F0B9F9F80324
:102070007FF564AF13E000BF4FF4006558E700BF81
:1020800005F50055F8037FF559AF08E04FF480558A
:102090004EE700BF05F58045F8037FF54FAF206898
:1020A0004FF48031BA0381600AD4780310D4380326
:1020B00014D4204600F096F930073FF541AF47E7CA
:1020C000204600F091F930073FF53AAF40E700BFF6
:1020D00005F5004530073FF533AF39E705F58035A5
:1020E00030073FF52DAF33E745F010050EE000BF98
:1020F00045F020050AE000BF45F0400506E000BFBE
:1021000045F0800502E000BF45F4807520688169D4
:1021100021F07001816120680421416055B1606A3D
:1021200040EA05012046616201B0BDE8F04FFFF7CB
:1021300025BE00BF01B0BDE8F08F0000B0B5C8B14A
:10214000044690F8200010B9204600F071F820688D
:10215000016841F00101016000F054FA054600BF3A
:1021600020684168C90707D100F04CFA401B0B28D2
:10217000F6D312E00120B0BD016821F00201016038
:1021800000F040FA054600BF2068416889070DD578
:1021900000F038FA401B0B28F6D3606A052140F4A2
:1021A00000306062012084F82010B0BD217E0268FA
:1021B000012922F0800208BF80320260617E02683D
:1021C000012922F0400208BF40320260A17E02686D
:1021D000012922F0200208BF20320260E17E02685D
:1021E000012922F0100218BF10320260217F02681C
:1021F000012922F0080208BF08320260617F0268EC
:10220000012922F0040208BF04320260D4E901C2AD
:10221000D4E9033561691A432A431143ACF1010241
:102220001143C16100200121606284F82010B0BD1B
:10223000B0B586B0006846F60002C4F20002002184
:102240009042CDE90411CDE90211019130D046F25E
:102250000041C4F2000188427DD140F23C21C2F22B
:1022600000010A6843F64000C4F20200531C0B60F0
:1022700052B900210091016841F0007101600168CC
:1022800001F00071009100990021009150F8101C9C
:10229000152441F0020140F8101C50F8100C1425D0
:1022A00000F00200009000984FF4407033E000BF4F
:1022B00043F64000C4F202000091016841F08061E1
:1022C0000160016801F080610091009940F23C21B9
:1022D000C2F200010A68531C0B6052B90021009140
:1022E000016841F000710160016801F00071009126
:1022F00000990021009150F8101C412441F0020186
:1023000040F8101C50F8100C402500F0020000901E
:1023100000984FF44050019002200290002003905A
:10232000032004900920059040F20040C4F202000E
:1023300001A900F083F828460521002200F052FC94
:10234000284600F03FFC20460521002200F04AFC10
:10235000204600F037FC06B0B0BD0000704700001A
:102360000021FFF71FB90000704700000121FFF7AF
:1023700019B9000070470000B0B5044690F820007D
:1023800001281DD1022084F820002068016821F076
:102390000101016000F036F9054600BF2068406881
:1023A000C00713D000F02EF9401B0B28F6D3606A4B
:1023B00040F400306062052084F820000120B0BDA8
:1023C000606A40F4002060620120B0BD00206062BD
:1023D000B0BD00007047000070470000704700006B
:1023E0007047000070470000704700007047000011
:1023F00090F83510022909D1052180F835100068C0
:10240000016821F0010101600020704780214165D1
:1024100001207047B0B5044600F0F4F8054640F2DC
:102420000C00C2F200000078611C18BF044400BF19
:1024300000F0E8F8401BA042FAD3B0BD2DE9F04F00
:1024400082B000F13E4241F6004502F1FF77C4F24E
:10245000020508224FEAB726A84208BF0722072E26
:1024600038BF4FEAB7224FF0010A002400274FF08F
:102470000008009208E000BF023708F10108202F91
:1024800004F1040400F0B4800E680AFA08F916EAB0
:10249000090FF1D0D1F804A00AF0030BABF101064B
:1024A000012E17D80322866802FA07FECA6826EAB8
:1024B0000E06BA40324382604268CAF3001522EA2F
:1024C000090205FA08F54FEA480C6FEA0E062A439E
:1024D00042600BE00322BA40D643BBF1030FBC4677
:1024E00004D1BC464FF0030B22E000BFC2688D68E8
:1024F000324005FA0CF52A43BBF1020FC26017D136
:102500006FF0030202EA5802024404F01C030F2594
:10251000D2F820E005FA03FA0D692EEA0A0E05FA50
:1025200003F343EA0E031362D1F804A00AF0030B8D
:1025300002680BFA0CF332401A431AF4403F4FF092
:10254000010A026098D0002243F644030192C4F2CB
:1025500002031A6843F6004E42F480421A601A6879
:10256000C4F2010E02F480420192019A28F00302A3
:102570004FF6084C7244CFF6FF7C52F80C3004F052
:102580000C060F25B540AB43009D05FA06F6334314
:1025900042F80C30DEF808204B6842EA090643F6A0
:1025A0000C4CDD0258BF22EA0906CEF80860C4F2DE
:1025B000010CDCF800209D0242EA090658BF22EA1D
:1025C0000906CCF80060DEF804209D0342EA090603
:1025D00058BF22EA0906CEF80460DEF80020DB03CB
:1025E00042EA090658BF22EA0906CEF8006043E72E
:1025F00002B0BDE8F08F0000002A08BF0904816125
:102600007047000046F29C60C2F20000006870470C
:1026100070B5B8B3044690F83D0028B9002084F89E
:102620003C00204600F0B8F9242084F83D002068E2
:10263000016821F001010160016841F4004101607D
:10264000016821F40041016001F018FC48F280416A
:10265000C0F21E0140F60013D4F804E088424FF0A7
:102660000001C0F23D0348F2A16C4FF0000238BFF8
:1026700001219842C0F2010C38BF0122E64538BF63
:102680000A460AB1012070BD4DF68361C4F21B31C8
:10269000A0FB01122168950C4B684FF4967623F04D
:1026A0003F0343EA9243754344F6D3564B60C1F26D
:1026B00062060B6AA5FB0656B50923F03F03E64503
:1026C00038BF950C6A1C1A430A62CA6948F2A066B0
:1026D0004CF6FF73C0F20106B64522EA03020BD89E
:1026E00001384FEA4E03B0FBF3F001306FF31F30B7
:1026F000042898BF04201EE0A368013863B11923A1
:102700000EFB03F3B0FBF3F001306FF31F3078B131
:1027100000F5804008E000BF0EEB4E03B0FBF3F085
:1027200001306FF31F3028B100F5004003E000BF17
:10273000012000E001201043C8610868D4E90723A4
:1027400020F0C000104318430860886848F2FF3248
:1027500004F10C0690434CCE18431043A5698860E1
:10276000C86820F0FF0030432843C860086840F084
:102770000100086000202021206484F83D102063BF
:1027800084F83E0070BD00002DE9F04F83B01E4676
:10279000924688460446FFF735FF94F83D102029FD
:1027A0001CD12168054600BF8869800712D5FFF754
:1027B00029FF401B21681A28F6D388698007F3D5C2
:1027C00000202021206384F83D1084F83E00216C15
:1027D0000226C2E094F83C00012805D102263046CA
:1027E00003B0BDE8F08F00BF4FF0010984F83C90C2
:1027F0000868C00703D1086840F001000860086855
:10280000002720F400600860242084F83D000020A8
:10281000CFF6FF702764E06208F0FE08BAF1010FFE
:1028200088BFD1464FF0A00A4FF0200B04E000BF54
:1028300001374F4500F0A4800868002240F4807002
:10284000086020464FF001113346009502F0C8FFA2
:102850002168002856D1C1F81080FFF7D3FE216807
:102860004B694A6994F83D50A02D054605D013F0F8
:10287000020008BF12F480601AD084F83DB04869A5
:102880000A68800742F400720A6047D46FF48060DF
:10289000486100BF88698007CAD5FFF7B3FE401BB7
:1028A00021681A28F6D388698007F3D54CE000BF69
:1028B000B6B100BFFFF7A6FE401BB04288BF84F848
:1028C0003DA021684A69486994F83D30A02BD4D0D6
:1028D00012F0020208BF10F48060EBD0CDE700BF19
:1028E000FFF790FE84F83DA021684A69486994F892
:1028F0003D30A02BC1D012F00202BED110F4806096
:10290000EED0BAE708680326C00544BF4FF4007054
:102910002064304603B0BDE8F08F00BF0026029669
:1029200048690290886902900298886901E000BFB6
:10293000806980071AD5FFF765FE411B20681A29B8
:10294000F6D381698907F3D500202021206384F81C
:102950003D1084F83E00216C012641F020012164E5
:1029600084F83C00304603B0BDE8F08F202084F8A6
:102970003D0084F83C60304603B0BDE8F08F00BFF6
:10298000202084F83D000020012684F83C003046D9
:1029900003B0BDE8F08F0000B0B586B0006845F622
:1029A0000001C4F2000100248842CDE90444CDE9CD
:1029B0000244019430D045F20041C4F20001884243
:1029C00053D1002443F630050094C4F20205286870
:1029D00001A940F002002860286800F00200009081
:1029E0000098C02001901220CDE902040320049039
:1029F0000420059040F20040C4F20200FFF71EFDE3
:102A00000094286940F400102861286900F400103F
:102A10000090009806B0B0BD43F630050094C4F2B3
:102A20000205286801A940F002002860286800F02B
:102A30000200009000984FF4406001901220CDE910
:102A40000204032004900420059040F20040C4F2E8
:102A50000200FFF7F3FC0094286940F4800028612D
:102A6000286900F480000090009806B0B0BD000016
:102A700040F20C0046F29C61C2F20000C2F200017A
:102A800000780A68104408607047000080B543F67B
:102A90000040C4F20200016841F400710160016865
:102AA00041F480610160016841F48071016003209C
:102AB00000F0C4F80F2000F005F800F061F80020E5
:102AC00080BD000070B586B0002543F64001019539
:102AD000C4F202010A68044642F480720A6009687E
:102AE00001A801F4807101910199694601F0A0F9F2
:102AF000049E002E18BF012601F0C0F94DF6836137
:102B0000B040C4F21B31A0FB01014FF0FF3000EBDD
:102B1000914142F2B41042F20002C2F20000C4F24B
:102B2000000240F2E733C0E90021C0E90253056129
:102B3000856102F075F9054610B1284606B070BDF2
:102B400042F2B410C2F2000002F006FA0546002874
:102B5000F3D12D2000F036F80F2C0DD82D20214672
:102B60000022002500F03EF840F21000C2F2000002
:102B70000460284606B070BD0125284606B070BD29
:102B800082B0002043F640010190C4F202014A687D
:102B900042F480424A604A6802F480420192019AFB
:102BA00000900868002240F08050086008680F21FB
:102BB00000F08050009000986FF0010002B000F02B
:102BC00011B80000002848BF704700F01F01012223
:102BD00002FA01F14EF200124009CEF2000242F870
:102BE0002010704710B54EF60C5CCEF2000CDCF8ED
:102BF0000030C3F3022E8EF00704042C28BF0424F7
:102C0000BEF103034FF0FF3E0EFA04F438BF002379
:102C1000A14399400EFA03F39A43114300F00F02C7
:102C2000043A624409010C3200F16043B0F1FF3F05
:102C3000C8BF03F56442117010BD00004EF60C5180
:102C4000CEF200010A684FF6FF031A4060F30A2231
:102C500042F0806040F0FD700860704770470000EF
:102C600002680020516270472DE9F043D0F80090CF
:102C7000D9F82400A1B1D9F82830B1F1010800EB4E
:102C800013435DD0A8F10100C0B2032808F0030C83
:102C90000ED24FF0010E0027BCF1000F33D14FE0F0
:102CA00040EA0240C9F828000020BDE8F08300BFD8
:102CB00008F0FC0E09F1F404002009F5827500BF4C
:102CC00054F8107F064603EB174046F00103DBB2D1
:102CD00046F0020755F82330FFB255F8277000EB95
:102CE000134000EB174346F00300C0B255F8201024
:102CF000301DC7B2774503EB1143E1D106F1050E54
:102D0000BCF1000F1CD009EB8700D0F80401BCF126
:102D1000010F03EB104313D05FFA8EF009EB800034
:102D2000D0F80401BCF1020F03EB104308D00EF100
:102D30000100C0B209EB8000D0F8040103EB10439E
:102D400043EA024009EB8801C1F804010020BDE814
:102D5000F0830000D0F8E00404F010BB01EBC102E6
:102D6000D0F8E03400EB8200026A184604F06EBA34
:102D700001EBC102D0F8E03400EB8200D0F8602211
:102D8000184604F0BFBA0000D0F8E00404F0F8BA26
:102D900010B50446080601F00F0000EBC00104EB7B
:102DA000810205D402F51571002382F8553203E043
:102DB000012302F11401537594F894240870012A38
:102DC00004BF022010BD2068012284F8942405F07D
:102DD000B7F8002084F8940410BD0000B0B5027963
:102DE000044601F00F00904284BF0120B0BD0906E7
:102DF0000AD400EBC00104EB810202F51571002337
:102E000082F8553208E000BF00EBC00104EB8102FC
:102E1000012302F11401537594F894240025012A2A
:102E20008D70087004BF0220B0BD2068012284F8B4
:102E3000942405F073FB284684F89454B0BD000038
:102E400001F00F0101EBC10100EB8100D0F8680235
:102E500070470000B0B50546080601F00F0000EB12
:102E6000C00105EB810C05D40CF5157100248CF81C
:102E7000554204E001240CF114018CF815404C7803
:102E80000870002C8A600B7118BF4883022B04BFA6
:102E90000020487195F89404012804BF0220B0BDB9
:102EA0002868012285F8942404F0EAFE002085F8C1
:102EB0009404B0BD10B501F00F0404EBC40100EBA5
:102EC000810E4FF0000CCEF868C28EF855C290F813
:102ED00006C0CEF86022CEF86432BCF1010F8EF845
:102EE000544208BFCEF8702200680EF51571624694
:102EF00005F05CFB002010BDB0B50446007901F080
:102F00000F05854284BF0120B0BD08060AD401EB3D
:102F1000C10004EB800000F51571002280F85522F5
:102F200008E000BF05EBC50004EB8000012200F1C2
:102F30001401427594F89404012201288A700D70DE
:102F400004BF0220B0BD206884F8942405F00EFB75
:102F500025B1002084F89404B0BD00BF2068A17999
:102F600004F29C4205F0ACFA002084F89404B0BD51
:102F700080B501F00F0C0CEBCC0100EB810E71461B
:102F800001F814CF4FF0000CC1F814C04FF0010C41
:102F900081F801C090F806C0CA60BCF1010F0B6156
:102FA00008BFCEF830200068624605F0FFFA002026
:102FB00080BD00002DE9F04F8BB0056882462846A1
:102FC00005F002FD10B10BB0BDE8F08FDAF800009B
:102FD00005F028FD0028F6D0D5F80808C0F30D212B
:102FE000DAF80000CAF8D41405F01CFD0146DAF83E
:102FF0000000890703D5416901F00201416105F52F
:103000000061039105F00EFD0146DAF80000C906E3
:1030100005953BD5816921F0100181612C6AC4F3CB
:103020004340062804F00F0518D0022827D147F6A0
:10303000F07014EA000622D005EBC5000AEB800709
:10304000D7F8601234090598224605F0EFFCD7F84E
:10305000600200EB1610C7F8600207E005980AF25C
:103060009C41082205F0E2FCC4F30A1405EBC500FC
:103070000AEB8000D0F868122144C0F86812DAF830
:103080000000816941F010018161059D05F0CAFCD5
:103090000003CDF828A040F1ED80DAF8000005F03B
:1030A0009FFC002800F0E68006460AF29C400AF5E4
:1030B0001D784FF430644FF0000B09901BE000BF07
:1030C0002819022181605FEA8A6042BF2819202105
:1030D00081605FEA8A40DDF828A042BF28194FF4DA
:1030E000005181600BF1010B760804F1200408F116
:1030F000240800F0BF80F007F4D0DAF800005FFA8F
:103100008BF9494605F086FC8246C00762D0281933
:10311000012181600A9F38682118036C8A68BF7991
:10312000012F29D1170735D4970600F19B8012F0A3
:10313000280F4FD143F20B07C4F65477BB4202D39A
:1031400012F400422FD1D8F800200969BBF1000F1A
:103150006FF3DF41A2EB010148F80C1C35D10A9B4B
:10316000D3F86422002A00F08380D3F86002084478
:10317000C3F8600229E000BF43F20B07C4F654779E
:10318000FF37BB4216D110040DD4900644BF202057
:1031900088601AE043F20B00C4F65470834219D3DE
:1031A00012F4004016D04FF4004088605FEA0A70C5
:1031B00013D437E0BBF1000F07D10A99D1F864129C
:1031C00019B90021099A05F07BF90A984946FFF7D9
:1031D000CFFD00BF5FEA0A7024D52819082181605D
:1031E0000A9843F20B020068C4F65472056C20443E
:1031F0008168571EBD4205D911F400411CBF4FF430
:10320000004181600A9800F021FDBD42059D09D969
:103210000A988079012805D10A98099A0068012145
:1032200005F04EF95FEACA6042BF2819102181609B
:103230005FEA8A707FF547AF6869000604D5039995
:10324000486840F48060486018F81D0C01287FF43D
:1032500037AF002008F81D0C0A98494600F046FBDD
:103260002EE700BF202088605FEA0A70B5D4D9E756
:103270000121A7E7DAF8000005F0D4FB039E400324
:1032800040F1DE80DAF8000005F0A2FB002800F033
:10329000D78005F5106104910AF29C414FF0000BB4
:1032A000029104E040080BF1010B00F0C980C10756
:1032B000F8D00690DAF800005FFA8BF1099105F07A
:1032C00097FB049F0446C00728D00BF00F00716BDA
:1032D000012202FA00F021EA0000706307EB4B10B4
:1032E00082609AF80600012814D10BEBCB000AEBA0
:1032F0008000D0E90712BBF1000F1144016209D12F
:10330000DAF8240030B9DAF80000029A012105F059
:10331000D7F800BF09995046FFF720FD200742BFAC
:1033200007EB4B1008218160E00642BF07EB4B1012
:1033300010218160600642BF07EB4B104021816085
:10334000A00715D52846594605F0D0FA0BEBCB005F
:103350000AEB800010F8171F012905D10021017028
:103360000999504600F0BEFA07EB4B10022181602C
:103370002006069896D50BEBCB010AEB8104A146FB
:1033800059F8242FC84658F8047FBA428AD3DAF88D
:10339000005054F81C3FD11B994288BF194608952C
:1033A00005EB4B1CDCF818590331ADB2B5EB910FAE
:1033B00028BFBA4204D8059DBA423FF673AF33E046
:1033C00004F1040ADAF800100CF51065079400BF48
:1033D0000A98D41B9C42867988BF1C46DDE9080206
:1033E000A3B2009605F0CEFDDAF80000E31C011947
:1033F000D8F80000CAF800100719C8F80070AA69C8
:1034000096B2D9F80020B6EB930F28BFBA4203D981
:1034100007980368DCE700BFDDF828A0039EDDE91C
:103420000550BA423FF63EAF089F0BF00F02D7F8A7
:103430003418012303FA02F29143C7F8341831E734
:10344000DAF8000005F0EEFA002823D4DAF80000DC
:1034500005F0E8FA00053AD4DAF8000005F0E2FADF
:10346000C00444D5D5F80408102120F00100C5F8A7
:103470000408DAF8000005F039FA9AF80400002888
:1034800000F0F580411E032900F0030C32D2002128
:103490009CE000BF706820F0010070609AF8CC04D6
:1034A000012807D100208AF8CC0450460021FFF7FC
:1034B000D5FB02E0504600F0ADFBDAF800004169B0
:1034C00001F00041416105F0ADFA0005C4D5B068D6
:1034D000C00702D0504600F0E1FBDAF80000416975
:1034E00001F40061416105F09DFAC004BAD4DAF834
:1034F0000000EAE000F0FC0E05F536634FF6A0563A
:103500004FF6C0554FF6E0544FF6006000214FF6DD
:103510007F37CFF6FF76CFF6FF75CFF6FF74CFF685
:10352000FF7000BFA3F5187297609A59043122F416
:1035300000129A5143F8587C53F8602C8E4522F4BF
:10354000001243F8602C53F8602C42F0006243F8FC
:10355000602CA3F5107297605A5922F400125A5148
:1035600043F8387C53F8402C22F4001243F8402CE6
:1035700053F8402C42F0006243F8402CA3F5087247
:1035800097601A5922F400121A5143F8187C53F824
:10359000202C22F4001243F8202C53F8202C42F067
:1035A000006243F8202CA3F5007297601A5822F4A9
:1035B00000121A509F601A6822F400121A601A68EA
:1035C00042F000621A6003F18003ABD1059D039EB7
:1035D000BCF1000F4BD005F5106000EB41124FF627
:1035E0007F334F019360C65905F5306226F400160B
:1035F000C65102EB4116B360D659BCF1010F26F457
:103600000016D651D65946F00066D651039E2ED0EC
:103610004F1C00EB47157E01AB60855902EB471745
:1036200025F400158551BB609359BCF1020F23F4BA
:1036300000139351935943F000639351039E16D0A6
:10364000023100EB41174FF67F364B01BE60C75881
:1036500027F40017C75002EB41108660039ED05834
:1036600020F40010D050D05840F00060D050F069E5
:1036700040F00110F0619AF80F0048B1D6F88400CC
:1036800040F00B00C6F8840006F1440007E000BFDC
:10369000706942F22B010843706106F11000016865
:1036A0000AF29C4241F00B010160306820F4FE6098
:1036B0003060DAF800009AF8061004F001FFDAF83A
:1036C0000000416901F48051416105F0ABF9014608
:1036D000DAF8000089041AD504F018FBDAF80000C3
:1036E00005F064F9DAF800408AF8070000F0C0FB42
:1036F0009AF807200146204605F0B4FB504600F03A
:1037000073FADAF80000416901F40051416105F0F3
:1037100089F9000706D4DAF8000005F083F90006FD
:103720000DD435E0504600F079FADAF8000041692E
:1037300001F00801416105F075F9000628D50599E9
:10374000886920F0800088619AF8040002281FD35D
:103750000AF27B24012504E00135854204F12404AA
:1037600016D221780129F7D105F00F0000EBC00037
:103770000AEB80022806DAF8000002F1140158BFB3
:1037800002F5157105F022F89AF80400E4E700BF8D
:10379000DAF8000005F046F9C0024FD4DAF800006C
:1037A00005F040F9059D800240F17E809AF8040002
:1037B00002282AD3013805F532610AF51F72012368
:1037C00006E000BF013801F1200102F124021CD003
:1037D0000F681678012EF5D1B7F1FF3FF2DCDAF869
:1037E000D46407F4803706F00106B742EAD102F844
:1037F000013CAF6947F08007AF616F693F06E1D4D4
:103800000399486840F400704860DAF800004169A4
:1038100001F40011416105F005F940004AD5504618
:10382000FFF798FADAF80000416901F08041416140
:1038300005F0F8F840077FF5C6AB42E09AF80400BF
:10384000022825D305990AF13C0501F512640126E9
:10385000012705E001372034874205F1240517D2FE
:1038600021682A78012AF5D1B1F1FF3FF2DC07F097
:103870000F0000EBC0000AEB8001DAF80000143101
:1038800005F8016C04F0A2FF9AF80400E2E700BF1B
:10389000DAF80000416901F48011416105F0C2F8D5
:1038A000059D80023FF582AFDAF8000005F0BAF816
:1038B0004000B4D4DAF8000005F0B4F840077FF512
:1038C00082ABDAF800004468610704D55046FFF780
:1038D0005BFADAF800004168214341600BB0BDE8B3
:1038E000F08F0000D0F8E00403F0A4BDD0F8E004AD
:1038F00003F0B4BDF0B581B0002800F02581044686
:10390000056890F8950428B9002084F894042046AE
:1039100000F02AF90320B5F1A04F84F8950404BF04
:103920000020A071206804F0C3FD94E80F00267CFD
:10393000009604F0FBF9002840F003812068002184
:1039400005F0CAF8002840F0FC802179002900F039
:10395000F180A1F1010C01F0030EBCF1030F4FF057
:10396000000045D301F0FC0504F19A020126002372
:103970005F1C02F8627C22F8487C9F1C02F8863C9F
:1039800022F86C3C02F83E7C22F8247CDF1C0433D5
:1039900002F8856C02F8820C42F87E0C42F87A0C30
:1039A00042F8760C02F8616C02F85E0C42F85A0C90
:1039B00042F8560C42F8520C02F83D6C02F83A0CF0
:1039C00042F8360C42F8320C42F82E0C02F8196C10
:1039D00002F81A7C178002F8160C42F8120C42F812
:1039E0000E0C42F80A0CAB4202F19002C0D118460C
:1039F000BEF1000F2CD000EBC00204EB82050123C6
:103A00000022BEF1010F6B752875E8852A76C5E99D
:103A100007226A621CD0451C05EBC50604EB86062E
:103A2000BEF1020F73753575F5853276C6E907224A
:103A300072620DD0023000EBC00204EB820201235F
:103A40001075D085002053751076C2E907005062CA
:103A500000296FD0BCF1030F4FF0000233D301F007
:103A6000FC0004F5347100235F1C01F8587C9F1C96
:103A700001F87C3C01F8347CDF1C043301F87B2C1A
:103A800001F8782C41E91D2241F86C2C01F8572CE3
:103A900001F8542C41E9142241F8482C01F8332C48
:103AA00001F8302C41E90B2241F8242C01F80F2CAD
:103AB00001F8107C01F80C2C41E9022241F8902B0E
:103AC0008342D1D11A46BEF1000F33D002EBC200BF
:103AD00004EB80010020BEF1010F81F8550281F84E
:103AE000542281F85802C1E99700C1F8640221D03C
:103AF000511C01EBC10304EB8303BEF1020F83F8F9
:103B0000550283F8541283F85802C3E99700C3F8AA
:103B100064020FD0901C00EBC00104EB8101002275
:103B200081F8552281F8540281F85822C1E9972280
:103B3000C1F8642294E80F00277C009704F062FA31
:103B400030B1022084F895040125284601B0F0BD6B
:103B500000250120657484F89504206804F042FA79
:103B6000284601B0F0BD0000B0B586B00068B0F1E5
:103B7000A04F01D006B0B0BD002543F6300401953A
:103B8000C4F20204206801A940F00100206020680E
:103B900000F00100019001984FF4C0500190022004
:103BA000CDE90205032004900A2005900020C4F20C
:103BB0000200FEF743FC6068052140F08000606071
:103BC00000956069002240F480406061606900F403
:103BD0008040009000984320FFF704F84320FEF750
:103BE000F1FF06B0B0BD000010B50446C07928B1A1
:103BF000022818BFFDF7B8FF012100E00021D4F82A
:103C0000E00403F0B1FCD4F8E004BDE8104003F098
:103C10005FBC0000D0F8E00403F08EBCD0F8E004F4
:103C200003F094BC10B5044690F89404012804BF36
:103C3000022010BD012084F894046174206805F00E
:103C4000FFF8002084F8940410BD0000D0F8E024B0
:103C500000F29C41104603F09DBC000010B50446E4
:103C600090F89404012804BF022010BD20680121AF
:103C700084F89414C168490606D5617B012903D1F3
:103C8000816B41F48031816304F028FE206804F0E8
:103C900099F9002084F8940410BD000010B5044682
:103CA000D0F8E00403F0CCFC2068D0F8001E41F00E
:103CB0000101C0F8001EE07A002808BF10BD4EF6D2
:103CC0001050CEF20000016841F00601016010BD05
:103CD0002DE9F041002800F08B8043F60808C4F27B
:103CE00002080446D8F8F8030D4600F007008842A1
:103CF00007D288F8F853D8F8F80300F00700A84274
:103D000076D12068810717D5410705D5D8F800106E
:103D100041F4E051C8F80010010705D5D8F80010AB
:103D200041F46041C8F80010D8F80010A26821F0F2
:103D3000F0011143C8F80010C0073FD1D8F8F803CC
:103D400000F00700A84207D988F8F853D8F8F8031C
:103D500000F00700A8424BD12068410707D5D8F8EA
:103D60000010E26821F4E0511143C8F80010000788
:103D700008D5D8F80000216920F4604040EAC1006D
:103D8000C8F8000000F0A2F8D8F800104BF67862EE
:103D9000C1F30311C0F60002515C40F2300220FA78
:103DA00001F140F21000C2F200000068C2F200020D
:103DB0001160FEF787FE0020BDE8F0816068811E7B
:103DC000022907D258F8081C89015CBF0120BDE810
:103DD000F08111E0012807D158F8081C89035CBF65
:103DE0000120BDE8F08107E058F8081C890703D4DA
:103DF0000120BDE8F08100BFD8F8001021F00301D8
:103E00000843C8F80000FEF7FDFB064641F288377C
:103E1000D8F80000616800F00C00B0EB810F8DD085
:103E2000FEF7F0FB801BB842F2D90320BDE8F08119
:103E30000F22026043F60802C4F20202136803F084
:103E400003034360136803F0F0038360136803F413
:103E5000E053C360D2F800C04FF4E05303EADC0340
:103E60000361D2F8F80300F0070008607047000013
:103E700040F23000C2F200000068704740F23000AB
:103E800043F60801C2F20000C4F2020100680968AA
:103E90004BF68862C1F38221C0F60002515CC84033
:103EA0007047000040F2300043F60801C2F2000003
:103EB000C4F20201006809684BF68862C1F342311E
:103EC000C0F60002515CC8407047000010B543F6D0
:103ED0000404C4F20204606800F00C0142F20040E5
:103EE0000829C0F2F40007D0042918BF10BD41F220
:103EF0000020C0F27A0010BD216801F03F02216865
:103F000023684902C3F3881106D4A1FB00010023F2
:103F1000FCF756F907E000BF41F20020C0F27A003A
:103F20004843B0FBF2F021680222C1F3014102EBE9
:103F30004101B0FBF1F010BD2DE9F04182B0002845
:103F40006AD00446007843F60006C007C4F20206B1
:103F50000BD0B06800F00C00042840F0A18030685D
:103F6000800302D56068002856D0207880071AD5D3
:103F7000B06810F00C0F09D0B06800F00C000828F1
:103F800040F0A8807068400200F1A480306880078B
:103F900002D5E06801283FD13068216920F0F8009F
:103FA00040EAC10030602078000739D4207840070B
:103FB0004ED4A5695DB3B06800F00C00082840F04D
:103FC000BD80012D28D07068E16900F480028A422A
:103FD00022D1216A00F03F028A421DD147F6C0710A
:103FE000626A0140B1EB821F16D1A26A0023CFF6AC
:103FF000FF7303EBC23200F440316FF30F029142C2
:104000000AD1E16A00F07060B0EB016F04D10020CA
:1040100002B0BDE8F08100BF012002B0BDE8F08130
:104020006069002840F20000C4F2472076D00121E8
:10403000C0F8801EFEF7E6FA054600BF706F8007E5
:10404000B4D4FEF7DFFA401B0228F7D9DDE000BF49
:10405000306C10F080580AD100200190306C40F094
:1040600080503064306C00F080500190019847F22D
:104070000007C4F200073868C00541D4386840F42E
:1040800080703860FEF7BEFA054600BF3868C0058C
:1040900036D4FEF7B7FA401B0228F7D9B5E000BFC7
:1040A000B06800F00C00082803D1706840023FF5AA
:1040B00056AF6068B0F5803F07D0B0F5A02F40F054
:1040C0008D80306840F480203060306840F480306B
:1040D00030608DE0E068002852D00020C4F2472014
:1040E00001210160FEF78EFA054600BF30688007A7
:1040F0003FF552AFFEF786FA401B0228F6D984E05E
:10410000A068012805D005284ED1306F40F004008A
:104110003067306F40F0010030674FE00021C0F899
:10412000801EFEF76FFA0546706F80077FF53EAF81
:10413000FEF768FA401B0228F6D966E00027C4F2B1
:10414000472700203866FEF75DFA022D05460BD1A1
:10415000306880015ED5FEF755FA401B02284FF00B
:104160000300F5D954E700BF306880017FF54FAFF9
:10417000FEF748FA401B02284FF00300F4D947E746
:104180000020C4F2472000210160FEF73BFA0546FB
:10419000306880077FF507AFFEF734FA401B02282E
:1041A0004FF00300F4D933E7316F002821F001010B
:1041B0003167316F21F0040131674DD0FEF722FAEB
:1041C000054641F2883700BF306F800756D4FEF7AE
:1041D00019FA401BB842F7D917E000BF3168002830
:1041E00021F480313160316821F4802131604FD079
:1041F000FEF708FA054600BF306880033FF5B5AE0C
:10420000FEF700FA401B6428F6D9032002B0BDE88F
:10421000F08100BF04F11C052FCD08430021CFF62B
:10422000FF7140EA821001EBC3316FF30F0140EAE6
:1042300005600843706001203866FEF7E3F9044624
:10424000306880013FF5E3AEFEF7DCF9001B022881
:104250004FF00300F4D9DBE6FEF7D4F9054641F24E
:10426000883700BF306F800708D5FEF7CBF9401BB9
:10427000B8424FF00300F5D9CAE600BFB8F1000F0D
:104280007FF497AE306C20F08050306491E600BF30
:10429000FEF7B8F9054600BF306880037FF565AECC
:1042A000FEF7B0F9401B64284FF00300F4D9AFE6E5
:1042B0007047000090F8510070470000B0B582B020
:1042C000044600684168826812F0400305D112F08C
:1042D000010518BF11F0400512D1950708D511F05E
:1042E000800505D0616C204602B0BDE8B0400847AB
:1042F00012F4B07F18BF11F0200507D102B0B0BD95
:10430000216C204602B0BDE8B0400847BBB194F82C
:104310005130032B08D100210191C16801918068BF
:104320000190019802B0B0BD636D43F00403636572
:1043300000230193C368019383680193019B12F0EA
:10434000200302F4807203D18AB9626DDAB9D5E72D
:10435000636D43F001036365002301938368019358
:10436000036823F040030360019B002AEDD0626DD7
:1043700042F0080262650022019282680192019A6D
:10438000626D002ABAD04268890722F0E0024260DA
:104390004FF0010284F8512020D0416846F2E13507
:1043A00021F003014160E06CC0F6000538B10565FD
:1043B000FEF71EF818B1606D40F040006065A06C1B
:1043C00000289BD00565FEF713F800283FF496AF50
:1043D000606D40F04000606502B0B0BD204602B0A4
:1043E000BDE8B040FFF764BF70B538B10446406A1D
:1043F00030B10020206104F1140007E0012070BDFD
:104400006068B0F5827F03D004F11C0000210160D8
:104410000026A66294F8510020B9204684F8506026
:1044200000F03CF8022084F8510094E80F0001F4F9
:104430008271056802F4044225F0400505601144CC
:1044400003F400622369114403F00202636911441A
:1044500003F00102A369E569114403F400721144F9
:1044600005F03802256A114405F08002A56A11435F
:1044700005F4005211430160626A042101EA13410C
:1044800002F0100211444160C16921F40061C16170
:104490000120666584F85100304670BD80B586B055
:1044A000016843F20000C4F20100814202D006B06C
:1044B00080BD00BF002143F630020191C4F2020228
:1044C000536900F5504043F480535361536903F43A
:1044D00080530193019B0191136843F00103136022
:1044E000126802F001020192019AE0220192022276
:1044F000CDE90221032104910521059101A9FDF7D0
:104500009DFF232005210022FEF76CFB2320FEF7F0
:1045100059FB06B080BD00002DE9F04381B0044690
:1045200090F85100012811D16068994616460D4651
:10453000B0F5827F01D1A068D0B194F85000012875
:1045400006D10227384601B0BDE8F083022708E013
:10455000012784F85070FEF755F8002D18BF002E83
:1045600014D1002084F85000384601B0BDE8F08333
:10457000042084F85100204629462A463346CDF8C7
:10458000009000F015FA01B0BDE8F08380460420E9
:10459000002184F851006165A563A687E687216341
:1045A000A186E186A2682068B2F5004F21646164AB
:1045B00042D1016821F040010160016821F480418D
:1045C0000160016849063AD5E16800293ED0E18FD3
:1045D00000296FD019F101011BD000BF8168C90704
:1045E00006D1FEF70FF8A0EB0800484508D38DE090
:1045F000C068A16B21F8020BA163E08F0138E0874E
:10460000E08F002856D020688168C907E9D0EFE71D
:1046100020688168C90703D1FDF7F4FF08E000BFF7
:10462000C068A16B21F8020BA163E08F0138E0871D
:10463000E08F0028ECD13DE001684906C4D4016850
:1046400041F040010160E1680029C0D1E18F89B3E8
:1046500019F101011BD000BF8168C90706D1FDF720
:10466000D1FFA0EB0800484509D34FE0007BA16BC8
:104670000870A06B0130A063E08F0138E087E08F05
:10468000C0B120688168C907E9D0EFE72068816878
:10469000C90703D1FDF7B6FF09E000BF007BA16B9E
:1046A0000870A06B0130A063E08F0138E087E08FD5
:1046B0000028EBD16068B0F5827F0ED1A068B0F51C
:1046C000004F02D0B0F5806F0AD12168B0F5806F3D
:1046D0000A6822F040020A6002D12046012101E06E
:1046E0002046802100224B46CDF8008001F07EFE5E
:1046F00028B1606D40F02000606520206065606D2D
:1047000010B101272DE700BF002700E0032701209B
:1047100084F8510025E700002DE9F04184B00446FB
:1047200090F85000012803D1022004B0BDE8F081C8
:1047300001201D4616460F4684F85000FDF762FF23
:1047400094F8511001290DD18046002F4FF001003F
:1047500018BF002E0ED1002184F8501004B0BDE81F
:10476000F08100BF0220002184F8501004B0BDE8A1
:10477000F08100BF0320002184F8510061652763A8
:10478000A686E686A163A187E187A0682164B0F5CB
:10479000004F2068616407D1016821F04001016089
:1047A000016841F4804101600168490603D4016851
:1047B00041F0400101606168731EE268B1FA81F165
:1047C000B3FA83F349095B09B2F5006F41EA0301CB
:1047D0003AD131B137F8021BC1602763E18E01394C
:1047E000E186E18E002969D0691C1AD081688907A9
:1047F00006D4FDF707FFA0EB0800A84208D3D5E0D8
:10480000216B31F8022BC2602163E08E0138E08613
:10481000E08E002852D0206881688907E9D5EFE74B
:1048200020688168890703D4FDF7ECFE08E000BF2B
:10483000216B31F8022BC2602163E08E0138E086E3
:10484000E08E0028ECD139E039B139780173206B62
:1048500001302063E08E0138E086E08E70B3681C82
:104860000BD11BE0216B09780173206B01302063B1
:10487000E08E0138E086E08E00B320688168890709
:10488000F0D4FDF7BFFEA0EB0800A842F3D303204D
:1048900083E000BFFDF7B6FEE08E78B12068816846
:1048A0008907F7D5216B09780173206B01302063EC
:1048B000E08E0138E086E08E0028EFD1204602210C
:1048C00001222B46CDF8008001F090FDD0B1606D43
:1048D00040F02000606520206065A06838B90020A5
:1048E00002902068C1680291806802900298606D11
:1048F000002851D00120002184F8501004B0BDE8F8
:10490000F08100BF40F23000C2F20000006849F6BA
:104910008171C1F25E61A0FB0101480D4FF47A7113
:10492000484303906068B0F5827F0BD12046802118
:1049300000222B46CDF8008001F058FD0028C6D19A
:10494000CBE700BF03980028C7D003980138039035
:10495000206880680006C0D503980028BDD0039861
:1049600001380390206880680006B6D503980028B7
:10497000B3D0039801380390206880680006ACD556
:1049800003980028A9D00398013803902068806814
:104990000006D7D4A1E700BF0020012184F8511000
:1049A000002184F8501004B0BDE8F0810320F4E742
:1049B0002DE9F04383B0044690F85000012803D15C
:1049C000022003B0BDE8F08301201E4615460F46C5
:1049D00084F85000FDF716FE94F851108146012925
:1049E00012D06068B0F5827F40F0A480A0680028F3
:1049F0004FF0020008BF042906D0002184F85010AF
:104A000003B0BDE8F08300BF002F4FF0010018BFD6
:104A1000002DF2D0002EF0D094F85100002104288F
:104A20001CBF052084F851006165A563E687A68751
:104A30002763E6862068A6862164616401684906CA
:104A400003D4016841F0400101606168731EE268AF
:104A5000B1FA81F1B3FA83F3DDF8288049095B09E3
:104A6000B2F5006F41EA03016CD131B137F8021B96
:104A7000C1602763E08E0138E086012518F101004E
:104A800031D101E0FDF7BEFDE08E18B9E08F0028BE
:104A900000F0C0802068816889070CD5E18E51B193
:104AA000012D08D1216B002531F8022BC260216352
:104AB000E18E0139E1868168C907E3D0E18F0029E1
:104AC000E0D0C068A16B012521F8020BA163E08F43
:104AD0000138E087D6E700BFFDF794FDA0EB0900A1
:104AE000404580F0AD80E08E18B9E08F002800F0DE
:104AF00091802068816889070CD5E18E51B1012D24
:104B000008D1216B002531F8022BC2602163E18EB0
:104B10000139E1868168C907DED0E18F0029DBD049
:104B2000C068A16B012521F8020BA163E08F013859
:104B3000E087D1E70220002184F8501003B0BDE8DF
:104B4000F08300BF39B139780173206B01302063E5
:104B5000E08E0138E086012518F1010032D101E034
:104B6000FDF750FDE08E10B9E08F002852D020688C
:104B7000816889070ED5E18E61B1012D0AD1216BC3
:104B8000002509780173216B206801312163E18ED2
:104B90000139E1868168C907E2D0E18F0029DFD0C1
:104BA000C068A16B01250870A06B0130A063E08F85
:104BB0000138E087D4E700BFFDF724FDA0EB090032
:104BC00040453DD2E08E08B9E08F18B32068816877
:104BD00089070ED5E18E61B1012D0AD1216B002527
:104BE00009780173216B206801312163E18E01395D
:104BF000E1868168C907DFD0E18F0029DCD0C06879
:104C0000A16B01250870A06B0130A063E08F013813
:104C1000E087D1E72046022101224346CDF80090EB
:104C200001F0E4FBB0B1606D40F020006065202031
:104C300060650120002184F8501003B0BDE8F083C6
:104C4000012084F851000320002184F8501003B0A3
:104C5000BDE8F08340F23000C2F20000006849F67F
:104C60008171C1F25E61A0FB0101480D4FF47A71C0
:104C7000484302906068B0F5827F21D120468021B0
:104C800000224346CDF8009001F0B0FB0028CAD1C5
:104C9000A06838B9002001902068C168019180683F
:104CA00001900198606D00284FF0010004BF84F866
:104CB00051000020002184F8501003B0BDE8F083BB
:104CC00002980028E4D00298013802902068806899
:104CD0000006DDD502980028DAD00298013802904B
:104CE000206880680006D3D502980028D0D00298AA
:104CF00001380290206880680006C9D50298002813
:104D0000C6D0029801380290206880680006D7D487
:104D1000BEE700007047000070470000B0B590F893
:104D20003C20012A04BF0220B0BD01F108053CCDA2
:104D3000D1E900CE23F47C5322F470521A432EF4AE
:104D4000F0431A432CF4E0431A4324F4C0431A43BB
:104D50002A43C96922F4804203681143596400213F
:104D600080F83C100846B0BD10B590F83C20012AF0
:104D70004FF0020251D080F83D200268D2F804E0E2
:104D8000D2F808C00C682EF07003234341F2FF7480
:104D9000C4F20004A24253600EDC40F2FF73C4F27E
:104DA00000039A4216DCB2F1804F2BD040F2004350
:104DB000C4F2000324E000BF40F2FF33C4F2010359
:104DC0009A4213DC41F60003C4F200039A4219D060
:104DD000002313E040F60003C4F200039A4211D00E
:104DE00040F60043C4F200030AE000BF44F20003AF
:104DF000C4F201039A4205D040F20043C4F2010319
:104E00009A4204D149682CF0800319439160012132
:104E1000002280F83D1080F83C20104610BD0000B4
:104E2000002804BF0120704710B5044690F83D00EB
:104E300028B9002084F83C00204600F01FF802202A
:104E400084F83D002068211D01F02CFC012084F82D
:104E5000460084F83E0084F83F0084F8400084F85F
:104E6000410084F8420084F8430084F8440084F848
:104E7000450084F83D00002010BD000081B00068AE
:104E800041F60041C4F20001884201D001B07047F0
:104E90000020009043F64000C4F20200016841F097
:104EA00080010160006800F080000090009801B06F
:104EB0007047000090F83D1001291CBF0120704789
:104EC000022180F83D10006841F2FF71C4F2000138
:104ED00088420DDC40F2FF71C4F20001884215DC0B
:104EE000B0F1804F2AD040F20041C4F2000123E02B
:104EF00040F2FF31C4F20101884213DC41F60001A7
:104F0000C4F20001884219D0002113E040F60001EC
:104F1000C4F20001884211D040F60041C4F2000101
:104F20000AE000BF44F20001C4F20101884205D04A
:104F300040F20041C4F20101884206D1816801F0CB
:104F40000701062904BF00207047016841F00101F4
:104F5000016000207047000090F83D1001291CBF3F
:104F600001207047022180F83D10006841F2FF7275
:104F7000C168C4F20002904241F00101C1600DDC41
:104F800040F2FF71C4F20001884215DCB0F1804F9D
:104F90002AD040F20041C4F2000123E040F2FF3188
:104FA000C4F20101884213DC41F60001C4F20001A1
:104FB000884219D0002113E040F60001C4F200013C
:104FC000884211D040F60041C4F200010AE000BF5F
:104FD00044F20001C4F20101884205D040F20041D0
:104FE000C4F20101884206D1816801F00701062957
:104FF00004BF00207047016841F0010101600020FA
:10500000704700000146006841F21113026A1A421B
:1050100004D00122002081F83D207047026A40F24E
:1050200044431A42F5D1026822F0010202600122D3
:10503000002081F83D2070477047000070B504469D
:105040000068C5680669B10716D515F0020113D0CE
:105050006FF002010161012121778069800703D08F
:105060002046FFF7E9FF05E0204600F03FF9204623
:1050700000F0ECFA00202077700719D515F0040035
:1050800016D020686FF00401016102212177806948
:1050900010F4407F04D02046FFF7CEFF06E000BFAB
:1050A000204600F023F9204600F0D0FA00202077B7
:1050B000300717D515F0080014D020686FF00801EC
:1050C000016104212177C069800703D02046FFF7E2
:1050D000B3FF05E0204600F009F9204600F0B6FADB
:1050E00000202077F00619D515F0100016D02068A2
:1050F0006FF01001016108212177C06910F4407F31
:1051000004D02046FFF798FF06E000BF204600F0DD
:10511000EDF8204600F09AFA00202077F00718BF3B
:1051200015F0010002D1300609D412E020686FF0BA
:1051300001010161204600F08BFA300609D515F017
:10514000800006D020686FF0800101612046FFF7E3
:10515000E1FD700609D515F0400006D020686FF01B
:1051600040010161204600F083FAB00658BF70BDCF
:1051700015F0200008D021686FF0200220460A6157
:10518000BDE87040FFF7C8BD70BD0000F0B587B046
:10519000006840F6FF31C4F2000188424FF0000180
:1051A0000691CDE90411CDE9021125DCB0F1804F63
:1051B0004CD040F20041C4F20001884240F094809B
:1051C000002043F630010190C4F202010A6842F067
:1051D00002020A60096801F002010191019930217F
:1051E00002910221CDE90310CDE905010020C4F2AE
:1051F000020000F5806074E040F60041C4F2000156
:10520000884255D040F20041C4F2010188426BD17E
:10521000002043F630010190C4F202010A6842F016
:1052200004020A60096801F00401019101998021DA
:1052300002910221CDE90310059003200690002081
:10524000C4F2020000F500604BE000BF002543F609
:1052500030000195C4F202000168002441F0010110
:1052600001600168C4F2020401F001010191019999
:1052700001950168022641F00201016000680127E2
:1052800000F00200019001984FF40040029002A942
:105290002046CDE9036505950697FDF7CFF8082070
:1052A000CDE90206CDE90455069704F5806018E0C3
:1052B000002043F630010190C4F202010A6842F076
:1052C00001020A60096801F00101019101990121BF
:1052D00002910221CDE90310CDE905010020C4F2BD
:1052E000020002A9FDF7AAF807B0F0BD7047000060
:1052F0002DE9F04190F83C30012B04BF0220BDE8BD
:10530000F0814FEAB202032A00F2FC80DFE802F0EB
:10531000023E7EBE036840F200471C6A1A6A24F00F
:10532000020422F001021A621A46D3F804E052F88D
:1053300018CF8E6843F48065C4F20107BD4244EA89
:10534000060405D1CE6824F00C0426F0040634438C
:105350000E68BD4207D1D1E905572EF4407E45EADB
:105360000E0545EA070E2CF073073743C3F804E037
:105370009F614F6809695F631C629F6947F0080776
:105380009F619F6927F004079F61B1E0036840F2C5
:1053900000481C6A1A6A24F0200422F010021A62E3
:1053A0001A46D3F804E052F818CF8F6843F48065AA
:1053B000C4F20108454544EA071407D1CF686FF0ED
:1053C000400624F0C00406EA071634430F6845453A
:1053D00007D1D1E905562EF4406E4EEA850545EA1F
:1053E000860E2CF4E64646EA0727C3F804E09F61E0
:1053F0004F6809699F631C629F6947F400679F615A
:105400009F6927F480679F6171E000BF036840F2E5
:1054100000481C6A1A6A24F4007422F480721A622A
:105420001A46D3F804E052F81CCF8F6843F4806525
:10543000C4F20108454544EA072408D1CF6840F288
:10544000FF463F0224F4406427EA060634430F680F
:10545000454507D1D1E905562EF4405E4EEA0515C3
:1054600045EA061E2CF073063743C3F804E0DF61FB
:105470004F680969DF631C62DF6947F00807DF6175
:10548000DF6927F00407DF6132E000BF036840F204
:105490000045D3F820C01A6A43F4806722F4805292
:1054A0001A621A465C6852F81CEFD1F800808E68C8
:1054B000C4F20105AF4204D14D6924F4804444EAAA
:1054C00085142CF4005747EA06372EF4E64646EAE0
:1054D00008265C60DE614E6809691E641F62DF6930
:1054E00047F40067DF61DF6927F48067DF61090245
:1054F0001368194311600021002280F83C200846FF
:10550000BDE8F0810121002280F83C200846BDE87A
:10551000F0810000002804BF0120704710B5044648
:1055200090F83D0028B9002084F83C00204600F0A7
:105530001FF8022084F83D002068211D01F0B2F818
:10554000012084F8460084F83E0084F83F0084F887
:10555000400084F8410084F8420084F8430084F855
:10556000440084F8450084F83D00002010BD000090
:1055700080B582B0006840F6FF31C4F20001884275
:105580001ADCB0F1804F3DD040F20041C4F200017E
:10559000884246D10020019043F64000C4F2020048
:1055A000016841F002010160006800F00200019012
:1055B000019802B080BD00BF40F60041C4F2000176
:1055C000884231D040F20041C4F20101884228D122
:1055D0000020019043F64000C4F20200416800221E
:1055E00041F00201416040680F2100F0020001908B
:1055F00001982D20FDF7F6FA2D2002B0BDE880407D
:10560000FDF7E0BA0020019043F64000C4F202002A
:10561000016841F001010160006800F001000190A3
:10562000019802B080BD00BF0020019043F6400009
:10563000C4F20200016841F008010160006800F056
:1056400008000190019802B080BD00007047000082
:1056500010B50446006842F20001C4F2000188421D
:1056600008BFFDF705FA2046BDE81040FCF7F2B888
:1056700070470000002804BF0120704710B50446A1
:1056800090F8410028B9002084F84000204600F03E
:1056900021F8242084F841002068C16821F40051D9
:1056A000C160204601F0A4F82068016921F490410E
:1056B0000161416921F02A014161C16841F4005151
:1056C000C16000202021606484F8411084F84210F9
:1056D000606310BD80B586B0006844F20042C4F239
:1056E000000200219042CDE90411CDE9021101919F
:1056F00028D044F60001C4F20001884240D041F2B3
:105700000001C4F20101884266D1002043F6300155
:105710000090C4F202014A6942F010024A614A69EB
:1057200002F010020092009A0090086840F0010018
:105730000860086800F00100009000984FF4C06015
:1057400019E000BF43F630000091C4F20200026984
:1057500042F400320261026902F400320092009ABF
:105760000091016841F001010160006800F0010052
:10577000009000980C2001900020C4F2020020E06C
:10578000002043F630010090C4F202010A6942F49D
:1057900080220A610A6902F480220092009A009035
:1057A000086840F004000860086800F004000090F9
:1057B00000984FF4406001900020C4F2020000F510
:1057C000006002210291002103910321049107212D
:1057D000059101A9FCF732FE06B080BDFEE700008E
:1057E0002DE9F041054600681E46144601F47F028B
:1057F00001338FB242D0DDF81880B2F5803F40F01F
:10580000878040693840C01BB0FA80F04009A04250
:1058100040F0C8804EB924E040693840C01BB0FA5F
:1058200080F04009A04240F0BD80FCF7EBFEA0EB09
:1058300008012868B142EFD941693940C91BB1FA62
:1058400081F14909A142E7D19BE000BF406938409E
:10585000C01BB0FA80F04009A0424FF0000040F0B9
:10586000A680FCF7CFFE286841693940C91BB1FA10
:1058700081F14909A142E9D183E000BFB2F5803F3F
:1058800024D100BF41693940C91BB1FA81F14909EE
:10589000A14240F0878041693940C91BB1FA81F1CA
:1058A0004909A14240F07E8041693940C91BB1FAE3
:1058B00081F14909A14275D141693940C91BB1FA49
:1058C00081F14909A142DDD06CE000BF8169394016
:1058D000C91BB1FA81F14909A14263D181693940FB
:1058E000C91BB1FA81F14909A1425BD181693940F3
:1058F000C91BB1FA81F14909A14253D181693940EB
:10590000C91BB1FA81F14909A142DFD04AE000BFC9
:1059100080693840C01BB0FA80F04009A04241D1F4
:1059200046B923E080693840C01BB0FA80F04009D6
:10593000A0423BD1FCF766FEA0EB08012868B1420B
:10594000F0D981693940C91BB1FA81F14909A142F5
:10595000E8D116E080693840C01BB0FA80F04009F9
:10596000A0424FF0000018BFBDE8F081FCF74AFEEE
:10597000286881693940C91BB1FA81F14909A142FE
:10598000E8D100202021286385F83D1085F83E00ED
:10599000296C41F02001296485F83C000120BDE814
:1059A000F08100BF0020BDE8F08100BF0020BDE80D
:1059B000F081000080B541F6383046F20041C2F275
:1059C0000000C4F200010322002380E80E0000F171
:1059D0000C014FF4A02C4FF4C00E81E808504FF496
:1059E000807183618183FCF7A9FB002808BF80BD1B
:1059F000BDE88040FCF7B8B880B541F6603046F6A7
:105A00000001C2F20000C4F200010322002380E87A
:105A10000E0000F10C014FF4102C4FF4001E81E831
:105A200008504FF4807183618183FCF787FB002865
:105A300008BF80BDBDE88040FCF796B810B546F2BF
:105A400061504BF6D862C0F60000C0F6000200219B
:105A500003F02EFC40F21014C2F20004206046F263
:105A600081504BF6B462C0F60000C0F6000200217F
:105A700003F01EFC606046F235504BF69062C0F6B3
:105A80000000C0F60002002103F012FCA06010BD6F
:105A90002DE9F04387B0002743F6300006970197C1
:105AA000C4F20200016840F2000841F08001016088
:105AB0000168C4F2020801F0800101910199019787
:105AC0000168012241F0010101600168122601F024
:105AD00001010191019901970168012441F004013C
